:020000040800F2
:1000000010C4012049EC000891E6000893E60008BE
:100010009DE600089FE60008A1E600080000000039
:1000200000000000000000000000000087760008CB
:10003000A5E60008000000003D760008A9E60008DB
:1000400039ED00083DED000841ED000845ED0008E0
:1000500049ED00084DED0008CFE60008D1E60008A4
:10006000D3E60008D5E60008D7E6000865ED0008ED
:1000700069ED00086DED000871ED000875ED0008F0
:1000800079ED00087DED000881ED000885ED0008A0
:1000900089ED00088DED000891ED0008D9E6000813
:1000A00099ED00089DED0008A1ED0008A5ED000800
:1000B000A9ED0008ADED0008B1ED0008B5ED0008B0
:1000C000B9ED0008BDED0008C1ED0008C5ED000860
:1000D000C9ED0008CDED0008D1ED0008D5ED000810
:1000E000B1E60008DDED0008E1ED0008E5ED0008EF
:1000F000E9ED0008EDED0008F1ED0008F5ED000870
:10010000F9ED0008FDED000801EE000805EE00081D
:1001100009EE00080DEE000811EE000815EE0008CB
:1001200019EE00081DEE000821EE000825EE00087B
:1001300029EE0008DBE6000831EE000835EE000885
:1001400039EE00083DEE000841EE000845EE0008DB
:1001500049EE00084DEE000851EE000855EE00088B
:1001600059EE00085DEE000861EE000865EE00083B
:1001700069EE00086DEE000871EE000875EE0008EB
:1001800079EE00082DE9F04F83B004000D0060689F
:10019000DFF8341C0860DFF8300C0068008801F0DC
:1001A000D5F96168C0F3032080B211EB8000DFF85D
:1001B0001C1C0860DFF8100C0068008801F0C6F90C
:1001C000C0F3032080B2800000B2414209B2200097
:1001D00001F0D1FA002802D12089142803D220008E
:1001E00001F015FB40E22900DFF8DC0B006810305D
:1001F00001F0E8FB002810D15FF0704001F0B9F980
:1002000083465FF0604001F0B4F9DFF8BC1B096879
:1002100009691BEA0101814203D1200001F0F7FACC
:1002200022E2DFF8A80B0068808901F08FF980B224
:10023000000B81465FFA89F97FF0030000FB09F1AA
:1002400009B2200001F097FA002803D0200001F045
:10025000DEFA09E2DFF8740B0068008801F076F935
:10026000DFF8681B09680880DFF8600B00684088C9
:1002700001F06CF9DFF8541B09684880DFF84C0B7B
:100280000068406801F075F9DFF8401B09684860B4
:10029000DFF83C1B0860DFF8340B0068806801F071
:1002A00068F9DFF8281B09688860DFF8281B0860F8
:1002B000DFF8180B0068C08901F048F9DFF80C1B63
:1002C0000968C881DFF8040B0068808901F03EF9F5
:1002D00010F03F00DFF8001B0870DFF8FC0A007820
:1002E0000321084201D0012000E0002021894018AC
:1002F000DFF8E81A088000200700DFF8E40A006849
:100300000600002E2AD0308CDFF8C01A0968098850
:10031000884220D1308BDFF8B41A096849888842B6
:1003200019D17068DFF8A01A0968C968884212D12B
:100330003068DFF8941A0968096988420BD1002FE8
:1003400008D0F068F860DFF8980A0068F060DFF81D
:10035000900A066002E03700F668D2E7002E63D10B
:10036000DFF8800A00680600002E24D0308CDFF809
:100370005C1A0968098888421BD1308BDFF84C1A57
:1003800009684988884214D17068DFF83C1A096806
:10039000C96888420DD13068DFF82C1A09680969EC
:1003A000884206D1300000F006FA200001F02FFA52
:1003B0005AE1F668D8E700200700DFF82C0A006849
:1003C0008046B8F1000F2FD0B8F1000F0BD0D8F84D
:1003D0000000002807D0D8F80000DFF8EC19096801
:1003E000096988421CD1B8F81800DFF8E0190968DB
:1003F0004988884214D1002F0BD0D8F80C00F8603F
:10040000DFF8E4090068C8F80C00DFF8DC09C0F880
:100410000080404600F02AF9200001F0F8F923E1BD
:100420004746D8F80C80CCE7002E00F0F280002080
:10043000DFF8B81908602089DFF8B0198881606892
:10044000DFF8A8198860DFF8A4094460DFF87C09A8
:100450000068DFF8981908610020DFF89419086037
:100460000020DFF890190870F06F00281FD0D6F830
:100470008400002808D00023F26F31007069D6F89C
:1004800084C0E047824606E00023F26F310000207E
:1004900001F0AFFF82464FFA8AFABAF1000F02D19B
:1004A0000020F06703E0200001F0B1F9DCE0DFF8A4
:1004B00048090660300000F0D8F982464FFA8AFAFF
:1004C0001AF1050F00F09280DFF828090078000784
:1004D00013D5D6F89000002805D07FF0050170698B
:1004E000D6F8902090473100DFF8F40802F081F848
:1004F0003100022002F04BF978E0DFF8F8080078CC
:10050000C00609D53100DFF8D80802F072F83100D2
:10051000022002F03CF969E000208246B6F86C0047
:1005200000280ED0D6F88000002808D0B6F86C203D
:1005300031007069D6F880309847824601E000208B
:100540008246DFF8AC08006800282FD0DFF8880862
:100550000078000709D5DFF898080068407B50F064
:100560000100DFF88C1809684873D6F88400002869
:100570000AD00023DFF87808026831007069D6F8E5
:1005800084C0E047824608E00023DFF86408026880
:100590003100002001F02DFF82464FFA8AFABAF1AD
:1005A000000F03D0DFF848080068F067DFF8440860
:1005B0000078800613D5D6F88400002808D00023E0
:1005C000002231007069D6F884C0E047824606E018
:1005D000002300223100002001F00BFF82460020A2
:1005E000DFF814180860300002F0CBFB0020DFF8C1
:1005F00008180860DFF8F4074068002834D0DFF8F6
:10060000EC07406801F003F90020DFF8E0174860CC
:100610002AE0DFF8B8070068808900F097FF4007FC
:100620001FD4DFF8A807006800880190DFF89C0756
:10063000006840880090DFF89007006810F10C0314
:10064000DFF88407006810F11002DFF88407006803
:10065000DFF8881709880918DFF87807006802F0C2
:10066000F9FC200001F0D3F8BDE8F78F7CB5040059
:10067000DFF864070078C00621D5DFF8500700686E
:1006800000880190DFF84407006840880090DFF898
:100690003807006810F10C03DFF82C07006810F130
:1006A0001002DFF82C070068DFF8301709880918F6
:1006B000DFF820070068401C02F0CCFC79E0DFF88E
:1006C00018070078800774D5607C01F0F8FE0500FB
:1006D000002D02D15FF0FF306CE0DFF8EC0600681F
:1006E0001030002801D1002003E0DFF8DC060068AC
:1006F00000692860208B2883DFF8CC0600680C3066
:10070000002801D1002003E0DFF8BC060068C068C3
:100710006860DFF8B8060068008828840320287421
:10072000DFF8AC060068401C6862686AE862DFF8BF
:100730009C060068C089A5F85C00B5F85C00A5F8C7
:100740005400DFF88C060068401E28666069686106
:10075000E069E861208940F2991108402881DFF8BA
:1007600080060068E860DFF87806056002F0FBFDAF
:10077000280000F069FE291D288F01F082FF2887DC
:100780000120019000200090122300220021280067
:1007900002F09DF8060076B2002E06D00021280057
:1007A00001F0DFF9300040B204E0280002F0E9FA7D
:1007B00000E0002076BD1CB50400DFF81C060078C0
:1007C000400701D500204FE0DFF80C0600788007D5
:1007D00031D5DFF8FC050068616A401A002833D47F
:1007E000DFF8EC050068616A401A218D401A012883
:1007F0002ADADFF8D805006800880190DFF8CC0518
:10080000006840880090DFF8C005006810F10C0314
:10081000DFF8B405006810F11002DFF8B4050068D5
:10082000DFF8B81509880918DFF8A805006802F094
:1008300011FC002018E0DFF8A0050078C00703D500
:10084000DFF8D40C00682063DFF8900500880028EA
:1008500009D094F8220050F0020084F82200200011
:1008600002F08FFA00E0002016BD2DE9FC410400E3
:10087000002600200700DFF860050078400733D528
:10088000207C022808D1DFF84C050068A16D884261
:1008900014D10120060011E0DFF834050068616A18
:1008A000401A00280AD4DFF828050068616A401A57
:1008B000218D401A012801DA01200600F6B2002E2F
:1008C00010D0DFF83005007850F00800DFF824156C
:1008D000087094F8220010F0FE0084F822007FF0E7
:1008E00005006FE200206DE2DFF8EC04007880077D
:1008F00010D5207C02280DD0207C03280AD094F843
:10090000220050F0020084F82200200002F039FAA0
:10091000002057E2DFF8000C00682063002084F814
:100920009D00200000F090FD207C022814D0C0F033
:100930004882042800F02981C0F0A880062800F031
:10094000A181C0F03581082800F0E381C0F01D814D
:10095000092800F0228234E2DFF8C00B007810F0A2
:10096000120012286CD1A06F0069406800F001FEEF
:10097000DFF860140968401C814261D1B4F86E0050
:10098000401CA4F86E00DFF848040068401C606258
:10099000606AE062DFF83C040068E064DFF82C0481
:1009A0000068C089A4F85C00DFF824040068401ED9
:1009B000206604202074211D208F01F062FE208714
:1009C000208F0A214843A4F85400B4F852000128AB
:1009D00003D1208F80B2400000E0208FA4F85200A5
:1009E000B4F87000401EA4F87000A06F05002868DD
:1009F000A067A06F002803D15FF0FF30E08604E01D
:100A00000020E086002084F84A00280001F0DEFC87
:100A1000D4F88800002807D0002221006069D4F8AB
:100A200088309847070001E00020070094F8220072
:100A300050F0020084F82200200002F0A2F924E025
:100A4000DFF8D80A0078C0061FD5DFF880030068F9
:100A500000880190DFF87403006840880090DFF898
:100A60006803006810F10C03DFF85C03006810F104
:100A70001002DFF85C030068DFF8601309880918CA
:100A8000DFF85003006802F0E5FA9AE1DFF88C0A1B
:100A90000078C0066AD5DFF83C030068E16C401AB4
:100AA000401E002848D4CB480068A16D401A012898
:100AB00042DA04202074E069002806D000222100D8
:100AC0006069E3699847070001E0002007007FB2F2
:100AD000002F06D00121200001F043F87FF0040030
:100AE00070E1B4F852008046200000F087F9B4F8B5
:100AF0006C00002804D0B4F86C00401EA4F86C0010
:100B00001FFA88F8B8F1010F03D1208F80B240009E
:100B100000E0208FA4F85200B6480078800633D554
:100B200094F8220050F0020084F82200200002F025
:100B300028F90720207427E0A44800680088019065
:100B4000A2480068408800909F48006810F10C039C
:100B50009D48006810F110029D4800689F4909886F
:100B600009189C48006802F075FA0DE0DFF8AC093E
:100B70000078800708D596480068616A491E884257
:100B800002D1200002F0E4FA1BE1200000F036F967
:100B90009848007880060AD594F8220050F00200A8
:100BA00084F82200200002F0ECF80720207408E10D
:100BB000200000F023F98F480078800655D5DFF833
:100BC0005C090078C00644D582480068A16D88425F
:100BD0003FD194F8220050F0020084F82200200057
:100BE00002F0CFF8200001F0E2FC7D480068A0424E
:100BF00005D17B480068C068794908601DE07848E5
:100C00000068DFF81C190860DFF814090068002884
:100C100013D0DFF80C090068C068A04205D1E06875
:100C2000DFF8FC180968C86007E0DFF8F40800681E
:100C3000C068DFF8EC180860E6E70020E0600A20F2
:100C4000207468480068E0606648046002F08BFB2E
:100C500017E094F8220050F0020084F822002000EF
:100C600002F08FF8082020740BE0DFF8B00800785D
:100C7000C00606D557480068A16D884201D10620FC
:100C800020749EE0200000F0B9F85A4800788006F1
:100C90003ED594F8220050F0020084F82200200093
:100CA00002F06FF8200001F082FC4D480068A0427D
:100CB00005D14B480068C068494908601DE04848B4
:100CC0000068DFF85C180860DFF854080068002846
:100CD00013D0DFF84C080068C068A04205D1E06876
:100CE000DFF83C180968C86007E0DFF834080068DE
:100CF000C068DFF82C180860E6E70020E0600A20F2
:100D0000207438480068E0603648046002F02BFB2D
:100D100057E0200000F072F8DFF800080078C00605
:100D20003AD52C480068A16D884235D1200001F0E9
:100D30003EFC2B480068A04205D129480068C068E5
:100D4000274908601DE026480068DFF8D4170860CE
:100D5000DFF8CC070068002813D0DFF8C40700686C
:100D6000C068A04205D1E068DFF8B4170968C86020
:100D700007E0DFF8AC070068C068DFF8A417086078
:100D8000E6E70020E0600A20207416480068E06072
:100D90001448046002F0E7FA13E0200000F02EF897
:100DA000DFF878070078C0060AD50A480068A16D08
:100DB000884205D10F48007850F010000D490870A6
:100DC000FFE70020BDE8F681C0930120BC9301201D
:100DD000C4930120C89301200C94012002940120A7
:100DE000B0930120B4930120AC930120A89201207C
:100DF000CC9301200D940120D09301202DE9F84FD0
:100E000004005FF00009DFF814070078C00640F125
:100E1000DC81B4F85C00616E08180090206EDFF889
:100E200004170968401A00281AD4206EDFF8F41657
:100E30000968884206D1606EDFF8EC160968401A2E
:100E400000280DD4606EDFF8E0160968884220D1D2
:100E5000B4F85C00DFF8D4160968C989884218D252
:100E6000DFF8C8060068C089A4F85C00DFF8B406A3
:100E700000682066DFF8B00600686066B4F85C00C1
:100E8000002806D094F89C00002802D0002084F8A6
:100E90009C00DFF894060068E16C401A012849DAEA
:100EA0000020A4F86C00DFF888060088002839D1FB
:100EB000606EB4F85C1008180099884232D1B4F919
:100EC000360000282ED4E06CDFF85C1609688842F2
:100ED00028D10120814694F8500094F85010491C04
:100EE000884204DA94F85000401C84F8500094F8CA
:100EF000500004280FDBB4F85200B4F85210228FCF
:100F0000511889B288420DD2B4F85200218F0818C6
:100F1000A4F8520006E094F85000032802D1200003
:100F200002F03FF9B9F1000F40F0C580002084F8CD
:100F30005000C0E0DFF8F0050068E16C401A401E88
:100F4000002800F1B580DFF8E0050068A16D401AC7
:100F5000012880F2AD8094F82200400709D594F86A
:100F6000220010F0FB0084F82200B4F85400A4F82A
:100F70005200002084F84A00B4F94400B4F9461045
:100F800011EBE000A4F84800DFF89C050068E16C74
:100F9000401AA4F86C00B4F86E00B4F86C1008188D
:100FA000A4F86E00002084F85000DFF87C0500688B
:100FB000E064207C042826DBB4F85200B4F8541016
:100FC00088420FD2B4F85200B4F85210228F511850
:100FD00089B2884205D2B4F85200218F0818A4F8CB
:100FE000520010E0B4F85200218F228F5143B4F820
:100FF000522091FBF2F10818B4F8521080B28142ED
:1010000001D2A4F85200A06F002844D0A06F00695C
:10101000406800F0AEFA8246A06F0069808900F057
:1010200095FA0321084201D0012000E00020A16FC1
:101030008989C0B2401810EB0A00DFF8EC14096887
:10104000401A012827DAA06F0500A06F0068A0678A
:10105000686800F01BFCB4F86C1000290AD02869FD
:10106000808900F073FAC00704D5B4F86C00401E04
:10107000A4F86C00686800F009FCB4F87010C0B205
:10108000081AA4F87000280001F0A0F9B4F8700064
:101090000028B8D0B7E7A06F002803D15FF0FF3079
:1010A000E08601E00020E086002084F8340002E0C1
:1010B0000020A4F86C00606F00284BD0606F0069BE
:1010C000406800F056FA8246606F0069808900F03F
:1010D0003DFA0321084201D0012000E00020DFF8A2
:1010E00048140968B1EB0A01626F9289C0B2801896
:1010F000081A00282ED4DFF830040068A16D401AC9
:10110000012827DA606F0500606F00686067686813
:1011100000F0BCFBB4F86C1000290AD02869808963
:1011200000F014FAC00704D5B4F86C00401EA4F80F
:101130006C00686800F0AAFBB4F87010C0B2081A1E
:10114000A4F87000280001F041F9B4F870000028FC
:10115000B1D0B0E7E06B002837D0206CDFF8C813BF
:101160000968401A002830D5DFF8AC030068E16B4D
:10117000401A80460FFA88F8B4F94400B8EBE0084A
:10118000B4F8440018EB0000A4F844000FFA88F803
:10119000B8F1000F03D50FFA88F8D8F100080FFA5C
:1011A00088F8B4F94600B8EBA008B4F8460018EB8C
:1011B0000000A4F84600B4F94400B4F9461011EB5D
:1011C000E000A4F848000020E063DFF86403008832
:1011D000002800F01F81606ADFF848130968401A90
:1011E000401E00284CD4606ADFF838130968401AA2
:1011F000DFF83C130988401A401C012840DA606A75
:10120000C8490968401A0700CA4840680600C9482A
:1012100040684089B84217DAC64840680089C01B58
:1012200083467089B84207DA70893F1AA6F808B079
:10123000002070813668F4E7794209B2300000F08E
:101240009AFA002807D006E0794209B2B948406806
:1012500000F091FA00287068B6498860B548808926
:10126000616AB04A1268891A401AB2498881606A74
:10127000AC490860AB480068AE49096948600EE0B7
:10128000A8480068616A401A002808D594F822002E
:1012900050F0020084F82200200001F072FDA14805
:1012A0000068616A401A002800F1B0809D4800681B
:1012B000616A401A218D401A401C012880F2A680E4
:1012C000606A98490968884240F09C8099480069A2
:1012D000808900F03BF90321084201D0012000E0A1
:1012E000002094498989C0B2401891490880208D16
:1012F0008F490988884243D28E480069808900F06E
:1013000025F9C00716D54FF6C07000F019F98246CE
:1013100088480069808900F019F910F03E0000F05B
:101320000FF98449096989891AEA01010843814949
:1013300009698881208D7F4988817E48006980897C
:1013400000F004F9800704D57A488089401E794965
:101350008881784881897748406800F0D6F97548D7
:101360000069808900F0F2F80321084201D00120D1
:1013700000E000206F498989C0B240186C4908809C
:10138000684800686A49098808186062208D6849C1
:101390000988401A2085200000F03CFD654840681F
:1013A0000089002806D0634840686349086000202F
:1013B000604948605F480069808900F0C7F8C0074D
:1013C00005D55E48007850F020005C49087094F81C
:1013D0002200C0070FD594F8220010F0FE0084F818
:1013E000220094F8220050F0020084F8220020002D
:1013F00001F0C7FC05E094F8220050F0010084F8E9
:1014000022001FE0200001F08AFC1BE0200001F018
:1014100086FC17E043480068616A401A002808D437
:1014200040480068616A401A218D401A401C01281A
:1014300008DB94F8220050F0020084F8220020001B
:1014400001F09FFCBDE8F18F2DE9F8430400374817
:1014500000681430804635480068808900F076F8CE
:1014600080B2000B80B2062853DB304800688089C8
:1014700000F06CF880B2000B401F800006000020D6
:101480000500ADB2B6B2B54243D2ADB215F8080010
:1014900081465FFA89F9B9F1000F04D0B9F1020F62
:1014A00004D001D328E034E06D1CEAE7ADB215EBBF
:1014B00008004078042804D1B6B2ADB2281D864297
:1014C00000DA26E0ADB215EB08008078ADB215EB7E
:1014D0000801C97851EA00200700BFB240F2B550B8
:1014E000874202DABFB2002F02D140F2B45000E0CE
:1014F000380020872D1DC4E7ADB215EB08004078F9
:10150000002806D0280080B210EB0800407845196A
:10151000B7E7BDE8F1830000A49301200C940120FB
:10152000B8930120C4930120C8930120BC930120EB
:1015300002940120A8920120CC9301200D94012057
:1015400080B2010A51EA002080B2704710B5040051
:10155000200080B2FFF7F4FF10BD10F47F410902B4
:1015600051EA0061020A12F47F42114351EA10600D
:10157000704710B504002000FFF7EFFF10BD2DE904
:10158000F84F04008B46150000208246E4B2002C80
:1015900005D0022C07D004D3032C07D007E01AF1A2
:1015A000140A1AF1140A1AF10E0A02E001E00020EE
:1015B000A9E0EDB2002D68D0022D00F08B80C0F0C4
:1015C0008980032D40F098800B2001F0C4F80600BC
:1015D000002E01D1002096E03573002030601FFA04
:1015E0008AFA1AEB06001030C01C80088000706078
:1015F000A6F808B01FFA8BFB1FFA8AFA1AF103004B
:1016000030F00300D0F50070834501DA584606E05B
:101610001AF103004FF6FC710840D0F5007070819C
:101620000120F081B0461FFA8BFB7089BBEB0000F4
:101630008146B9F1010F27DB0B2001F08CF8070080
:10164000002F04D1300000F0E2F800205BE03D7391
:101650000020787300203860C8F80070A7F8089060
:10166000484680B2B0F5007F01DA484601E04FF409
:101670000070788117F1100078600120F881788976
:10168000B9EB0009B846D4E738E01AF113004FF679
:10169000FC7108401FFA8BFB1BF1030131F00301C1
:1016A000081880B202F0DCF80600002E01D10020FC
:1016B00029E01FFA8AFA1AEB06001030C01C8008D5
:1016C00080007060A6F808B030897081002030601A
:1016D000357313E00A2001F03EF80600002E01D118
:1016E000002010E000207060A6F808B030897081FA
:1016F00000203060357301E0002004E00120F0811B
:10170000002070733000BDE8F28F2DE9F041040035
:101710000D002089ADB285422BD2ADB22089281AA6
:1017200080462F0026007089BFB2B84207D2708968
:101730003F1A308918EB000030813668F3E7307BC0
:1017400000280BD17089BFB2874207D07068801B18
:10175000391889B2300001F0D1FF06007781708915
:1017600030813068002802D0306800F050F8002046
:101770003060BDE8F08170B4020009B2002901D0E8
:10178000002A01D1002040E009B2002909D509B2A0
:10179000484205005089ADB2A84201D2012034E090
:1017A00000E00D00107B0300506804009BB2002B8A
:1017B00002D09BB2032B0BD1506809B2401A506083
:1017C000506812F11006B04218D2546001201CE09B
:1017D0009BB2022B02D09BB2012B0DD109B2002982
:1017E00008D55089ADB2A84204D3506809B2401A56
:1017F000506003E0012008E0012006E0508908184D
:101800005081108908181081002070BC70472DE9A4
:10181000F8430400002C01D1002035E0002007002F
:10182000002C2FD002F0F4F98146E089401EE081BF
:10183000E0898046484602F0F0F91FFA88F8B8F1CE
:10184000000F1CD120680600207B0500ADB2032DDF
:1018500004D121000B2000F09AFF0DE0ADB2012D64
:1018600002D0ADB2022D04D121000A2000F08FFF7A
:1018700002E0200001F017FF7F1C3400D0E70020B9
:101880000400CDE73800C0B2BDE8F28301000022B9
:101890001000002902D0401C0968FAE7C0B2704766
:1018A00038B50400002C08D002F0B2F90500E08938
:1018B000401CE081280002F0B0F931BD10B40028CE
:1018C00001D0002900D10EE002001368002B05D0E2
:1018D00013890C89E31813811268F6E713890C89C0
:1018E000E3181381116010BC704738B504000D0077
:1018F00029002000FFF7E2FF2800FFF7D1FF31BDEC
:101900002DE9F04704000D0000275FF00008002CCF
:1019100005D0002D03D020892989884202D27FF08A
:1019200009004DE06089BFB2C01B69891FFA88F8C1
:10193000B1EB0801884204DB6889B0EB08000600BF
:1019400002E06089C01B0600B6B268681FFA88F81A
:1019500018EB00096068BFB217EB000A3200494675
:10196000504602F05FF9F71916EB08086089BFB21C
:10197000874202D100200700246868891FFA88F88E
:10198000804502D3002080462D68002D09D068894B
:101990002989884205D12868002802D07FF00800F4
:1019A0000EE0002C09D060892189884205D1206889
:1019B000002802D07FF0080002E0002DB2D1002004
:1019C000BDE8F08730B4020010680300D843002857
:1019D00001D0002B01D101201CE091F831008007DB
:1019E00001D4002016E04868834201D1002011E0B4
:1019F00010688C6820404C688D682C40A04208D14B
:101A0000886833EA00008C68E443A04201D10120D9
:101A100000E0002030BC704780B500F08DFCDFF89E
:101A2000900C0078401CDFF8881C0870DFF8800CF0
:101A30000078C00701D500F009FB01BD38B50400EE
:101A4000207C00280AD001283FD002284BD0032850
:101A500057D0042860D0072869D073E00020050023
:101A6000DFF8500C0068A04207D1DFF8480C00688E
:101A7000C068DFF8401C08601EE0DFF8380C006822
:101A8000DFF8341C0860DFF8300C0068002813D041
:101A9000DFF8240C0068C068A04205D1E068DFF8D8
:101AA000181C0968C86007E0DFF80C0C0068C06803
:101AB000DFF8041C0860E6E70020E0602100022057
:101AC00000F065FE0020040040E000200500210039
:101AD000DFF8E80B00F08DFD2100032000F057FE39
:101AE0000020040032E0002005002100DFF8D00BC8
:101AF00000F07FFD2100022000F049FE00200400DC
:101B000024E00121200000F0ACFE05006DB2002DA4
:101B100001D10520207419E00121200000F0A1FE70
:101B200005006DB2002D01D1052020740EE00121C9
:101B3000200000F096FE05006DB2002D01D10920B5
:101B4000207403E00020050000200400002C05D0D4
:101B50006DB2002D02D1200001F013F9280040B22F
:101B600032BD2DE9F04F85B004000D00207C0A281D
:101B700009D12100DFF84C0B00F03BFD21000220D1
:101B800000F005FE47E0A06D0600606A0700002C2B
:101B900002D10020029001E020680290201D002860
:101BA00002D10020039001E060680390208B814601
:101BB000208C8046D4F890008246606983462100DC
:101BC000DFF8FC0A00F015FDA06F002802D0A06F1E
:101BD00000F0EBFB606F002802D0606F00F0E5FBC7
:101BE0002100022000F0D3FD5046002803D07FF0F2
:101BF00004015846D047002D0DD01FFA88F8CDF8C3
:101C000004801FFA89F9CDF8009003AB02AA3900CD
:101C1000300001F01FFA05B0BDE8F08FF8B5040000
:101C20000D001600207C002802D07FF00C0081E01F
:101C3000B6B2002E02D100F032F90600DFF87C0ABD
:101C400000680700002F16D0388BB6B2B04210D112
:101C5000002F0BD03868002808D0002D06D0286847
:101C6000002803D038682968884202D17FF00A0032
:101C700060E0FF68E6E7DFF8480A00680700002F29
:101C800016D0388BB6B2B04210D1002F0BD03868C6
:101C9000002808D0002D06D02868002803D0386816
:101CA0002968884202D17FF00A0043E0FF68E6E736
:101CB000DFF8000A00680700002F16D0388BB6B294
:101CC000B04210D1002F0BD03868002808D0002D6A
:101CD00006D02868002803D038682968884202D1D5
:101CE0007FF00A0026E0FF68E6E7DFF8D809006821
:101CF0000700002F0CD0388BB6B2B04206D138683E
:101D00002968884202D17FF00A0013E0FF68F0E7FB
:101D1000002D04D02868002801D028682060268380
:101D2000DFF890090068E060DFF88809046001F0DE
:101D30001AFB0020F2BD03007FF00400704770B56D
:101D400006000C00307C002801D0002061E0307CCF
:101D5000012801D130005CE0032000F0FCFC05000C
:101D6000002D01D1002054E070696861308B288318
:101D70000120287430892881288950F002002881A8
:101D8000F07AE872B07AA872002E01D1002000E04B
:101D900030682860DFF81C090068B04207D1DFF81E
:101DA00014090068C068DFF80C1908601EE0DFF84D
:101DB00004090068DFF800190860DFF8FC08006813
:101DC000002813D0DFF8F0080068C068B04205D1E1
:101DD000F068DFF8E4180968C86007E0DFF8D808A1
:101DE0000068C068DFF8D0180860E6E70020F060FF
:101DF0003100022000F0CBFCDFF8CC08E861DFF80E
:101E0000BC080068E860DFF8B408056001F0ABFAD0
:101E1000280070BD0100486A0A8D1218088F40F230
:101E2000B553984202DB40F2B45000E0088FCB6A11
:101E3000D31A181A002804D4088D4885C86A101AC5
:101E40000CE0486ACB6AC01A012802DB00204885F2
:101E500003E0C86A4B6AC01A48850020704770B515
:101E600004000D00208D28182085208D40F6693152
:101E7000884202DB40F6683020852000FFF7CAFF69
:101E8000060040F2DA20864208DB94F8220050F087
:101E9000020084F82200200000F073FF70BDDFF81C
:101EA0002C080088401CDFF824281080DFF81C086C
:101EB0000088B0F5004F04DB4FF48050DFF80C28A9
:101EC0001080DFF8FC0700680100002907D0088BAC
:101ED000DFF8F82712889042E1D0C968F5E7DFF80B
:101EE000E40700680100002907D0088BDFF8DC2731
:101EF00012889042D3D0C968F5E7DFF8C0070068C0
:101F00000100002907D0088BDFF8C0271288904213
:101F1000C5D0C968F5E7DFF8B407008870472DE938
:101F2000F04383B004000D0016001F00207C002841
:101F300002D07FF00C0087E0002D06D0286860609A
:101F40002684208B002806D102E07FF008007BE089
:101F5000FFF7A5FF208300F08AFB81460020606226
:101F6000C4F85890B9F10100E064B9F10100A0662D
:101F700040F66830208540F668306085606AE0622F
:101F800040F66830A4F85C004FF406702087290002
:101F9000208F00F076FB20870120A4F85200208FCC
:101FA0000A214843A4F8540002202074C4F8887021
:101FB000DFF800070068A04207D1DFF8F8060068E4
:101FC000C068DFF8F01608601EE0DFF8E806006879
:101FD000DFF8E4160860DFF8E0060068002813D098
:101FE000DFF8D4060068C068A04205D1E068DFF8D9
:101FF000C8160968C86007E0DFF8BC060068C0685A
:10200000DFF8B4160860E6E70020E060DFF8B0060D
:102010000068E060DFF8A806046001F0A4F9012080
:10202000019000200090022300220021200000F0F7
:102030004EFC80464FFA88F8B8F1000F02D120001C
:1020400000F09FFE404640B2BDE8FE832DE9FC470C
:1020500000208246DFF878060068401CDFF8701622
:10206000086000200600DFF8580600680400002C15
:10207000002C00F030810020804600208146207C2A
:10208000022806D194F84A00062802D118F1010866
:102090006CE094F84A000C2802D118F1010865E0C0
:1020A00094F89C0000281FD0D4F89800401CC4F875
:1020B0009800D4F89800DFF81C1694F89C2051186A
:1020C00011F8011C884251D30020C4F8980094F8FC
:1020D0009C00072804D294F89C00401C84F89C00C3
:1020E000200001F0BCF841E0B4F93600002802D429
:1020F000E08E401CE086A06F002837D0B4F936008F
:10210000B4F94810884231DB207C02280DD0B4F9A4
:102110004400B4F9461011EBE000DFF8BC1594F868
:102120004A2051568840A4F848000020E086B4F8C0
:102130005200B4F85C10884202D2B4F8527001E048
:10214000B4F85C70BFB27808A4F85400B4F8540036
:10215000218F884204D2208F80B24000A4F854001E
:10216000208FA4F85200200000F0D5FF207C062824
:1021700008D1DFF85C050068216B401A292801D3DB
:1021800018F10108207A000735D5207C042802D0F8
:10219000207C07282FD1D4F89400DFF840150818C8
:1021A0004FF4FA71B0FBF1F0DFF824150968226BE7
:1021B000891A884204D218F1010819F101091AE0BC
:1021C000D4F8940094F89D10DFF8142502FB010068
:1021D0004FF4FA71B0FBF1F0DFF8F4140968226BE8
:1021E000891A884207D2200001F016F894F89D0061
:1021F000401C84F89D00207C032808D1DFF8D0041F
:102200000068216B401A292801D318F10108207CAD
:10221000092808D1DFF8B8040068216B401AF128BA
:1022200001D318F101085FFA88F8B8F1000F2CD03B
:10223000200000F0BCF9002E02D0E068F06003E05E
:10224000E068DFF87C140860D4F89000002805D01E
:102250007FF004016069D4F8902090475FFA89F913
:10226000B9F1000F09D0208C0190208B0090231D24
:102270002200616AA06D00F0EDFEE068050021001B
:10228000022000F084FA2C00F2E694F83400401C9E
:1022900084F8340094F8340094F83510884217D349
:1022A000002084F83400D4F88C00002806D02100E7
:1022B0006069D4F88C209047824601E00020824675
:1022C0004FFA8AFABAF1000F02D1200000F059FD4E
:1022D0002600E468CCE600200600DFF8E80300688A
:1022E0000400002C26D000208046DFF8E4030068BC
:1022F000216B401AF12801D318F101085FFA88F820
:10230000B8F1000F13D0200000F051F9002E02D0D8
:10231000E068F06003E0E068DFF8A8130860E068B8
:1023200005002100022000F032FA2C00D9E7260037
:10233000E468D6E7BDE8F38770B5DFF8840300688A
:102340000400002C30D0E06F002818D0D4F88400AE
:10235000002808D00023E26F21006069D4F884606F
:10236000B047050006E00023E26F2100002000F0E6
:1023700040F805006DB2002D01D10020E06794F80F
:102380002200C0070ED594F8220050F0020084F815
:102390002200200000F0F5FC94F8220010F0FC0070
:1023A00084F82200E468CCE770BD70B50400002515
:1023B000002C08D020680600200000F007F8401923
:1023C00005003400F4E72800C0B270BD38B5040041
:1023D0000025002C0AD06068002803D06068FFF751
:1023E00016FA05002100042000F0D1F92800C0B23F
:1023F00032BDF8B504000D0016001F00002E07D0F6
:1024000031892800FFF72BFD3000FFF700FA06E0C6
:102410007FB2002F03D12800FFF710FB00E000205F
:10242000F2BD2DE9F04104007F2080460020070026
:1024300000200600A24800680500002D18D0687C26
:10244000E4B2844212D3687C5FFA88F880450DD3E9
:102450009F480068296B401AB84207D39C4800681F
:10246000296B401A07002E00687C8046ED68E4E77F
:10247000002E03D001213000FFF773FBBDE8F0818F
:1024800070B500200600002005008E48006804009A
:10249000002C0DD08E480068216B401AB04205D345
:1024A0008B480068216B401A06002500E468EFE7BE
:1024B000002D03D001212800FFF753FB70BD2DE94B
:1024C000F0410400022000F046F90500002D0FD174
:1024D000FFF7D6FF022000F03EF90500002D07D1DE
:1024E0002000C0B2FFF79DFF022000F034F9050084
:1024F000002D42D0A0275FF0000842463900280096
:1025000001F0DAFB4020687441F68440A5F86E00C3
:102510000020A5F8700040F66830288540F6683045
:1025200068850020A872FF20E8724FF406702887A3
:102530000620A5F848000020A5F844000620A5F8CC
:1025400046005FF0FF30E8860120A5F8520000F059
:102550008EF806006E66AE65EE64AE665C48006896
:102560002863002085F834005E48C5F884005E4882
:10257000C5F89400002085F89D002800BDE8F08192
:1025800080B54020FFF79BFF02BD41617047C0F856
:1025900084107047C0F880107047C0F890107047E2
:1025A000C1617047C0F88C1080F83520704710B5B5
:1025B0000400207C00281BD0207C0A2818D0207C16
:1025C000012815D0E06F002804D0E06FFFF71FF955
:1025D0000020E067606F0028A06F0028606FFFF7A1
:1025E000E4FEA06FFFF7E1FE00206067606FA06768
:1025F00010BD38B504000D002068A84203D1206842
:10260000C068206016E020682B4908602A480068EE
:1026100000280FD028480068C068A84204D1E868A4
:1026200025490968C86005E023480068C068224958
:102630000860EBE70020E8602800FFF7B8FF287C7F
:102640000A280FD0287C01280CD095F82200C0075A
:1026500008D595F8220050F0020085F822002800E5
:1026600000F08FFB287C01280020287431BD1F4812
:1026700000681749096808181C4908601B48006869
:102680007047F8B504000D00280001F04DFB07006D
:10269000002F0AD0388D002807D0388D2838060042
:1026A000A4B2B6B2B44200D33400200080B2F2BD6E
:1026B0000B940120A8930120B8930120AC93012032
:1026C000B0930120B4930120371D00082802002098
:1026D000A4930120F0EC000838EC0008B84C0A0084
:1026E000F8240100F323000800DD6D002002002023
:1026F00010B400231A0092B20C2A01DA521CFAE735
:102700002E4B9B089B00180000231A0092B20C2A43
:102710001FDA00232A4C92B244F822300023190019
:10272000284B92B233F8123089B299420FD2244B1F
:1027300092B253F822300360214B92B243F8220048
:10274000214B92B233F812301818491CE8E7521C9A
:10275000DCE710BC704770B50400E4B20C2C01DB60
:10276000002013E001F054FA06001548E4B250F8D6
:1027700024000500002D05D028681149E4B241F875
:102780002400FFE7300001F048FA280070BDF8B5DA
:1027900004000D00002D0FD02E0001F039FA0700C3
:1027A0000748E4B250F8240030600548E4B240F82D
:1027B0002460380001F031FAF1BD0000431A012015
:1027C000CC91012084EB00086CEB00082DE9F84364
:1027D00004000D0016001F00D5F80480208BFEF7C2
:1027E000AFFEA8F80000208CFEF7AAFEA8F80200B1
:1027F000C8F80470606AFEF7B0FEC8F808004FF62B
:10280000C070FEF79DFE81461020FEF799FEB8F8D5
:102810000C1019EA01010843A8F80C00608DFEF7BE
:102820008FFEA8F80E000020A8F81200B8F80C00DF
:10283000FEF78CFE042196FBF1F1491D10F03F00DC
:1028400050EA013080B2FEF77BFEA8F80C000020B1
:10285000A8F81000606A618D0818E0624046BDE883
:10286000F28330B583B004000D00002001900120F8
:1028700000902B00DBB200220021200000F027F89E
:102880003EBDF0B583B004000D0016001F00207C93
:10289000042808D0207C072805D0207C022802D0FC
:1028A000207C032810D1B6B2002E0BD0002001905E
:1028B000FFB200970023320092B22900200000F0FE
:1028C00006F803E0002001E07FF00700FEBD2DE9DF
:1028D000FE4F84B00400BDF8140000280BD19DF811
:1028E0004400002807D19DF818000321084202D1B6
:1028F0007FF0090010E2BDF81400002805D104980B
:10290000002802D07FF0090006E2B4F86E00BDF89E
:102910001410884208D294F8220050F0800084F805
:1029200022005FF0FF30F7E1BDF814008046049804
:1029300083469DF84400C00701D5042000E0002034
:102940009DF84410890701D50C2100E000210818EA
:102950008DF80200A06E0190B4F8700081461FFA55
:1029600089F9B9F1140F05DA1FFA89F94FF6FD70EC
:10297000814508DB94F8220050F0800084F82200A2
:102980005FF0FF30C8E11FFA89F9B9F1000FFFD1FC
:1029900000200500070006000020ADF80000002F11
:1029A00005D01FFA88F8B8F1000F00F0E180208F01
:1029B0009DF80210401A1FFA88F8404506DA208F69
:1029C0009DF80210401AADF8000001E0ADF800805B
:1029D0000420FFF7C0FE0500002D00F08D810020CF
:1029E000286000206860002F01D12F0000E03560D2
:1029F0002E009DF84000C00728D50022BDF8000039
:102A00009DF80210091889B20020FEF7B8FD686031
:102A1000002800F071816868FEF738FF10EB0900AC
:102A20008146049800280DD0BDF800000390686826
:102A300040689DF8021011EB000A039A594650466F
:102A400001F0F0F868684068A86031E000229DF865
:102A5000021089B20020FEF792FD6860002800F0A5
:102A60004B816868FEF712FF10EB090081461FFAE0
:102A700088F8B8F1000F1BD00122BDF80010032028
:102A8000FEF77DFD0290002805D16868FEF7BFFEC5
:102A90000020686030E119F101090298C0F804B023
:102AA000C5F808B002996868FEF708FF0020029098
:102AB0001FFA89F9B9F1150F05DA1FFA89F94FF6EE
:102AC000FD70814500DB17E1BDF80000A8811421ED
:102AD0006868FEF750FE002840F00E816868406884
:102AE0002861208BFEF72CFD29690880208CFEF7D9
:102AF00027FD296948800198FEF72FFD2969486064
:102B00000020296948824FF6C070FEF719FD824601
:102B10009DF8180080B2FEF713FD296989891AEA29
:102B200001010843296988819DF84400A873286938
:102B30008089FEF70BFD9DF80210042291FBF2F153
:102B4000491D10F03F0050EA013080B2FEF7F8FC5A
:102B500029698881BDF80000B8EB00080198BDF82C
:102B6000001008180190BDF8000010EB0B0B16E7E1
:102B7000606F002802D10020060006E0606F0600AA
:102B80003068002801D03668FAE7002E73D030692B
:102B90008089FEF7DBFC0321084201D0012000E020
:102BA0000020B189C0B24018002864D03069808903
:102BB000FEF7CCFC032108425DD19DF818000321EB
:102BC000084203D09DF81800012854D1208FB18904
:102BD000BA89511888424EDBB07BB97B88424AD112
:102BE00030694068FEF7C5FC824638694068FEF7E8
:102BF000C0FCB18911EB0A0181423CD19DF8020071
:102C00001430414209B27868FEF7B5FD002873D14F
:102C10007868408900280CD1D7F804A0786800684B
:102C200078600020CAF80000B9F101095046FEF7AB
:102C3000EEFD9DF81800C00708D50120FEF780FCC6
:102C40003169898908433169888109E07968706848
:102C5000FEF734FEB089B9890818B0813868306051
:102C6000BD4203D13500B089ADF800003900042021
:102C7000FFF78DFD04E0002E01D1676700E03760AB
:102C80009DF818000321084204D0BDF81400401C30
:102C9000ADF814009DF81800C00705D594F822007F
:102CA00050F0200084F82200A06EBDF8141008181F
:102CB000A066B4F86E00BDF81410401AA4F86E00B7
:102CC000A4F87090B4F870000028002D12D0BDF860
:102CD000000000280ED0286900280BD09DF8400085
:102CE000800707D40820FEF72BFC2969898908434F
:102CF0002969888100200FE094F8220050F08000BC
:102D000084F82200002F02D03800FFF74EFBB4F801
:102D1000700000285FF0FF3007B0BDE8F08FF0B51D
:102D200083B0040000270022FFB217F1140189B21A
:102D30000120FEF724FC0500002D02D17FF00100E8
:102D40001EE094F8220010F0FC0084F82200A06D30
:102D5000FEF703FC0300FFB23A0029002000FFF752
:102D600035FD060006200190A07A0090E37A221D2E
:102D70002100280001F092F92800FEF748FD00200C
:102D8000FEBD2DE9F0470400AF480068A04201D124
:102D90000020F3E0B4F85C00B4F85210884202D28C
:102DA000B4F85C8001E0B4F85280606F050094F8DC
:102DB000220080070FD5002D09D028694068FEF752
:102DC000D8FBE16C401AA9890818804503D220007D
:102DD000FFF7A5FFD2E0A06F0600002E04D03068F8
:102DE000002801D03668FAE7002D00F0A880286995
:102DF0004068FEF7BEFBE16C401AA98908188045BF
:102E0000C0F09D8028698089FEF7A0FBA16F002992
:102E100010D094F82200442108420BD1606F0028A2
:102E20000AD0606F0068002804D1606F8089218F0C
:102E3000884201D3012000E00020002804D194F84A
:102E40002200A02108427AD028686067207C0228EE
:102E50000DD01020FEF774FB296989890843296980
:102E6000888194F8220010F0FC0084F822002100F0
:102E7000280000F085F828694068FEF77AFB814653
:102E800028698089FEF762FB0321084201D00120F6
:102E900000E00020A989C0B2401810EB0907A06D1E
:102EA000C01B002800D5A76528698089FEF74EFB66
:102EB0000321084201D0012000E00020A989C0B20E
:102EC0004018012835DB00202860A06F002802D1BF
:102ED000A5672E0030E028694068FEF74AFB81466E
:102EE00030694068FEF745FBB9EB000000281DD5AE
:102EF00014F17809D9F80000002811D0D9F80000A1
:102F000000694068FEF735FB824628694068FEF795
:102F100030FBBAEB0000002802D5D9F80090E9E7B1
:102F2000D9F800002860C9F8005005E0356036681F
:102F300002E02800FFF74AFA606F050054E7002D11
:102F400015D094F89C00002811D128694068FEF73C
:102F500010FBB4F85C10E26C801AAA891018814248
:102F600005D20020C4F89800012084F89C0094F851
:102F7000220010F07F0084F822000020BDE8F087D6
:102F80002DE9FC4104000D00686AFEF7E6FA2169AC
:102F90008860688DFEF7D4FA2169C881686A698DF6
:102FA0000818E862206914308046A07BC00706D567
:102FB0002648FEF7D2FAC8F8000018F10408002DE0
:102FC00002D0286800280CD1281D00F0ADFE0700B3
:102FD000002F37D0381D002801D1002000E078688C
:102FE0002860B5F9360010F1010F01D10020E88604
:102FF000E86B002807D116480068E863206940683C
:10300000FEF7B7FA2864206961684968401A06002B
:1030100060684089801B6168488160680089801B06
:103020006168088120696168486000202169088220
:1030300006200190A87A0090EB7A2A1D290060688A
:1030400001F02CF8BDE8F381D0930120B40504020F
:10305000A49301202DE9FE4F06000F0090469946EB
:103060000C9C0D9D002214210120FEF788FA02908D
:10307000029800284DD0029840688246200080B215
:10308000FEF75EFAAAF80000280080B2FEF758FAB0
:10309000AAF802003000FEF760FACAF8040038000F
:1030A000FEF75BFACAF808004FF6C070FEF748FA60
:1030B00083461420FEF744FABAF80C101BEA01010B
:1030C0000843AAF80C0040F66830FEF739FAAAF86F
:1030D0000E000020AAF81200BAF80C00FEF736FA2B
:1030E00010F03F0050F4A04080B2FEF729FAAAF891
:1030F0000C000020AAF8100006200190002000908B
:10310000FF234A464146029800F0C8FF0298FEF7A6
:103110007EFBBDE8F78F38B50400A06F002816D0FD
:10312000A06F05002868002801D02D68FAE7606FBD
:103130002860A06F60670020A06794F84A00401CD8
:1031400084F84A000020E0632000FFF71AFE31BD3A
:10315000F8B50400A06F002822D0A06F05002868F1
:10316000A06714F174000600306800280ED03068A3
:1031700000694068FEF7FDF9070028694068FEF71E
:10318000F8F9381A002801D53668EDE7306828606C
:10319000356094F84A00401C84F84A000020E0633F
:1031A000F1BD10B50400A06F002834D094F82200BF
:1031B000400730D42000FFF7CBFFB4F85C00B4F830
:1031C0005210884207D2B4F85C00022190FBF1F063
:1031D000A4F8540006E0B4F85200022190FBF1F08C
:1031E000A4F85400B4F85400218FB0EB410F04DA76
:1031F000208F80B24000A4F85400B4F85400218F0E
:10320000032202FB0100A4F8520094F8220050F0BF
:10321000040084F8220010BD7CB5040000221421B3
:103220000120FEF7ACF90500002D17D0A06D401E5F
:10323000FEF793F90300002229002000FFF7C6FAE9
:1032400006000620019000200090E37A221D210054
:10325000280000F023FF2800FEF7D9FA73BD2DE9FE
:10326000FC470400A06F0700002F01D1606F07002A
:10327000002F4CD038698089FEF768F9C00705D562
:10328000B889002802D15FF0010901E05FF0000970
:103290005FFA89F9B9F1000F02D05FF0140801E07C
:1032A0005FF015080022414689B20120FEF767F958
:1032B0000500002D2BD0386943680022290020002A
:1032C000FFF784FA06005FFA89F9B9F1000F0DD013
:1032D0004FF6C070FEF734F982461120FEF730F940
:1032E000B1891AEA01010843B08103E0B8680078A7
:1032F000696808750620019000200090E37A221D7D
:103300002100280000F0CAFE2800FEF780FABDE880
:10331000F38750F8041B61B150F8042BD30744BF66
:10332000A9F101039A18002342F8043B091FFAD1BE
:10333000EFE7704710B50400FEF76EFBDFF84802B8
:103340000068002804D1DFF844020068002806D095
:103350000022DFF83C12FA2000F00BFF02E0002010
:103360008C49086010BD80B58A48006800280FD1DC
:1033700085480068002803D184480068002807D0E9
:1033800001208449086000228149FA2000F0F1FE02
:1033900001BD10B5040000F089FF00227E4941F212
:1033A000883000F0E6FE10BD10B5040001F063FCAB
:1033B00000227A494EF6602000F0DBFE10BD10B509
:1033C000040001F07BFC002275494FF4FA7000F014
:1033D000D0FE10BD10B5040002F0EFF900227149D3
:1033E000642000F0C6FE10BD10B582B004000022BB
:1033F000694941F2883000F0BCFE002267494EF670
:10340000602000F0B6FE002265494FF4FA7000F02B
:10341000B0FE00226349642000F0ABFE6248006801
:10342000002804D0614800685F490968884700A9FE
:103430005F48006800F054FE00980078002806D02D
:10344000022824D00BD3042838D02AD341E0009896
:103450008068001D0099896809688847E7E7009837
:10346000C06890F83100800606D50098C1680098C1
:10347000806801F02FFB05E00098C1680098806823
:1034800000F079FC00990820FFF781F9CFE7009858
:10349000C06800998968884700990720FFF777F985
:1034A000C5E7009802690098C1680098806800F03C
:1034B00060FE00990720FFF76AF9B8E700980169F4
:1034C0000098C06800F0B4FE00990720FFF75FF98C
:1034D000ADE7ACE770B504000D0035480068002882
:1034E0001CD00820FFF737F90600002E02D15FF04C
:1034F000FF3015E001203070B460F56031002C48D9
:10350000006800F069FA002806D031000820FFF7B3
:103510003EF95FF0FF3003E0002001E07FF008009B
:1035200070BD10B586B004002148006800280FD097
:1035300000208DF80000029400A91D48006800F0EA
:103540003FFA00216068C06800F0C3FA002001E083
:103550007FF0080006B010BD38B504000D0002F081
:103560002EFA1148046011480560322000F014FA68
:103570000F490860122000904FF4806300220D492B
:103580000D4800F00DFB31BDB0930120B493012034
:1035900035330008E093012093330008A933000875
:1035A000BF330008D5330008D4930120D8930120FD
:1035B000DC930120E9330008F8EC000830B4DFF8B0
:1035C000C4331B680488E318190088421BD00B79A8
:1035D000002B18D1DFF8B0331B68994213D0DFF805
:1035E000AC331B688B4202D1DFF8A03318600B8824
:1035F0000380DFF890331B68C31ADFF88843246820
:103600000D882C196380DFF87C331B684488E3182D
:103610001A00824216D01379002B13D1DFF86C33D5
:103620001B68834202D1DFF864331A600388138079
:10363000DFF850331B68D31ADFF848432468058845
:103640002C19638030BC704710B5DFF84403800844
:103650008000CC490860CB48006804004FF4A040CB
:1036600020800020608000202071C648006810F58E
:10367000A040C54908600120C349096808714FF49A
:10368000A040C149096808804FF4A040BE490968BC
:103690004880012000F0FEF9BE490860B948006882
:1036A000BA49086010BD70B50400002C25D0B5489B
:1036B0000068844203D3B4480068844206D300F013
:1036C000A7FA0600300000F0A8FA16E00021B14881
:1036D000006800F0FEF9B4F1080005000020287130
:1036E000AA480068854201D2A84805602800FFF773
:1036F00065FFA848006800F01AFA70BD2DE9F84F80
:1037000004008A461AF103004FF6FC7111EA000A20
:103710001FFA8AFABAF10C0F01DA0C2082461FFA5E
:103720008AFABAF5A04F01DD002097E095480068BD
:10373000844203D394480068844207D300F068FAB7
:103740008346584600F069FA200087E0B4F108008B
:1037500080468C480068B8EB00000600B8F800000E
:10376000B6B2801B08380500ADB21FFA8AFA55457B
:1037700001D2002072E01FFA8AFAADB2AA4501D147
:1037800020006BE000218348006800F0A2F97D482A
:103790000068B8F800100818814699F8040000285D
:1037A0002AD1B9F8001008001AEB060108310F0001
:1037B00076490968494505D172490968BFB2791847
:1037C000724A11606F490968BFB2791889460021B1
:1037D00089F80410A9F80000A9F80260A8F80070A0
:1037E000B9F80010B1F5A04F33D066490968B9F8AF
:1037F000002051184F802CE0ADB21FFA8AFA1AF15E
:103800001400854225D31AEB0600083007005D48F6
:103810000068BFB2381881465C480068814502D212
:103820005A48C0F80090002089F80400B8F8000059
:10383000A9F80000A9F80260A8F80070B9F8000023
:10384000B0F5A04F05D04F480068B9F8001008182F
:1038500047805048006800F06AF92000BDE8F28F08
:103860002DE9F04180461FFA88F8B8F1000F01D128
:10387000002085E018F103004FF6FC7111EA000802
:103880001FFA88F8B8F10C0F01DA0C2080461FFAF5
:1038900088F8B8F5A04F01DD002071E000213D4817
:1038A000006800F016F93948006836490968401A7E
:1038B0000400A4B21FFA88F8D8F5A04084425ADA6E
:1038C00030480068A4B220180600307900284DD195
:1038D0003088A4B2001B08381FFA88F8404545D349
:1038E0003088A4B2001B08381FFA88F818F11401B8
:1038F00088421AD318EB04000830050021480068FC
:10390000ADB22818070000203871308838807C80DC
:103910003580012030713888B0F5A04F07D01948A4
:10392000006839880818458001E001203071174887
:103930000068864213D115480068007900280ED02F
:103940001248006810490968884208D00D4800688C
:103950000E490968098808180C490860EBE70D480A
:10396000006800F0E4F816F1080009E00548006876
:10397000A4B2245A9DE70748006800F0D8F8002058
:10398000BDE8F0813C930120409301204493012045
:103990002FCA00204893012038B5040000220421DA
:1039A000062002F04FF80500280032BD38B50400AB
:1039B000200002F0CBF90500200002F0D1F931BD62
:1039C00013B5040000235FF0FF3201A9200002F0CC
:1039D00071F80128F6D113BD32B50400002300228E
:1039E00000A9200002F066F8012802D1002005009D
:1039F00002E05FF0FF300500280040B232BD2DE943
:103A0000F84304000D00160002F01CFC0700002D16
:103A100001D100A80500002E16D000230120B6FB1E
:103A2000F0F22900200002F0F3F8012807D102F09B
:103A300009FC8046B8EB07008146484614E00020A8
:103A400028605FF0FF300FE000235FF0FF322900B5
:103A5000200002F0DDF80128F6D102F0F3FB8046E9
:103A6000B8EB070081464846BDE8F28338B504004C
:103A70000D00002D01D100A805000023002229001F
:103A8000200002F0C5F8012801D1002001E05FF01C
:103A9000FF3032BD38B5040003220021012001F0BF
:103AA000D1FF0500002D05D00023002200212800B1
:103AB00002F000F8002D01D1002009E0E4B2002C52
:103AC00005D1002301220021280002F0A1F82800DE
:103AD00032BD2DE9F04104000D0002F0B3FB0600F9
:103AE000002D13D000230120B5FBF0F200212000AF
:103AF00002F08EF8012806D102F0A4FB0700B81BE3
:103B00008046404611E05FF0FF300EE000235FF09A
:103B1000FF320021200002F07BF80128F6D102F0EC
:103B200091FB0700B81B80464046BDE8F08110B508
:103B30000400002300220021200001F0BBFF10BD83
:103B400010B50400200002F00BF910BD00210800A0
:103B500006280ADA00212C4A12EBC002516000212B
:103B6000294A42F83010401CF2E70021274A118010
:103B7000704770B502F08DFE050000200400234858
:103B8000008884420ADA204810EBC40006007068FE
:103B9000A84201D1300002E0641CF0E7002070BDB3
:103BA0002DE9F04385B004000D0016001F00DDF87C
:103BB000308016480088062822DA00200390002072
:103BC000029004A80190CDF8008033003A0092B230
:103BD0002100280002F09CF9814604980A490B4A0A
:103BE000128811EBC201486008480088401C074950
:103BF0000880B9F1010F01D1049802E0002000E033
:103C0000002005B0BDE8F083FC9101200094012064
:103C100080B502F00FFF012002BD10B5040002F0D4
:103C200016FF10BD62B38B0708D0521E11F8013B7E
:103C300000F8013B00F024808B07F6D1830740F0A9
:103C4000208000BF103A07D330B4B1E83810103AE2
:103C5000A0E83810F9D230BC530724BFB1E80810EF
:103C6000A0E8081044BF51F8043B40F8043BD207D9
:103C700024BF31F8022B20F8022B44BF0B780370CD
:103C80007047083A07D3B1E80810083A40F8043BF7
:103C900040F804CBF7D25307E4E703681AB95A1E79
:103CA000026008467047197811B94FF0FF3070472D
:103CB000591C01601878704762F30F2262F31F42AB
:103CC000401810F0030308D0C91A1FD3DB0748BF00
:103CD00000F8012D28BF20F8022D130030B414463F
:103CE0001546103928BF20E93C00FAD8490728BFFB
:103CF00020E90C0048BF40F8042D890028BF20F8B7
:103D0000022D48BF00F8012D30BC7047C91818BFFC
:103D100000F8012DCB0728BF00F8012D704702687D
:103D2000531C03601170704738B50400D648006812
:103D30000500002D10D0280002F07CFF002809D0DB
:103D40002068A96808406968AA681140884201D1C2
:103D500028000FE02D68ECE7CC480068002805D06B
:103D6000CA48006802F066FF002801D1002001E087
:103D7000C648006832BD2DE9F84F04000D005FF021
:103D80000108606806003088FDF7E0FB80B2000B98
:103D900080B2042804D02000FDF739FD0020E8E0BF
:103DA0003088FDF7D3FBC0F3032081461FFA89F961
:103DB0005FEA89097088FDF7C9FB070060891FFA6F
:103DC00089F9484503D32089BFB2B8420BD2608934
:103DD0001FFA89F948452089BFB2B8422000FDF793
:103DE00016FD0020C5E0390089B22000FDF78DFCEA
:103DF0005FF0010BAA46504602F01CFF002814D0C9
:103E00001AF10400002810D0DAF8040000280CD0C1
:103E10003069DAF80410884206D0514616F11000D5
:103E2000FDF7D0FD002800D011E0BBF1000F05D058
:103E30000020834694480068824601E0DAF800A03A
:103E4000AA4501D1DAF800A0BAF1000FD3D1BAF136
:103E5000000F11D13089FDF779FBC0B211280BD1C9
:103E60001FFA89F919EB06004088FDF76FFB44281B
:103E700002D1AA4600208046B8F1000F1CD0F0689D
:103E8000002819D0290016F10C00FDF79BFD002831
:103E90000DD15FF07040FDF76CFB83465FF0604032
:103EA000FDF767FBF1681BEA0101814204D12000A4
:103EB000FDF7ADFC00205CE0BAF1000F04D120005A
:103EC000FDF7A5FC002054E043F6FF70FDF738FB3A
:103ED0000100F088084204D02000FDF798FC002083
:103EE00047E06B4805606B4806602900200002F03F
:103EF000A7FE002836D13089FDF728FBC0B2C0B23A
:103F000001280DD0062806D011280ED12900200046
:103F100002F028FF26E029002000FCF733F921E019
:103F20002900200003F04AF91CE0290016F11000D6
:103F3000FDF748FD002812D15FF07040FDF719FB36
:103F400083465FF06040FDF714FB31691BEA010115
:103F5000814204D066600221200003F0FAF92000BB
:103F6000FDF755FC00204A490860002049490860D7
:103F70000020BDE8F28F2DE9F84F06000F009046B3
:103F80000A9C0B9DDDF83090B8F1000F6ED05FF009
:103F9000140B14213000FDF7EEFB002802D07FF057
:103FA00001006EE070688246BAF80800FDF7CEFAAC
:103FB000C0B29DF8001050EA012080B2FDF7C0FAAF
:103FC000AAF80800BAF80800FDF7C0FAEDB280B20E
:103FD000000A55EA002080B2FDF7B2FAAAF80800FC
:103FE000B8F1000F01D1002001E0D8F80000CAF8B4
:103FF00010001FFA8BFB04209BFBF0F0E4B254EAA4
:10400000002050F4804080B2FDF79AFAAAF8000030
:104010003089FDF795FAAAF802000020AAF80600F8
:104020001D480088FDF78CFAAAF804001A48008899
:10403000401C19490880002F02D0386800280AD196
:1040400019F10400002801D1002001E0D9F8040092
:10405000CAF80C0006E0002F01D1002000E038680B
:10406000CAF80C000020AAF80A0004E07068824632
:104070001AF110008046424631004846D9F8143003
:104080009847BDE8F28F00004C9301205093012027
:104090003093012034930120FE9301202DE9F04755
:1040A00084B006000F00904699460C9D0D9C40463A
:1040B000FFF73AFE8246002802D17FF003000CE0B1
:1040C000CDF808A0E4B20194EDB200954B46DBB206
:1040D000424639003000FFF74EFF04B0BDE8F087DC
:1040E0002DE9F04704000D00FFF743FD0700002F06
:1040F00002D03868002806D1002229002000FFF7EE
:104100007EFC060033E038684068002807D0386835
:10411000426829002000FFF772FC060002E05FF011
:10412000FF30060016F1010F14D138688046D8F828
:1041300000003860D8F808008146D8F80C008246A4
:1041400041460920FEF723FB4846002801D050468F
:10415000C847C9E738684068864205D23868406871
:10416000801B3968486002E0002039684860BDE87B
:10417000F0872DE9F84304000D0016000920FEF732
:10418000EAFA8046B8F1000F50D00020C8F80000CD
:10419000C8F80850C8F80C60C8F80440FFF7E9FCFC
:1041A0000700002F42D03868002802D1C7F80080ED
:1041B0003CE03868406884420AD238684068001B96
:1041C000396848603868C8F80000C7F800802DE0FA
:1041D00038688146B9F1000F28D0D8F80400D9F822
:1041E0000410401AC8F80400D9F80000002806D0CE
:1041F000D8F80400D9F800104968884213D2D9F8D9
:104200000000002808D0D9F800004068D8F8041051
:10421000401AD9F800104860D9F80000C8F800002A
:10422000C9F8008002E0D9F80090D3E7BDE8F18337
:104230002DE9F04104000D00FFF79BFC0600002E65
:1042400031D0306800282ED030688046002007002A
:10425000B8F1000F27D0D8F80800210088421ED1FD
:10426000D8F80C00A8421AD1002F03D1D8F80000CA
:10427000306002E0D8F800003860D8F8000000286C
:1042800008D0D8F800004068D8F804100818D8F80A
:104290000010486041460920FEF779FA03E04746DE
:1042A000D8F80080D4E7BDE8F081100000210800B4
:1042B000C0B20A2835DADFF80C18C0B211EB0011D1
:1042C000C97A491CDFF8FC27C0B212EB0012D17288
:1042D000DFF8F017C0B211EB0011897A022907D17B
:1042E000DFF8E017C0B211EB0011C97AF0290FDA3C
:1042F000DFF8D017C0B211EB0011897A01290ED175
:10430000DFF8C017C0B211EB0011C97A022906DB31
:104310000021DFF8B027C0B212EB00129172401CEE
:10432000C6E770472DE9F04102000A230A240A2556
:10433000002600275FF0000C002A1DD0DFF884075C
:10434000DFF884E79EF800E010EB0E10807A022878
:1043500012D11068DFF86CE7DFF86C8798F80080FE
:104360005FEA081858F80EE0704505D1DFF85807E5
:1043700090F9000040B2ADE000200600F6B20A2E2F
:1043800066DA6DB20A2D09D1DFF83807F6B210EB04
:104390000610807A002801D1350057E0DFF82407A5
:1043A000F6B210EB0610807A012823D1002A0FD034
:1043B0001068DFF810E7F6B25FEA061858F80EE06A
:1043C000704505D1DFF800070670300040B281E08B
:1043D000DFF8F006F6B210EB0610C07AFFB2B84272
:1043E00034D33300DFF8DC06F6B210EB0610C07AE7
:1043F00007002BE0DFF8CC06F6B210EB0610807A4F
:10440000022823D1002A0FD01068DFF8B8E6F6B2F0
:104410005FEA061858F80EE0704505D1DFF8A806E7
:104420000670300040B255E0DFF89806F6B210EBA7
:104430000610C07A5FFA8CFC604507D33400DFF8C1
:104440008406F6B210EB0610C07A8446761C95E717
:104450006DB20A2D04D111F00300012802D104E04D
:10446000880702D55FF0FF3034E06DB20A2D01DA23
:104470002E000CE064B20A2C01DA260007E05BB2E1
:104480000A2B01DA1E0002E05FF0FF3022E000207C
:10449000DFF830E6F6B21EEB061E8EF80A00002AA0
:1044A0000BD0002A01D1002000E01068DFF814E6EC
:1044B000F6B25FEA061848F80E000020DFF804E6BE
:1044C000F6B21EEB061E8EF80B00DFF8FC05067038
:1044D000300040B2BDE8F0812DE9F84304000D0042
:1044E00016001F00D5F80480062081465FFA89F97E
:1044F000B9F1000F13D0B9F101095FFA89F919F880
:1045000007005FFA89F909F808005FFA89F919F8D4
:1045100006005FFA89F919EB08018871E6E74FF4A4
:104520000060FDF70DF8A8F80C0029002000A26932
:104530009047BDE8F2832DE9F04704000D00160016
:104540001F00002D16D02868002813D02100280055
:10455000FDF738FA00280DD15FF07040FDF709F83B
:1045600082465FF06040FDF704F829681AEA01010D
:10457000814202D17FF009003EE03900C9B2280033
:10458000FFF7D0FE80464FFA88F8B8F1000F02D549
:10459000404640B230E00220DFF828154FFA88F894
:1045A00011EB08118872DFF81C054FFA88F810EB40
:1045B0000810C460062081465FFA89F9B9F1000F3E
:1045C00011D0B9F10109DFF8FC044FFA88F810EBBB
:1045D00008105FFA89F919EB00005FFA89F919F8F8
:1045E00006100171E8E70020DFF8D8144FFA88F8C8
:1045F00011EB0811C8720020BDE8F0872DE9F04FDB
:1046000087B004000D001600002C00F0DF807089D8
:104610002A2803DA3000FDF7FAF8D7E07068009036
:1046200000980E3007000120FCF78AFF398880B21D
:10463000814218D140F20460FCF782FFB98880B251
:10464000814210D14FF40060FCF77AFF798880B284
:10465000814208D140F60600FCF772FF0099898973
:1046600080B2814203D03000FDF7D1F8AEE03900CE
:10467000200001F035F90420069017F10E00059096
:104680000DF1080A069A05995046FFF7CBFACDF8C6
:1046900004A05FF0040A17F1180001900DF1100B4F
:1046A000524601995846FFF7BDFA6068002802D1CA
:1046B0000020814608E004986168884202D15FF0DA
:1046C000010901E05FF000095FFA89F9B9F1000F13
:1046D00007D0012317F1080202A92000FFF72BFFE2
:1046E00006E0002317F1080202A92000FFF723FFCC
:1046F000F888FCF725FF012802D002285ED062E08E
:104700005FFA89F9B9F1000F54D00220FCF718FFC5
:10471000F880D7F80E00B8615FF0040A201D019000
:1047200017F10E0B524601995846FFF77BFA062007
:104730008046606A002806D0606A0079002802D0AE
:10474000DFF8880301E017F1080003905FFA88F8AA
:10475000B8F1000F29D0B8F101085FFA88F818EB1A
:104760000700007A5FFA88F818EB0701887403984D
:104770005FFA88F818F8000000995FFA88F808F8DE
:1047800001005FFA88F818F805005FFA88F818EB5E
:10479000070108725FFA88F818F8050000995FFAB7
:1047A00088F818EB01018871D0E731002000A26978
:1047B000904702E060680028FFD004E002A92000D2
:1047C00000F010FBFFE73000FDF721F807B0BDE86F
:1047D000F08F2DE9FC4104000D0016000E21280089
:1047E000FCF7C9FF002802D07FF0010056E000204E
:1047F000070021003000FDF7E5F8002802D0B3489B
:10480000070044E05FF07040FCF7B3FE80465FF0C5
:104810006040FCF7AEFE316818EA010181421ED10A
:1048200001208DF8000000208DF801005E208DF839
:1048300002003068FCF79DFE000C10F07F008DF840
:1048400003003068FCF795FE000A8DF8040030681C
:10485000FCF78FFE8DF8050000A8070017E0306810
:10486000A16808406168A2681140884209D0E068E8
:10487000002803D014F10C00060002E07FF00300D2
:104880000CE02A003100200000F00AF806E03B00AE
:1048900014F12B0229002000FFF71EFEBDE8F6816F
:1048A0002DE9F04704000D00160014F12B075FF00E
:1048B000FF3821002800FDF785F8002812D15FF0AD
:1048C0007040FCF756FE82465FF06040FCF751FEF8
:1048D00029681AEA0101814204D0002D02D028681B
:1048E000002802D17FF009004BE001212800FFF7EA
:1048F00019FD81464FFA89F9B9F1000F03D5002E51
:10490000484640B23DE06F484FFA89F910EB091074
:10491000807A002806D101206A494FFA89F911EB03
:104920000911887267484FFA89F910EB0910807AEB
:10493000012801D0002E04D12900200000F0ABF89E
:104940008046002E1BD05F484FFA89F910EB091002
:10495000807A02280CD15B484FFA89F910EB0910D4
:10496000031D3A0031002000FFF7B6FD804606E047
:1049700054484FFA89F910EB0910807A0128404613
:1049800040B2BDE8F0872DE9F74F04000D001E008E
:104990000D9F5FF0000800222A210320FCF7EFFDA5
:1049A00000900098002802D15FF0FF3071E000987D
:1049B0004068019001980E308246BDF83C00FCF73B
:1049C000BFFDAAF8060006208146606A002806D0CE
:1049D000606A0079002802D0DFF8F0B001E0DDF86D
:1049E00008B05FFA89F9B9F1000F27D0B9F10109D0
:1049F0005FFA89F919F806005FFA89F919EB0A01DB
:104A000008725FFA89F919F807005FFA89F919EB5A
:104A10000A0188745FFA89F919F80B0001995FFAA5
:104A200089F909F801005FFA89F919F80500019977
:104A30005FFA89F919EB01018871D2E70C980068D7
:104A4000CAF80E000E980068CAF818000120FCF79A
:104A500077FDAAF800004FF40060FCF771FDAAF89A
:104A6000020040F20460FCF76BFDAAF8040040F677
:104A70000600FCF765FD0199888100992000A26974
:104A8000904780460098FCF7C2FE00200090404608
:104A900040B2BDE8FE8F30B585B004000D000120A6
:104AA000039002950A480190201D009014F12B03F9
:104AB000064A14F12B012000FFF765FF05B030BD59
:104AC00000000000948E01200494012088EC00086E
:104AD00090EC0008F8B504000D0060680600B0898D
:104AE000FCF72EFD0700BFB23800B0F5006F04D010
:104AF00040F60601884212D018E07FF00D01200038
:104B0000FCF739FE002805D02000FCF780FE0020CD
:104B1000040003E029002000FFF72DF90BE022003C
:104B200015F12B012800FFF769FD04E02000FCF7D8
:104B30006EFE002004000020F2BD0000F8B5040065
:104B4000256A0821280000F00DFC002215F128013B
:104B50002000FFF7A5FE060076B2002EE87C401C80
:104B6000E8744FF4FA700700BFB207F2F3104FF485
:104B7000FA7190FBF1F0E883F1BDF8B50400256A05
:104B80000121280000F0EEFB200000F04AFC0600A6
:104B900076B2002E54D101223521280000F0EAFB24
:104BA0000321280000F0F9FB02223921280000F03F
:104BB000E1FB218D280000F0F9FB042232212800BE
:104BC00000F0D8FBA86AFCF7D4FC0100280000F034
:104BD00002FC04223621280000F0CCFB686AFCF7B6
:104BE000C8FC0100280000F0F6FB04223721280051
:104BF00000F0C0FB0121280000F0CFFB03212800BA
:104C000000F0CBFB1C21280000F0C7FB0621280088
:104C100000F0C3FB280000F0BEFCA88B10F1F001EF
:104C200089B26869FCF771FD00944323DFF82C27F3
:104C30006969686802F09FF9200000F099FCFFE7BD
:104C4000E87C401CE874E87C062804DA012095F929
:104C50001310884000E03C204FF47A7101FB00F70C
:104C6000BFB207F2F3104FF4FA7190FBF1F0E88352
:104C7000300040B2F2BD10B5DFF8E4060468002C45
:104C80001BD0206A002816D0206A408C411E226A60
:104C9000518480B2012803D1200000F093F80AE08B
:104CA000206A008C411E226A118480B2012802D140
:104CB000200000F077F82468E1E710BD10B5DFF8B8
:104CC000A0060468002C1AD0206A002815D0206A9B
:104CD000C08B022805DB206AC08B401E216AC88376
:104CE0000BE0206AC08B012807D1206AC08B401ED0
:104CF000216AC883200000F003F82468E2E710BDB1
:104D000038B50400256AA87C0C2802D0A87C0628A7
:104D100003D1200000F0C6F843E0A87C01280DD1A3
:104D2000E87C062803DA2000FFF727FF39E020009F
:104D300000F0A9FA200000F0B5F832E0A87C0828BD
:104D40000AD1E87C022803DA2000FFF7F7FE28E00A
:104D5000200000F018F924E0A87C052803D12000E9
:104D600000F099F91DE0A87C04280DD1E87C092801
:104D700003DA200000F0DEF913E0200000F083FAEF
:104D8000200000F08FF80CE0A87C032809D1E87C13
:104D9000022803DA200000F01BFA02E0200000F0F5
:104DA00081F831BD38B50400256AA87C012805D0FA
:104DB000A87C0A2802D0A87C052802D1200000F097
:104DC0006AF931BD38B50400256AA87C012805D0F0
:104DD000A87C0A2802D0A87C052802D1200000F077
:104DE000A9F931BD38B504000D00002C0ED0206AA1
:104DF00000280BD0206A807C082807D12868216A07
:104E0000896A884202D1200000F001F831BDF8B56E
:104E10000400256A00260C21280000F0A3FA2000D7
:104E200000F0FFFA060076B2002E2AD101223521C9
:104E3000280000F09FFA0421280000F0AEFA0422B6
:104E40003221280000F096FAA86AFCF792FB0100D4
:104E5000280000F0C0FA280000F09DFBA88B10F19C
:104E6000F00189B26869FCF750FC00944323DFF835
:104E7000EC246969686802F07EF8200000F078FB95
:104E8000FFE7E87C401CE87442F210700700BFB2F4
:104E900007F2F3104FF4FA7190FBF1F0E883300061
:104EA00040B2F2BDF8B50400256A0026DFF8A80478
:104EB000002801D1002002E0DFF89C040068A8620D
:104EC0000621280000F04EFA200000F0AAFA0600A1
:104ED00076B2002E3CD101223521280000F04AFA9A
:104EE0000121280000F059FA02223921280000F09F
:104EF00041FA218D280000F059FA042237212800B8
:104F000000F038FA0121280000F047FA03212800B8
:104F100000F043FA1C21280000F03FFA0621280087
:104F200000F03BFA280000F036FBA88B10F1F001EE
:104F300089B26869FCF7E9FB00944323DFF81C247D
:104F40006969686802F017F8200000F011FBFFE7BC
:104F5000E87C401CE874E87C062804DA012095F916
:104F60001310884000E03C204FF47A7101FB00F7F9
:104F7000BFB207F2F3104FF4FA7190FBF1F0E8833F
:104F8000300040B2F2BDF0B583B00400002C00F058
:104F90008180206A0600002E7CD0B06C10F1010FD9
:104FA00011D0B06C1E303C21B0FBF1F00500B5F51E
:104FB000803F02D34FF6FF7005003584308C002807
:104FC00001D101203084F06C10F1010F11D0F06C90
:104FD0001E303C21B0FBF1F00500B5F5803F02D357
:104FE0004FF6FF7005007584708C002801D10120F8
:104FF000708416F12C00002802D10020009001E0FE
:10500000F06A0090009800281AD10098FCF7B1FAD5
:10501000070EFFB2802F05DA5FF07F40FCF79DFAA4
:1050200000900DE0FFB2C02F05DB7FF0FF00FCF722
:1050300094FA009004E0DFF82C05FCF78EFA00905B
:1050400016F13000002802D10020019001E0306B01
:1050500001900198002809D1B06A00990840019098
:105060000120FCF77AFA01990843019016F1280112
:10507000200001F069FD00A9200001F0A5FD01A9B3
:10508000200001F09AFD200001F0B4FD0A2130005B
:1050900000F068F9F7BDF8B50400256A052128007D
:1050A00000F060F9200000F0BCF9060076B2002E96
:1050B00027D101223521280000F05CF903212800C6
:1050C00000F06BF902223921280000F053F9218DFC
:1050D000280000F06BF9280000F05DFAA88B10F1B1
:1050E000F00189B26869FCF710FB0094432315F1C5
:1050F00024026969686801F03EFF200000F038FA78
:10510000FFE7E87C401CE874E87C0A2805DAE87CC4
:105110004FF4FA6101FB00F701E044F62067BFB2EB
:1051200007F2F3104FF4FA7190FBF1F0E8833000CE
:1051300040B2F2BDF8B50400256A0421280000F051
:1051400011F9200000F06DF9060076B2002E26D18C
:1051500001223521280000F00DF90321280000F07C
:105160001CF902223921280000F004F9218D2800C1
:1051700000F01CF9280000F00EFAA88B10F1F001E5
:1051800089B26869FCF7C1FA00944323734A6969DC
:10519000686801F0F0FE200000F0EAF9FFE7E87C23
:1051A000401CE874E87C0A2805DAE87C4FF47A7140
:1051B00001FB00F701E042F21077BFB207F2F310F3
:1051C0004FF4FA7190FBF1F0E883300040B2F2BD89
:1051D000F8B50400256A0321280000F0C3F8200078
:1051E00000F01FF9060076B2002E33D101223521DE
:1051F000280000F0BFF80321280000F0CEF80222BA
:105200003921280000F0B6F84FF41071280000F0A2
:10521000CDF804223221280000F0ACF8A86AFCF78F
:10522000A8F90100280000F0D6F8280000F0B3F932
:10523000A88B10F1F00189B26869FCF766FA009456
:105240004323464A6969686801F095FE200000F032
:105250008FF9FFE7E87C401CE874E87C0A2805DA4F
:10526000E87C4FF47A7101FB00F701E042F210771D
:10527000BFB207F2F3104FF4FA7190FBF1F0E8833C
:10528000300040B2F2BDF8B50400256A0D212800B7
:1052900000F068F8002068620020E862E86AA8620E
:1052A00000206863686B28630020E864A864686471
:1052B0000020A863200000F0B4F8060076B2002EAB
:1052C0001ED101223521280000F054F807212800C2
:1052D00000F063F8280000F05EF9A88B10F1F001EF
:1052E00089B26869FCF711FA0094432315F124028E
:1052F0006969686801F03FFE200000F039F9FFE7B6
:10530000E87C401CE874E87C0A2805DAE87C4FF465
:105310007A7101FB00F701E042F21077BFB207F2A9
:10532000F3104FF4FA7190FBF1F0E883200001F0E4
:1053300076FCDFF82C12200001F006FCDFF82012CA
:10534000200001F03AFCDFF81812200001F03CFCCC
:10535000300040B2F2BD000008ED00080CED00087E
:105360004C930120827CC9B2914202D08174002208
:10537000C274704710B4838B5C1C848384699BB2B5
:105380001B1983F8F010838B5C1C848384699BB2A7
:105390001B1983F8F02010BC7047828B531C838349
:1053A000836992B2D21882F8F010704710B4828BE1
:1053B000531C838389B20B0A846992B2121982F852
:1053C000F030828B531C8383836992B2D21882F8A7
:1053D000F01010BC704710B4828B531C83830B0EEB
:1053E000846992B2121982F8F030828B531C838345
:1053F0000B0C846992B2121982F8F030828B531C24
:1054000083830B0A846992B2121982F8F030828B7E
:10541000531C8383836992B2D21882F8F01010BCB7
:10542000704770B50400002C02D17FF0090096E0AF
:10543000206A0500002D02D17FF008008FE00022D5
:105440004FF49A710020FCF79AF8686168690028A7
:1054500002D15FF0FF3082E0E87C002804D14248AE
:105460000068401C404908603F480068286068693F
:105470004068A8610120A96908700120A9694870E5
:105480000620A96988700020A969C8702868FCF7FF
:1054900064F8A96948600020A96908810020A96909
:1054A00048810020A969C860A87C0A2805D0A87C8A
:1054B000052802D0A87C042802D16068A969C860C8
:1054C0000020A96908610020A96948610020A96934
:1054D000886100200600B6B2102E11D294F82A007E
:1054E000B6B280B2864204D2B6B2301990F82B0020
:1054F00000E00020A969B6B271180877761CEAE7C7
:1055000000200600B6B2402E07D20020A969B6B22C
:10551000711881F82C00761CF4E700200600B6B262
:10552000802E07D20020A969B6B2711881F86C00EC
:10553000761CF4E70D48FCF710F8A969C1F8EC00F7
:105540000020A88300200600B6B2442E06D2A86927
:10555000B6B2301880F8F060761CF5E7002070BD18
:1055600008ED00080000FFFF100200206353826373
:1055700038B50400002C0DD0206A0500002D09D09C
:105580006869002802D06869FCF741F90020686169
:105590000020A86131BD002819D0818B4A1C82836C
:1055A000FF22836989B2C91881F8F020818B4429D0
:1055B00003D3017F0322114209D0818B4A1C8283CD
:1055C0000022836989B2C91881F8F020EEE770479C
:1055D000704738B504000125EDB2002D0ED0606A89
:1055E000007A002803D0200000F077F809E02000BE
:1055F00000F042F86420616A087202E0200000F0C6
:105600006CF831BD70B504000D0094F82F0094F8CB
:10561000301050EA0120AB490818FBF79EFFFBF75A
:10562000A8FF0600606A407A86194AF6FE1060F309
:105630001F46A448864201D216F57E46A2488642FD
:1056400001D3B6F57E463000FBF787FF286070BDBA
:105650001FB5040001200390606A02909B480190EE
:105660009B48009014F12B039A4A14F12B0120005F
:10567000FFF789F904B010BD1FB5040001200390A5
:10568000606A029091480190606A009014F12B03C7
:10569000904A14F12B012000FFF775F904B010BDFA
:1056A00030B583B00400656A8B48FBF756FF019064
:1056B0000020FBF752FF00902900200001F044FA7F
:1056C00001A9200001F080FA00A9200001F075FA7C
:1056D000200001F08FFA00203EBD2DE9F0410400CA
:1056E000656A0026200001F0A5FA002802D02000FB
:1056F00001F095FA002060600020A0600020E060CA
:10570000002D12D10A20FEF7ABF80500002D02D1C2
:105710005FF0FF3025E00A275FF0000842463900BD
:105720002800FEF7C9FA65620FE00020287100200A
:10573000E8800020687104275FF0000842463900C5
:105740002800FEF7B9FA0020287229002000FFF790
:1057500059FF687A401C6872200000F004F830009D
:1057600040B2BDE8F08110B4416A01220A71002202
:105770004A71426A002A02D0426A527A00E000224C
:1057800090F8303090F82E40240454EA036390F8E7
:105790002D4053EA042390F82F402343D2180A23C4
:1057A000B2FBF3F403FB1422CA804A7A0B2A02DB11
:1057B0004FF41672CA8010BC704710B54748046891
:1057C000002C7DD0606A002878D0606A007A0028BA
:1057D00004D0606A007A401E616A0872606A0079CB
:1057E000012802D002283FD068E0606AC088002803
:1057F00005D0606AC088401E616AC88033E0606A74
:105800004079032809DB0220616A08710020616A7F
:1058100048711420616AC88025E02000FFF718FF56
:10582000606A4079401C616A4871606A002802D051
:10583000606A407A00E0002094F8301094F82E203E
:10584000120452EA016194F82D2051EA022194F8E1
:105850002F20114340180A21B0FBF1F201FB120086
:105860000A30616AC88029E0606AC088002805D0D3
:10587000606AC088401E616AC8801FE0606A407923
:10588000002803D12000FFF70BFF02E02000FFF704
:10589000F3FE1420616AC880606A4079401C616A26
:1058A0004871606A4079022808DB0320616A087148
:1058B0000020616A48710020616AC88024687FE71F
:1058C00010BD00000001FEA900FFFEA990EC000839
:1058D00008ED000888EC00080000FFFF4C93012051
:1058E0002DE9F04F85B004000D00606A002862D0F9
:1058F000606A007900285ED094F82B008DF80000D3
:1059000094F82C008DF8010094F82D008DF8020019
:1059100094F82E008DF8030094F82F008DF8040001
:1059200094F830008DF80500042615F10E070DF1EE
:10593000080A320039005046FEF774F95FF0040897
:1059400015F118090DF10C0B424649465846FEF771
:1059500069F9606A0079012807D0606A0079022835
:1059600019D1606A4079002815D10298616A0968E6
:1059700088420CD00398616A096888421BD10622CC
:1059800015F1080100A801F02FFD002813D0200018
:10599000FFF7A3FE0FE00298616A096888420AD106
:1059A000062215F1080100A801F01EFD002802D012
:1059B0002000FFF70EFE05B0BDE8F08F704780B500
:1059C000FFF7FCFFFEF7C2F8FDF73EFEFCF790FE86
:1059D000FFF7FEFD01BD70B504000D00260001F0CB
:1059E00029F83068F16B326C02FB01007060002016
:1059F000B0633068B0603068F16B491E326C02FBF6
:105A00000100F0605FF0FF3070645FF0FF30B06461
:105A1000002D0BD13069002810D016F1100000F0D5
:105A20009EFD01280AD100F0FCFF07E016F11000EE
:105A300001F00BFD16F1240001F007FD01F007F85D
:105A4000012070BD2DE9F84304000D0016005FF041
:105A50000009002C1DD0502001F04CFD0700002F44
:105A600017D005FB04F0401C8046404601F042FD83
:105A700038603868002809D0FC633D640121380093
:105A8000FFF7A9FF87F84D60B94602E0380001F042
:105A900091FD4846BDE8F28370B504000D00022276
:105AA00000212000FFF7CEFF0600002E00D0B563D6
:105AB000300070BD2DE9F44183B004000D001E00DC
:105AC0000027A04600F0B6FFD8F83800D8F83C1000
:105AD000884214D232002900404600F04BF9D8F831
