:020000040800F2
:1000000060C20120A5D20008F5CB0008F7CB00089C
:10001000F9CB0008FBCB0008FDCB00080000000076
:10002000000000000000000000000000CB75000888
:10003000FFCB0008000000008175000801CC00081B
:1000400021D3000825D3000829D300082DD30008A8
:1000500031D3000835D3000827CC000829CC00088C
:100060002BCC00082DCC00082FCC000839D3000879
:100070003DD3000841D3000845D3000849D3000808
:100080004DD3000851D3000855D3000859D30008B8
:100090005DD3000861D3000865D3000831CC0008A7
:1000A00069D300086DD3000871D3000875D3000828
:1000B00079D300087DD3000881D3000885D30008D8
:1000C00089D300088DD3000891D3000895D3000888
:1000D00099D300089DD30008A1D30008A5D3000838
:1000E00009CC0008A9D30008ADD30008B1D300089B
:1000F000B5D30008B9D30008BDD30008C1D30008A8
:10010000C5D30008C9D30008CDD30008D1D3000857
:10011000D5D30008D9D30008DDD30008E1D3000807
:10012000E5D30008E9D30008EDD30008F1D30008B7
:10013000F5D3000833CC0008F9D30008FDD300083C
:1001400001D4000805D4000809D400080DD4000823
:1001500011D4000815D4000819D400081DD40008D3
:1001600021D4000825D4000829D400082DD4000883
:1001700031D4000835D4000839D400083DD4000833
:1001800041D400082DE9F04F83B004000D006068F1
:10019000DFF8341C0860DFF8300C0068008801F0DC
:1001A000D1F9C0F3032080B2616811EB8000DFF861
:1001B0001C1C0860DFF8100C0068008801F0C2F910
:1001C000C0F3032080B2800000B2414209B2200097
:1001D00001F0CDFA002802D12089142803D2200092
:1001E00001F013FB40E22900DFF8DC0B006810305F
:1001F00001F0E2FB002810D15FF0704001F0B5F98A
:1002000083465FF0604001F0B0F9DFF8BC1B09687D
:1002100009691BEA0101814203D1200001F0F5FACE
:1002200022E2DFF8A80B0068808901F08BF980B228
:10023000000B81465FFA89F97FF0030000FB09F1AA
:1002400009B2200001F093FA002803D0200001F049
:10025000DCFA09E2DFF8740B0068008801F072F93B
:10026000DFF8681B09680880DFF8600B00684088C9
:1002700001F068F9DFF8541B09684880DFF84C0B7F
:100280000068406801F071F9DFF8401B09684860B8
:10029000DFF83C1B0860DFF8340B0068806801F071
:1002A00064F9DFF8281B09688860DFF8281B0860FC
:1002B000DFF8180B0068C08901F044F9DFF80C1B67
:1002C0000968C881DFF8040B0068808901F03AF9F9
:1002D00010F03F00DFF8001B0870DFF8FC0A007820
:1002E0000321084201D0012000E0002021894018AC
:1002F000DFF8E81A088000200700DFF8E40A006849
:100300000600002E2AD0308CDFF8C01A0968098850
:10031000884220D1308BDFF8B41A096849888842B6
:1003200019D17068DFF8A01A0968C968884212D12B
:100330003068DFF8941A0968096988420BD1002FE8
:1003400008D0F068F860DFF8980A0068F060DFF81D
:10035000900A066002E03700F668D2E7002E63D10B
:10036000DFF8800A00680600002E24D0308CDFF809
:100370005C1A0968098888421BD1308BDFF84C1A57
:1003800009684988884214D17068DFF83C1A096806
:10039000C96888420DD13068DFF82C1A09680969EC
:1003A000884206D1300000F006FA200001F02DFA54
:1003B0005AE1F668D8E700200700DFF82C0A006849
:1003C0008046B8F1000F2FD0B8F1000F0BD0D8F84D
:1003D0000000002807D0D8F80000DFF8EC19096801
:1003E000096988421CD1B8F81800DFF8E0190968DB
:1003F0004988884214D1002F0BD0D8F80C00F8603F
:10040000DFF8E4090068C8F80C00DFF8DC09C0F880
:100410000080404600F02AF9200001F0F6F923E1BF
:100420004746D8F80C80CCE7002E00F0F280DFF8C9
:10043000BC0900210160DFF8B40921898181DFF85E
:10044000AC0961688160DFF8A4094460DFF89C09A9
:10045000DFF8781909680161DFF89409002101606B
:10046000DFF8900900210170F06F00281FD0D6F846
:100470008400002808D00023F26F31007069D6F89C
:1004800084C0E047824606E00023F26F310000207E
:1004900001F0A2FF82464FFA8AFABAF1000F02D1A8
:1004A0000020F06703E0200001F0AFF9DCE0DFF8A6
:1004B00048090660300000F0D8F982464FFA8AFAFF
:1004C0001AF1050F00F09280DFF828090078000784
:1004D00013D5D6F89000002805D07FF0050170698B
:1004E000D6F8902090473100DFF8F40802F06EF85B
:1004F0003100022002F039F978E0DFF8F8080078DE
:10050000C00609D53100DFF8D80802F05FF83100E5
:10051000022002F02AF969E000208246B6F86C0059
:1005200000280ED0D6F88000002808D0B6F86C203D
:1005300031007069D6F880309847824601E000208B
:100540008246DFF8AC08006800282FD0DFF8880862
:100550000078000709D5DFF898080068407B50F064
:100560000100DFF88C1809684873D6F88400002869
:100570000AD00023DFF87808026831007069D6F8E5
:1005800084C0E047824608E00023DFF86408026880
:100590003100002001F020FF82464FFA8AFABAF1BA
:1005A000000F03D0DFF848080068F067DFF8440860
:1005B0000078800613D5D6F88400002808D00023E0
:1005C000002231007069D6F884C0E047824606E018
:1005D000002300223100002001F0FEFE8246DFF8F9
:1005E000180800210160300002F0C1FBDFF80808A4
:1005F00000210160DFF8F4074068002834D0DFF8FC
:10060000EC07406801F001F9DFF8E00700214160E4
:100610002AE0DFF8B8070068808900F093FF400700
:100620001FD4DFF8A807006800880190DFF89C0756
:10063000006840880090DFF89007006810F10C0314
:10064000DFF88407006810F11002DFF88407006803
:10065000DFF8881709880918DFF87807006802F0C2
:10066000EFFC200001F0D1F8BDE8F78F7CB5040065
:10067000DFF864070078C00621D5DFF8500700686E
:1006800000880190DFF84407006840880090DFF898
:100690003807006810F10C03DFF82C07006810F130
:1006A0001002DFF82C070068DFF8301709880918F6
:1006B000DFF820070068401C02F0C2FC79E0DFF898
:1006C00018070078800774D5607C01F0EBFE050008
:1006D000002D02D15FF0FF306CE0DFF8EC0600681F
:1006E0001030002801D1002003E0DFF8DC060068AC
:1006F00000692860208B2883DFF8CC0600680C3066
:10070000002801D1002003E0DFF8BC060068C068C3
:100710006860DFF8B8060068008828840320287421
:10072000DFF8AC060068401C6862686AE862DFF8BF
:100730009C060068C089A5F85C00B5F85C00A5F8C7
:100740005400DFF88C060068401E28666069686106
:10075000E069E861208940F2991108402881DFF8BA
:1007600080060068E860DFF87806056002F0E1FDC9
:10077000280000F065FE291D288F01F06FFF2887F3
:100780000120019000200090122300220021280067
:1007900002F08BF8060076B2002E06D00021280069
:1007A00001F0D6F9300040B204E0280002F0DFFA90
:1007B00000E0002076BD1CB50400DFF81C060078C0
:1007C000400701D500204FE0DFF80C0600788007D5
:1007D00031D5DFF8FC050068616A401A002833D47F
:1007E000DFF8EC050068616A401A218D401A012883
:1007F0002ADADFF8D805006800880190DFF8CC0518
:10080000006840880090DFF8C005006810F10C0314
:10081000DFF8B405006810F11002DFF8B4050068D5
:10082000DFF8B81509880918DFF8A805006802F094
:1008300007FC002018E0DFF8A0050078C00703D50A
:10084000DFF8CC0C00682063DFF8900500880028F2
:1008500009D094F8220050F0020084F82200200011
:1008600002F085FA00E0002016BD2DE9FC410400ED
:10087000002600200700DFF860050078400733D528
:10088000207C022808D1DFF84C050068A16D884261
:1008900014D10120060011E0DFF834050068616A18
:1008A000401A00280AD4DFF828050068616A401A57
:1008B000218D401A012801DA01200600F6B2002E2F
:1008C00010D0DFF83005007850F00800DFF824156C
:1008D000087094F8220010F0FE0084F822007FF0E7
:1008E00005006FE200206DE2DFF8EC04007880077D
:1008F00010D5207C02280DD0207C03280AD094F843
:10090000220050F0020084F82200200002F02FFAAA
:10091000002057E2DFF8F80B00682063002084F81D
:100920009D00200000F08CFD207C022814D0C0F037
:100930004882042800F02981C0F0A880062800F031
:10094000A181C0F03581082800F0E381C0F01D814D
:10095000092800F0228234E2DFF8B80B007810F0AA
:10096000120012286CD1A06F0069406800F0FDFDF4
:10097000DFF860140968401C814261D1B4F86E0050
:10098000401CA4F86E00DFF848040068401C606258
:10099000606AE062DFF83C040068E064DFF82C0481
:1009A0000068C089A4F85C00DFF824040068401ED9
:1009B000206604202074211D208F01F04FFE208727
:1009C000208F0A214843A4F85400B4F852000128AB
:1009D00003D1208F80B2400000E0208FA4F85200A5
:1009E000B4F87000401EA4F87000A06F05002868DD
:1009F000A067A06F002803D15FF0FF30E08604E01D
:100A00000020E086002084F84A00280001F0D1FC94
:100A1000D4F88800002807D0002221006069D4F8AB
:100A200088309847070001E00020070094F8220072
:100A300050F0020084F82200200002F098F924E02F
:100A4000DFF8D00A0078C0061FD5DFF88003006801
:100A500000880190DFF87403006840880090DFF898
:100A60006803006810F10C03DFF85C03006810F104
:100A70001002DFF85C030068DFF8601309880918CA
:100A8000DFF85003006802F0DBFA9AE1DFF8840A2D
:100A90000078C0066AD5DFF83C030068E16C401AB4
:100AA000401E002848D4CB480068A16D401A012898
:100AB00042DA04202074E069002806D000222100D8
:100AC0006069E3699847070001E0002007007FB2F2
:100AD000002F06D00121200001F03AF87FF0040039
:100AE00070E1B4F852008046200000F087F9B4F8B5
:100AF0006C00002804D0B4F86C00401EA4F86C0010
:100B00001FFA88F8B8F1010F03D1208F80B240009E
:100B100000E0208FA4F85200B6480078800633D554
:100B200094F8220050F0020084F82200200002F025
:100B30001EF90720207427E0A4480068008801906F
:100B4000A2480068408800909F48006810F10C039C
:100B50009D48006810F110029D4800689F4909886F
:100B600009189C48006802F06BFA0DE0DFF8A40950
:100B70000078800708D596480068616A491E884257
:100B800002D1200002F0DBFA1BE1200000F036F970
:100B90009848007880060AD594F8220050F00200A8
:100BA00084F82200200002F0E2F80720207408E117
:100BB000200000F023F98F480078800655D5DFF833
:100BC00054090078C00644D582480068A16D884267
:100BD0003FD194F8220050F0020084F82200200057
:100BE00002F0C5F8200001F0D0FC7D480068A0426A
:100BF00005D17B480068C068794908601DE0DFF8CE
:100C00001809774909680160DFF80C0900680028B5
:100C100013D0DFF804090068C068A04205D1DFF8EE
:100C2000F8080068E168C16007E0DFF8EC080068D8
:100C3000C068DFF8E4180860E6E70020E0600A20FA
:100C4000207468480068E0606648046002F071FB48
:100C500017E094F8220050F0020084F822002000EF
:100C600002F085F8082020740BE0DFF8A80800786F
:100C7000C00606D557480068A16D884201D10620FC
:100C800020749EE0200000F0B9F85A4800788006F1
:100C90003ED594F8220050F0020084F82200200093
:100CA00002F065F8200001F070FC4D480068A04299
:100CB00005D14B480068C068494908601DE0DFF86D
:100CC0005808474909680160DFF84C0800680028A7
:100CD00013D0DFF844080068C068A04205D1DFF8EF
:100CE00038080068E168C16007E0DFF82C08006898
:100CF000C068DFF824180860E6E70020E0600A20FA
:100D0000207438480068E0603648046002F011FB47
:100D100057E0200000F072F8DFF8F8070078C0060E
:100D20003AD52C480068A16D884235D1200001F0E9
:100D30002CFC2B480068A04205D129480068C068F7
:100D4000274908601DE0DFF8D007254909680160E0
:100D5000DFF8C4070068002813D0DFF8BC0700687C
:100D6000C068A04205D1DFF8B0070068E168C16043
:100D700007E0DFF8A4070068C068DFF89C17086088
:100D8000E6E70020E0600A20207416480068E06072
:100D90001448046002F0CDFA13E0200000F02EF8B1
:100DA000DFF870070078C0060AD50A480068A16D10
:100DB000884205D10F48007850F010000D490870A6
:100DC000FFE70020BDE8F681149201201092012077
:100DD000189201201C9201205B9201205492012064
:100DE0000092012004920120FC9101200891012031
:100DF000209201205C920120249201202DE9F84FDD
:100E000004005FF00009DFF80C070078C00640F12D
:100E1000DC81B4F85C00616E08180090206EDFF889
:100E2000FC160968401A00281AD4206EDFF8EC1668
:100E30000968884206D1606EDFF8E4160968401A36
:100E400000280DD4606EDFF8D8160968884220D1DA
:100E5000B4F85C00DFF8CC160968C989884218D25A
:100E6000DFF8C0060068C089A4F85C00DFF8AC06B3
:100E700000682066DFF8A80600686066B4F85C00C9
:100E8000002806D094F89C00002802D0002084F8A6
:100E90009C00DFF88C060068E16C401A012849DAF2
:100EA0000020A4F86C00DFF880060088002839D103
:100EB000606EB4F85C1008180099884232D1B4F919
:100EC000360000282ED4E06CDFF8541609688842FA
:100ED00028D10120814694F8500094F85010491C04
:100EE000884204DA94F85000401C84F8500094F8CA
:100EF000500004280FDBB4F85200B4F85210228FCF
:100F0000511889B288420DD2B4F85200218F0818C6
:100F1000A4F8520006E094F85000032802D1200003
:100F200002F036F9B9F1000F40F0C580002084F8D6
:100F30005000C0E0DFF8E8050068E16C401A401E90
:100F4000002800F1B580DFF8D8050068A16D401ACF
:100F5000012880F2AD8094F82200400709D594F86A
:100F6000220010F0FB0084F82200B4F85400A4F82A
:100F70005200002084F84A00B4F94400B4F9461045
:100F800011EBE000A4F84800DFF894050068E16C7C
:100F9000401AA4F86C00B4F86E00B4F86C1008188D
:100FA000A4F86E00002084F85000DFF87405006893
:100FB000E064207C042826DBB4F85200B4F8541016
:100FC00088420FD2B4F85200B4F85210228F511850
:100FD00089B2884205D2B4F85200218F0818A4F8CB
:100FE000520010E0B4F85200218F228F5143B4F820
:100FF000522091FBF2F10818B4F8521080B28142ED
:1010000001D2A4F85200A06F002844D0A06F00695C
:10101000406800F0AAFA8246A06F0069808900F05B
:1010200091FA0321084201D0012000E00020A16FC5
:101030008989C0B2401810EB0A00DFF8E41409688F
:10104000401A012827DAA06F0500A06F0068A0678A
:10105000686800F018FCB4F86C1000290AD0286900
:10106000808900F06FFAC00704D5B4F86C00401E08
:10107000A4F86C00686800F006FCB4F87010C0B208
:10108000081AA4F87000280001F093F9B4F8700071
:101090000028B8D0B7E7A06F002803D15FF0FF3079
:1010A000E08601E00020E086002084F8340002E0C1
:1010B0000020A4F86C00606F00284BD0606F0069BE
:1010C000406800F052FA8246606F0069808900F043
:1010D00039FA0321084201D0012000E00020DFF8A6
:1010E00040140968B1EB0A01626F9289C0B280189E
:1010F000081A00282ED4DFF828040068A16D401AD1
:10110000012827DA606F0500606F00686067686813
:1011100000F0B9FBB4F86C1000290AD02869808966
:1011200000F010FAC00704D5B4F86C00401EA4F813
:101130006C00686800F0A7FBB4F87010C0B2081A21
:10114000A4F87000280001F034F9B4F87000002809
:10115000B1D0B0E7E06B002837D0206CDFF8C013C7
:101160000968401A002830D5DFF8A4030068E16B55
:10117000401A80460FFA88F8B4F94400B8EBE0084A
:10118000B4F8440018EB0000A4F844000FFA88F803
:10119000B8F1000F03D50FFA88F8D8F100080FFA5C
:1011A00088F8B4F94600B8EBA008B4F8460018EB8C
:1011B0000000A4F84600B4F94400B4F9461011EB5D
:1011C000E000A4F848000020E063DFF85C0300883A
:1011D000002800F01B81606ADFF840130968401A9C
:1011E000401E002848D4606ACC490968401ACE499C
:1011F0000988401A401C01283EDA606AC74909681C
:10120000401A0700C94840680600C848406840893D
:10121000B84217DAC54840680089C01B8346708908
:10122000B84207DA70893F1AA6F808B0002070812A
:101230003668F4E7794209B2300000F098FA0028E5
:1012400007D006E0794209B2B848406800F08FFA4A
:101250000028B64871688160B4488089616AAF4AE5
:101260001268891A401AB1498881606AAB490860DE
:10127000AE49096948600EE0A8480068616A401AF2
:10128000002808D594F8220050F0020084F82200CB
:10129000200001F06CFDA1480068616A401A002836
:1012A00000F1B0809D480068616A401A218D401AA3
:1012B000401C012880F2A680606A9849096888422B
:1012C00040F09C8099480069808900F03BF9032137
:1012D000084201D0012000E0002094498989C0B271
:1012E000401891490880208D8F490988884243D24F
:1012F0008E480069808900F025F9C00716D54FF6A1
:10130000C07000F019F9824688480069808900F0B1
:1013100019F910F03E0000F00FF984490969898934
:101320001AEA010108438149096988817F48218DB2
:1013300081817E480069808900F004F9800704D526
:101340007A488089401E7949888178488189774820
:10135000406800F0D6F975480069808900F0F2F81D
:101360000321084201D0012000E000206F49898953
:10137000C0B240186C490880684800686A4909880A
:1013800008186062208D68490988401A208520006D
:1013900000F035FD654840680089002806D06348A4
:1013A0004068634908606148002141605F48006906
:1013B000808900F0C7F8C00705D55E48007850F076
:1013C00020005C49087094F82200C0070FD594F8FB
:1013D000220010F0FE0084F8220094F8220050F061
:1013E000020084F82200200001F0C1FC05E094F81E
:1013F000220050F0010084F822001FE0200001F0DC
:1014000084FC1BE0200001F080FC17E043480068EA
:10141000616A401A002808D440480068616A401A8E
:10142000218D401A401C012808DB94F8220050F05E
:10143000020084F82200200001F099FCBDE8F18F41
:101440002DE9F843040037480068143080463548D9
:101450000068808900F076F880B2000B80B2062820
:1014600053DB30480068808900F06CF880B2000BD4
:10147000401F8000060000200500ADB2B6B2B542A4
:1014800043D2ADB215F8080081465FFA89F9B9F187
:10149000000F04D0B9F1020F04D001D328E034E0EA
:1014A0006D1CEAE7ADB215EB08004078042804D1C2
:1014B000B6B2ADB2281D864200DA26E0ADB215EB19
:1014C00008008078ADB215EB0801C97851EA002018
:1014D0000700BFB240F2B550874202DABFB2002F18
:1014E00002D140F2B45000E0380020872D1DC4E73F
:1014F000ADB215EB08004078002806D0280080B275
:1015000010EB080040784519B7E7BDE8F18300000B
:10151000F49101205B920120089201201892012091
:101520001C92012010920120549201200891012068
:10153000209201205C92012080B2010A51EA002031
:1015400080B2704710B50400200080B2FFF7F4FFAE
:1015500010BD10F47F41090251EA0061020A12F441
:101560007F42114351EA1060704710B5040020001B
:10157000FFF7EFFF10BD2DE9F84F04008B46150073
:1015800000208246E4B2002C05D0022C07D004D300
:10159000032C07D007E01AF1140A1AF1140A1AF101
:1015A0000E0A02E001E00020A9E0EDB2002D68D0B3
:1015B000022D00F08B80C0F08980032D40F09880D0
:1015C0000B2001F0B6F80600002E01D1002096E0B5
:1015D0003573002030601FFA8AFA1AEB06001030CB
:1015E000C01C800880007060A6F808B01FFA8BFB52
:1015F0001FFA8AFA1AF1030030F00300D0F50070E8
:10160000834501DA584606E01AF103004FF6FC71F3
:101610000840D0F5007070810120F081B0461FFABB
:101620008BFB7089BBEB00008146B9F1010F27DB12
:101630000B2001F07EF80700002F04D1300000F0ED
:10164000E4F800205BE03D730020787300203860F0
:10165000C8F80070A7F80890484680B2B0F5007F3F
:1016600001DA484601E04FF40070788117F110006C
:1016700078600120F8817889B9EB0009B846D4E791
:1016800038E01AF113004FF6FC7108401FFA8BFB8B
:101690001BF1030131F00301081880B202F0C6F813
:1016A0000600002E01D1002029E01FFA8AFA1AEB69
:1016B00006001030C01C800880007060A6F808B0DA
:1016C000A6F80AB000203060357313E00A2001F05C
:1016D00030F80600002E01D1002010E000207060DC
:1016E000A6F808B0A6F80AB000203060357301E013
:1016F000002004E00120F081002070733000BDE87C
:10170000F28F2DE9F04104000D002089ADB2854231
:101710002BD2ADB22089281A80462F00260070896E
:10172000BFB2B84207D270893F1A308918EB000067
:1017300030813668F3E7307B00280BD17089BFB267
:10174000874207D07068801B391889B2300001F0D9
:10175000BBFF06007781708930813068002802D095
:10176000306800F052F800203060BDE8F08170B4BD
:10177000020009B2002901D0002A01D1002042E074
:1017800009B2002909D509B2484205005089ADB215
:10179000A84201D2012036E000E00D00107B0300DA
:1017A000506804009BB2002B02D09BB2032B0CD1DB
:1017B00009B24842566880195060506812F110060C
:1017C000B04219D2546001201DE09BB2022B02D01E
:1017D0009BB2012B0ED109B2002909D55089ADB2B7
:1017E000A84205D309B2484256688019506003E008
:1017F000012008E0012006E0508908185081108976
:1018000008181081002070BC70472DE9F8430400CF
:10181000002C01D1002034E000200700002C2ED045
:1018200002F0DCF98146E089401EE08180464846AE
:1018300002F0D9F91FFA88F8B8F1000F1CD120681E
:101840000600207B0500ADB2032D04D121000B2042
:1018500000F08BFF0DE0ADB2012D02D0ADB2022D34
:1018600004D121000A2000F080FF02E0200001F0F6
:1018700000FF7F1C3400D1E700200400CEE73800D1
:10188000C0B2BDE8F283010000221000002902D09E
:10189000401C0968FAE7C0B2704738B50400002C54
:1018A00008D002F09BF90500E089401CE081280087
:1018B00002F099F931BD10B4002801D0002900D1FF
:1018C0000EE002001368002B05D013890C89E31881
:1018D00013811268F6E713890C89E31813811160EC
:1018E00010BC704738B504000D0029002000FFF738
:1018F000E2FF2800FFF7D1FF31BD2DE9F0410400E0
:101900000D0000275FF00008002C05D0002D03D04B
:1019100020892989884202D27FF009004AE0608943
:10192000BFB2C01B69891FFA88F8B1EB0801884271
:1019300004DB6889B0EB0800060002E06089C01B88
:101940000600B6B232001FFA88F8686818EB00018A
:10195000BFB26068381802F04BF9F71916EB0808A7
:101960006089BFB2874202D10020070024686889DD
:101970001FFA88F8804502D3002080462D68002D8C
:1019800009D068892989884205D12868002802D0B1
:101990007FF008000EE0002C09D060892189884280
:1019A00005D12068002802D07FF0080002E0002D59
:1019B000B5D10020BDE8F08130B40200106803000A
:1019C000D843002801D0002B01D101201CE091F860
:1019D0003100800701D4002016E04868834201D11D
:1019E000002011E010688C6820404C688D682C4005
:1019F000A04208D1886833EA00008C68E443A04222
:101A000001D1012000E0002030BC704780B500F01B
:101A100086FCDFF8780C0078401CDFF8701C08703A
:101A2000C00701D500F005FB01BD38B50400207CDE
:101A300000280AD001283FD002284BD0032857D0D5
:101A4000042860D0072869D073E000200500DFF883
:101A5000400C0068A04207D1DFF8340C0068C06871
:101A6000DFF82C1C08601EE0DFF8280CDFF8201CD3
:101A700009680160DFF81C0C0068002813D0DFF84B
:101A8000140C0068C068A04205D1DFF8080C00689B
:101A9000E168C16007E0DFF8FC0B0068C068DFF8B0
:101AA000F41B0860E6E70020E0602100022000F05F
:101AB0005CFE0020040040E0002005002100DFF86B
:101AC000D80B00F083FD2100032000F04EFE002023
:101AD000040032E0002005002100DFF8C00B00F018
:101AE00075FD2100022000F040FE0020040024E0EB
:101AF0000121200000F0A3FE05006DB2002D01D1F0
:101B00000520207419E00121200000F098FE050056
:101B10006DB2002D01D1052020740EE001212000BE
:101B200000F08DFE05006DB2002D01D1092020745A
:101B300003E00020050000200400002C05D06DB259
:101B4000002D02D1200001F012F9280040B232BD70
:101B50002DE9F04F85B004000D00207C0A2809D142
:101B60002100DFF83C0B00F031FD2100022000F0E5
:101B7000FCFD45E0A06D0600606A0700002C01D165
:101B8000002000E020680290201D002801D10020E4
:101B900000E060680390208B8146208C8046D4F85A
:101BA00090008246606983462100DFF8F00A00F069
:101BB0000DFDA06F002802D0A06F00F0E9FB606F60
:101BC000002802D0606F00F0E3FB2100022000F04B
:101BD000CCFD5046002803D07FF004015846D04782
:101BE000002D0DD01FFA88F8CDF804801FFA89F96E
:101BF000CDF8009003AB02AA3900300001F020FAC2
:101C000005B0BDE8F08FF8B504000D001600207C8B
:101C1000002802D07FF00C0081E0B6B2002E02D185
:101C200000F032F90600DFF8700A00680700002FA4
:101C300016D0388BB6B2B04210D1002F0BD0386816
:101C4000002808D0002D06D02868002803D0386866
:101C50002968884202D17FF00A0060E0FF68E6E769
:101C6000DFF8380A00680700002F16D0388BB6B2AC
:101C7000B04210D1002F0BD03868002808D0002DBA
:101C800006D02868002803D038682968884202D125
:101C90007FF00A0043E0FF68E6E7DFF8F409006838
:101CA0000700002F16D0388BB6B2B04210D1002FEB
:101CB0000BD03868002808D0002D06D028680028EE
:101CC00003D038682968884202D17FF00A0026E0F4
:101CD000FF68E6E7DFF8C80900680700002F0CD0AE
:101CE000388BB6B2B04206D138682968884202D132
:101CF0007FF00A0013E0FF68F0E7002D04D02868A9
:101D0000002801D0286820602683DFF88409006855
:101D1000E060DFF87C09046001F00BFB0020F2BDFD
:101D200003007FF00400704770B506000C00307CA3
:101D3000002801D0002061E0307C012801D1300072
:101D40005CE0032000F0F5FC0500002D01D100202F
:101D500054E070696861308B2883012028743089D1
:101D60002881288950F002002881F07AE872B07A40
:101D7000A872002E01D1002000E030682860DFF852
:101D800010090068B04207D1DFF804090068C06894
:101D9000DFF8FC1808601EE0DFF8F808DFF8F0183C
:101DA00009680160DFF8EC080068002813D0DFF84C
:101DB000E4080068C068B04205D1DFF8D8080068C0
:101DC000F168C16007E0DFF8CC080068C068DFF8A0
:101DD000C4180860E6E70020F0603100022000F03F
:101DE000C4FCDFF8C008E861DFF8AC080068E86010
:101DF000DFF8A408056001F09CFA280070BD01001E
:101E0000486A0A8D1218088F40F2B553984202DBD7
:101E100040F2B45000E0088FCB6AD31A181A002899
:101E200004D4088D4885C86A101A0CE0486ACB6A49
:101E3000C01A012802DB0020488503E0C86A4B6A0B
:101E4000C01A48850020704770B504000D00208D31
:101E500028182085208D40F66931884202DB40F643
:101E6000683020852000FFF7CAFF060040F2DA2024
:101E7000864208DB94F8220050F0020084F8220029
:101E8000200000F074FF70BDDFF81C080088401CC3
:101E9000DFF81428108080B2B0F5004F04DBDFF8C3
:101EA00008084FF480520280DFF8F0070068010054
:101EB000002907D0088BDFF8F02712889042E3D082
:101EC000C968F5E7DFF8D80700680100002907D0E6
:101ED000088BDFF8D42712889042D5D0C968F5E77F
:101EE000DFF8B40700680100002907D0088BDFF88D
:101EF000B82712889042C7D0C968F5E7DFF8A8076D
:101F0000008870472DE9F04383B004000D001600EF
:101F10001F00207C002802D07FF00C0087E0002DFD
:101F200006D0286860602684208B002806D102E055
:101F30007FF008007BE0FFF7A7FF208300F084FB21
:101F4000814600206062C4F85890B9F10100E06455
:101F5000B9F10100A06640F66830208540F668308F
:101F60006085606AE06240F66830A4F85C004FF477
:101F7000067020872900208F00F070FB2087012049
:101F8000A4F85200208F0A214843A4F854000220EC
:101F90002074C4F88870DFF8F8060068A04207D102
:101FA000DFF8EC060068C068DFF8E41608601EE0A1
:101FB000DFF8E006DFF8D81609680160DFF8D4061C
:101FC0000068002813D0DFF8CC060068C068A04283
:101FD00005D1DFF8C0060068E168C16007E0DFF8FE
:101FE000B4060068C068DFF8AC160860E6E70020B9
:101FF000E060DFF8A8060068E060DFF8A006046093
:1020000001F097F9012001900020009002230022A6
:102010000021200000F049FC80464FFA88F8B8F112
:10202000000F02D1200000F0A2FE404640B2BDE801
:10203000FE832DE9FC4700208246DFF87006006829
:10204000401CDFF86816086000200600DFF84C0628
:1020500000680400002C002C00F030810020804635
:1020600000208146207C022806D194F84A000628E8
:1020700002D118F101086CE094F84A000C2802D152
:1020800018F1010865E094F89C0000281FD0D4F8EE
:102090009800401CC4F89800D4F8980094F89C105C
:1020A000DFF80C26891811F8011C884251D3002052
:1020B000C4F8980094F89C00072804D294F89C0077
:1020C000401C84F89C00200001F0C0F841E0B4F905
:1020D0003600002802D4E08E401CE086A06F002865
:1020E00037D0B4F93600B4F94810884231DB207C8F
:1020F00002280DD0B4F94400B4F9461011EBE00009
:1021000094F84A10DFF8AC2589568840A4F84800B6
:102110000020E086B4F85200B4F85C10884202D285
:10212000B4F8527001E0B4F85C70BFB27808A4F85B
:102130005400B4F85400218F884204D2208F80B21A
:102140004000A4F85400208FA4F85200200000F0B2
:10215000D9FF207C062808D1DFF850050068216BE4
:10216000401A292801D318F10108207A000735D533
:10217000207C042802D0207C07282FD1D4F894009A
:10218000DFF8341508184FF4FA71B0FBF1F0DFF8FE
:102190001C150968226B891A884204D218F10108BB
:1021A00019F101091AE0D4F8940094F89D10DFF8B1
:1021B0000C2502FB01004FF4FA71B0FBF1F0DFF8DF
:1021C000EC140968226B891A884207D2200001F0BA
:1021D0001AF894F89D00401C84F89D00207C032888
:1021E00008D1DFF8C8040068216B401A292801D300
:1021F00018F10108207C092808D1DFF8B004006834
:10220000216B401AF12801D318F101085FFA88F810
:10221000B8F1000F2CD0200000F0B7F9002E02D04A
:10222000E068F06003E0E068DFF870140860D4F85C
:102230009000002805D07FF004016069D4F8902058
:1022400090475FFA89F9B9F1000F09D0208C01900D
:10225000208B0090231D2200616AA06D00F0F0FE2B
:10226000E06805002100022000F07FFA2C00F2E671
:1022700094F83400401C84F8340094F8340094F846
:102280003510884217D3002084F83400D4F88C002D
:10229000002806D021006069D4F88C20904782463F
:1022A00001E0002082464FFA8AFABAF1000F02D10B
:1022B000200000F05CFD2600E468CCE6002006006B
:1022C000DFF8DC0300680400002C26D000208046E4
:1022D000DFF8D8030068216B401AF12801D318F108
:1022E00001085FFA88F8B8F1000F13D0200000F061
:1022F0004CF9002E02D0E068F06003E0E068DFF8FF
:10230000A0130860E06805002100022000F02DFA0B
:102310002C00D9E72600E468D6E7BDE8F38770B55E
:10232000DFF8780300680400002C30D0E06F00284C
:1023300018D0D4F88400002808D00023E26F2100D0
:102340006069D4F88460B047050006E00023E26FBE
:102350002100002000F040F805006DB2002D01D1F1
:102360000020E06794F82200C0070ED594F8220000
:1023700050F0020084F82200200000F0F8FC94F8ED
:10238000220010F0FC0084F82200E468CCE770BD65
:1023900070B504000025002C08D02068060020003D
:1023A00000F007F8401905003400F4E72800C0B237
:1023B00070BD38B504000025002C0AD060680028E4
:1023C00003D06068FFF721FA05002100042000F027
:1023D000CCF92800C0B232BDF8B504000D001600DB
:1023E0001F00002E07D031892800FFF72DFD300097
:1023F000FFF70BFA06E07FB2002F03D12800FFF7AA
:1024000014FB00E00020F2BD2DE9F04104007F2024
:1024100080460020070000200600A0480068050054
:10242000002D18D0687CE4B2844212D3687C5FFA35
:1024300088F880450DD39D480068296B401AB84242
:1024400007D39A480068296B401A07002E00687C61
:102450008046ED68E4E7002E03D001213000FFF74D
:1024600077FBBDE8F08170B5002006000020050074
:102470008B4800680400002C0DD08C480068216B4C
:10248000401AB04205D389480068216B401A060003
:102490002500E468EFE7002D03D001212800FFF7B5
:1024A00057FB70BD70B50400022000F042F9050032
:1024B000002D0FD1FFF7D7FF022000F03AF90500F9
:1024C000002D07D12000C0B2FFF79EFF022000F0D0
:1024D00030F90500002D3FD0A0220021280001F096
:1024E0008DFB4020687441F68440A5F86E00002002
:1024F000A5F8700040F66830288540F66830688599
:102500000020A872FF20E8724FF40670288706208A
:10251000A5F848000020A5F844000620A5F84600CC
:102520005FF0FF30E8860120A5F8520000F08CF83B
:1025300006006E66AE65EE64AE665C4800682863B1
:10254000002085F834005E48C5F884005D48C5F871
:102550009400002085F89D00280070BD80B54020C3
:10256000FFF7A0FF02BD41617047C0F884107047BB
:10257000C0F880107047C0F890107047C161704774
:10258000C0F88C1080F83520704710B50400207C0E
:1025900000281AD0207C0A2817D0207C012814D0CB
:1025A000E06F002804D0E06FFFF72FF90020E0670C
:1025B000606F0028A06F0028606FFFF7E9FEA06F32
:1025C000FFF7E6FE00206067A06710BD38B5040085
:1025D0000D002068A84203D12068C068206016E082
:1025E0002C48216801602B48006800280FD029483A
:1025F0000068C068A84204D126480068E968C16044
:1026000005E024480068C06822490860EBE7002024
:10261000E8602800FFF7B9FF287C0A280FD0287C43
:1026200001280CD095F82200C00708D595F82200A3
:1026300050F0020085F82200280000F098FB287C6A
:1026400001280020287431BD1F4800681749096817
:1026500008181D4908601C4800687047F8B5040058
:102660000D00280001F0D4FA0700002F0AD0388DA1
:10267000002807D0388D28380600A4B2B6B2B4427C
:1026800000D33400200080B2F2BD00005A92012035
:10269000F891012008920120FC9101200092012074
:1026A00004920120211D000870010020F4910120F6
:1026B000FCD2000874D20008B84C0A00F8240100CB
:1026C000D923000800DD6D006C01002010B4002348
:1026D0001A0092B20C2A01DA521CFAE72E4B9B0820
:1026E0009B00180000231A0092B20C2A1FDA92B243
:1026F0002A4B002443F822400023190092B2284BB1
:1027000033F8123089B299420FD292B2234B53F868
:102710002230036092B2214B43F8220092B2214B47
:1027200033F812301818491CE8E7521CDCE710BCDB
:10273000704770B50400E4B20C2C01DB002013E0FC
:1027400001F04CFA0600E4B2144850F824000500E9
:10275000002D05D0E4B21148296840F82410FFE7A5
:10276000300001F040FA280070BDF8B504000D00FB
:10277000002D0FD02E0001F031FA0700E4B2074817
:1027800050F824003060E4B2044840F82460380077
:1027900001F029FAF1BD00008B19012044900120BD
:1027A000CCD10008B4D100082DE9F84304000D0095
:1027B00016001F00D5F80480208BFEF7BDFEA8F898
:1027C0000000208CFEF7B8FEA8F80200C8F80470DC
:1027D000606AFEF7BEFEC8F808004FF6C070FEF74C
:1027E000ABFEB8F80C1010EA01091020FEF7A4FEA9
:1027F00050EA0900A8F80C00608DFEF79DFEA8F8CD
:102800000E000020A8F81200B8F80C00FEF79AFE9F
:10281000042196FBF1F1491D10F03F0050EA013010
:1028200080B2FEF789FEA8F80C000020A8F810007E
:10283000606A618D0818E0624046BDE8F28330B5F9
:1028400083B004000D0000200190012000902B00B7
:10285000DBB200220021200000F027F83EBDF0B5D9
:1028600083B004000D0016001F00207C042808D04F
:10287000207C072805D0207C022802D0207C032859
:1028800010D1B6B2002E0BD000200190FFB20097FD
:102890000023320092B22900200000F006F803E085
:1028A000002001E07FF00700FEBD2DE9FE4F84B05F
:1028B0000400BDF8140000280BD19DF84400002846
:1028C00007D19DF818000321084202D17FF00900CA
:1028D00018E2BDF81400002805D10498002802D0A1
:1028E0007FF009000EE2B4F86E00BDF814108842C3
:1028F00008D294F8220050F0800084F822005FF0A3
:10290000FF30FFE1BDF814008146049802909DF865
:102910004400C00701D5042000E000209DF84410C9
:10292000890701D50C2100E0002108188DF804006A
:10293000A06E8346B4F8700080461FFA88F8B8F19C
:10294000140F05DA1FFA88F84FF6FD70804508DB92
:1029500094F8220050F0800084F822005FF0FF30ED
:10296000D0E11FFA88F8B8F1000FFFD10020050070
:102970000600824600200700002E05D01FFA89F9C4
:10298000B9F1000F00F0D380208F9DF80410401A99
:102990001FFA89F9484504DA208F9DF80410471A78
:1029A00000E04F460420FFF7C4FE0500002D00F0B4
:1029B00099810020286000206860002E01D12E003F
:1029C00001E0CAF80050AA469DF84000C00722D591
:1029D00000229DF80400C11989B20020FEF7CBFD4A
:1029E0006860002800F07E816868FEF74CFF10EBFD
:1029F000080080460498002809D0BFB23A00029926
:102A00009DF804006B685B68C01801F0F1F8686815
:102A10004068A86031E000229DF8041089B20020CF
:102A2000FEF7A9FD6860002800F05C816868FEF789
:102A30002AFF10EB080080461FFA89F9B9F1000F50
:102A40001BD00122390089B20320FEF794FD0390C8
:102A5000002805D16868FEF7D8FE0020686041E1D3
:102A600018F101080398029941600298A86003993F
:102A70006868FEF720FF002003901FFA88F8B8F17D
:102A8000150F05DA1FFA88F84FF6FD70804500DB58
:102A900028E1AF8114216868FEF769FE002840F044
:102AA0002181686840682861208BFEF745FD29690F
:102AB0000880208CFEF740FD296948805846FEF7C3
:102AC00048FD296948602869002141824FF6C0709D
:102AD000FEF732FD29698989084000909DF81800A9
:102AE00080B2FEF729FD00990843296988819DF885
:102AF0004400A87328698089FEF724FD9DF804101E
:102B0000042291FBF2F1491D10F03F0050EA013020
:102B100080B2FEF711FD29698881B9EB0709BFB2C0
:102B200017EB0B0BBFB202983818029024E7606FC6
:102B3000002802D10020824608E0606F8246DAF861
:102B40000000002802D0DAF800A0F8E7BAF1000F80
:102B500000F08480DAF810008089FEF7F3FC03218E
:102B6000084201D0012000E00020BAF80C10C0B2E9
:102B70004018002872D0DAF810008089FEF7E2FCD5
:102B8000032108426AD19DF818000321084203D0AE
:102B90009DF81800012861D1208FBAF80C10B28975
:102BA000511888425ADB9AF80E00B17B884255D101
:102BB000DAF810004068FEF7D8FCBAF80C100818D4
:102BC000009030694068FEF7D0FC0099814245D101
:102BD0009DF804001430414209B27068FEF7C7FD49
:102BE000002840F07F807068408900280CD1706810
:102BF0000090706800687060009800210160B8F172
:102C000001080098FEF701FE9DF81800C0070CD5DA
:102C1000DAF81000808900900120FEF78DFC009901
:102C20000843DAF8101088810DE07168DAF80400C2
:102C3000FEF741FEBAF80C00B1890818AAF80C009A
:102C40003068CAF80000B54203D15546BAF80C0006
:102C5000070031000420FFF788FD06E0BAF1000FFD
:102C600001D1666701E0CAF800609DF818000321F1
:102C7000084204D0BDF81400401CADF814009DF8C3
:102C80001800C00705D594F8220050F0200084F801
:102C90002200A06EBDF814100818A066B4F86E00EB
:102CA000BDF81410401AA4F86E00A4F87080B4F8AF
:102CB00070000028002D13D0BFB2002F10D028695B
:102CC00000280DD09DF84000800709D4286980892C
:102CD00000900820FEF730FC00990843296988819C
:102CE00000200FE094F8220050F0800084F82200C9
:102CF000002E02D03000FFF74BFBB4F87000002824
:102D00005FF0FF3007B0BDE8F08FF0B583B004008E
:102D100000270022FFB217F1140189B20120FEF74B
:102D20002AFC0500002D02D17FF001001EE094F87E
:102D3000220010F0FC0084F82200A06DFEF709FCD0
:102D40000300FFB23A0029002000FFF72DFD060026
:102D500006200190A07A0090E37A221D210028002D
:102D600001F010F92800FEF750FD0020FEBD2DE90E
:102D7000F0470400AF480068A04201D10020F3E012
:102D8000B4F85C00B4F85210884202D2B4F85C8007
:102D900001E0B4F85280606F050094F822008007CB
:102DA0000FD5002D09D028694068FEF7DEFBE16CE5
:102DB000401AA9890818804503D22000FFF7A5FF13
:102DC000D2E0A06F0600002E04D03068002801D0A9
:102DD0003668FAE7002D00F0A88028694068FEF701
:102DE000C4FBE16C401AA98908188045C0F09D8099
:102DF00028698089FEF7A6FBA16F002910D094F8FE
:102E00002200442108420BD1606F00280AD0606F75
:102E10000068002804D1606F8089218F884201D327
:102E2000012000E00020002804D194F82200A02115
:102E300008427AD028686067207C02280DD01020D4
:102E4000FEF77AFB2969898908432969888194F802
:102E5000220010F0FC0084F822002100280000F07D
:102E600085F828694068FEF780FB814628698089DB
:102E7000FEF768FB0321084201D0012000E000209A
:102E8000A989C0B2401810EB0907A06DC01B00282B
:102E900000D5A76528698089FEF754FB0321084205
:102EA00001D0012000E00020A989C0B2401801280B
:102EB00035DB00202860A06F002802D1A5672E0016
:102EC00030E028694068FEF750FB81463069406871
:102ED000FEF74BFBB9EB000000281DD514F1780973
:102EE000D9F80000002811D0D9F800000069406826
:102EF000FEF73BFB824628694068FEF736FBBAEBDB
:102F00000000002802D5D9F80090E9E7D9F80000C0
:102F10002860C9F8005005E03560366802E02800F6
:102F2000FFF747FA606F050054E7002D15D094F8BD
:102F30009C00002811D128694068FEF716FBB4F800
:102F40005C10E26C801AAA891018814205D2002018
:102F5000C4F89800012084F89C0094F8220010F036
:102F60007F0084F822000020BDE8F0872DE9FC41B5
:102F700004000D00686AFEF7ECFA21698860688D2C
:102F8000FEF7DAFA2169C881686A698D0818E86273
:102F9000206914308046A07BC00706D52648FEF77E
:102FA000D8FAC8F8000018F10408002D02D02868EB
:102FB00000280CD1281D00F02BFE0700002F37D071
:102FC000381D002801D1002000E078682860B5F99C
:102FD000360010F1010F01D10020E886E86B0028CF
:102FE00007D116480068E86320694068FEF7BDFA1B
:102FF0002864206961684968401A06006068408951
:10300000801B6168488160680089801B6168088155
:1030100060682169416020690021018206200190D9
:10302000A87A0090EB7A2A1D2900606800F0AAFFB8
:10303000BDE8F38124920120B4050402F49101203B
:103040002DE9F04F83B006000F00904699460C9C86
:103050000D9D002214210120FEF78DFA8246BAF15F
:10306000000F4DD0DAF804008346200080B2FEF74E
:1030700063FAABF80000280080B2FEF75DFAABF807
:1030800002003000FEF765FACBF804003800FEF7C6
:1030900060FACBF808004FF6C070FEF74DFABBF8A7
:1030A0000C10084000901420FEF746FA00990843DF
:1030B000ABF80C0040F66830FEF73EFAABF80E00B5
:1030C0000020ABF81200BBF80C00FEF73BFA10F042
:1030D0003F0050F4A04080B2FEF72EFAABF80C008F
:1030E0000020ABF810000620019000200090FF2384
:1030F0004A464146504600F045FF5046FEF785FBE4
:10310000BDE8F78F38B50400A06F002816D0A06F77
:1031100005002868002801D02D68FAE7606F286054
:10312000A06F60670020A06794F84A00401C84F8F4
:103130004A000020E0632000FFF719FE31BDF8B51A
:103140000400A06F002822D0A06F05002868A067A7
:1031500014F174000600306800280ED03068006951
:103160004068FEF702FA070028694068FEF7FDF99B
:10317000381A002801D53668EDE7306828603560D8
:1031800094F84A00401C84F84A000020E063F1BD36
:1031900010B50400A06F002834D094F82200400736
:1031A00030D42000FFF7CBFFB4F85C00B4F8521025
:1031B000884207D2B4F85C00022190FBF1F0A4F839
:1031C000540006E0B4F85200022190FBF1F0A4F89C
:1031D0005400B4F85400218FB0EB410F04DA208F73
:1031E00080B24000A4F85400B4F85400218F0322A8
:1031F00002FB0100A4F8520094F8220050F00400F1
:1032000084F8220010BD7CB50400002214210120A6
:10321000FEF7B1F90500002D17D0A06D401EFEF796
:1032200098F90300002229002000FFF7BDFA0600EC
:103230000620019000200090E37A221D2100280042
:1032400000F0A0FE2800FEF7E0FA73BD2DE9FC4770
:103250000400A06F0700002F01D1606F0700002F4E
:103260004CD038698089FEF76DF9C00705D5B8895B
:10327000002802D15FF0010901E05FF000095FFA68
:1032800089F9B9F1000F02D05FF0140801E05FF096
:1032900015080022414689B20120FEF76CF90500AD
:1032A000002D2BD038694368002229002000FFF749
:1032B0007BFA06005FFA89F9B9F1000F0DD04FF6DD
:1032C000C070FEF739F982461120FEF735F9B18951
:1032D0001AEA01010843B08103E06868B968097817
:1032E00001750620019000200090E37A221D210044
:1032F000280000F047FE2800FEF787FABDE8F387B4
:1033000010B50400FEF782FBDFF8480200680028D1
:1033100004D1DFF844020068002806D00022DFF85C
:103320003C12FA2000F099FE02E08D480021016075
:1033300010BD80B58A48006800280FD18548006814
:10334000002803D184480068002807D08448012160
:10335000016000228149FA2000F07FFE01BD10B516
:10336000040000F027FF00227E4941F2883000F07F
:1033700074FE10BD10B5040001F0E9FB00227A498B
:103380004EF6602000F069FE10BD10B5040001F09B
:1033900001FC002275494FF4FA7000F05EFE10BD8A
:1033A00010B5040002F065F900227149642000F0B4
:1033B00054FE10BD10B582B004000022694941F2EC
:1033C000883000F04AFE002267494EF6602000F087
:1033D00044FE002265494FF4FA7000F03EFE0022E0
:1033E0006349642000F039FE62480068002804D078
:1033F000614800685F490968884700A95F4800681C
:1034000000F0E2FD00980078002806D0022824D0C1
:103410000BD3042838D02AD341E000988068001DDF
:103420000099896809688847E7E70098C06890F8BC
:103430003100800606D50098C1680098806801F0C8
:10344000B1FA05E00098C1680098806800F007FCB8
:1034500000990820FFF789F9CFE70098C068009924
:103460008968884700990720FFF77FF9C5E700982A
:1034700002690098C1680098806800F0EEFD00992C
:103480000720FFF772F9B8E7009801690098C06853
:1034900000F042FE00990720FFF767F9ADE7ACE7BF
:1034A00070B504000D003548006800281CD00820C5
:1034B000FFF73FF90600002E02D15FF0FF3015E064
:1034C00001203070B460F56031002C48006800F0D5
:1034D00069FA002806D031000820FFF746F95FF0AE
:1034E000FF3003E0002001E07FF0080070BD10B560
:1034F00086B004002148006800280FD000208DF815
:103500000000029400A91D48006800F03FFA002165
:103510006068C06800F0C3FA002001E07FF0080096
:1035200006B010BD38B504000D0002F099F911483D
:10353000046011480560322000F014FA0F49086059
:10354000122000904FF4806300220D490D4800F0D6
:103550000DFB31BD009201200492012001330008CF
:10356000349201205F330008753300088B33000864
:10357000A1330008289201202C92012030920120D2
:10358000B533000804D3000810B40388DFF8C04343
:1035900024681B19190088421BD00B79002B18D105
:1035A000DFF8B0331B68994213D0DFF8AC331B68E7
:1035B0008B4202D1DFF8A03318600B8803800B88A0
:1035C000DFF88C4324681B19DFF884432468041B4C
:1035D0005C804388DFF8784324681B191A00824214
:1035E00016D01379002B13D1DFF86C331B6883429C
:1035F00002D1DFF864331A60038813800388DFF890
:10360000504324681B19DFF848432468141B5C806E
:1036100010BC704710B5DFF8440380088000CC4927
:103620000860CB48006804004FF4A04020800020D0
:10363000608000202071C648006810F5A040C54990
:103640000860C448006801210171C24800684FF455
:10365000A0410180BF4800684FF4A0414180012093
:1036600000F0FEF9BE490860BB48B949096801602D
:1036700010BD70B50400002C25D0B5480068844208
:1036800003D3B4480068844206D300F0A7FA0600CA
:10369000300000F0A8FA16E00021B148006800F000
:1036A000FEF9B4F10800050000202871AA4800685E
:1036B000854201D2A84805602800FFF765FFA848A9
:1036C000006800F01AFA70BD2DE9F84F04008A4630
:1036D0001AF103004FF6FC7111EA000A1FFA8AFA88
:1036E000BAF10C0F01DA0C2082461FFA8AFABAF5F9
:1036F000A04F01DD002097E095480068844203D385
:1037000094480068844207D300F068FA834658461C
:1037100000F069FA200087E0B4F1080080468C4888
:103720000068B8EB00000600B8F80000B6B2801BD5
:1037300008380500ADB21FFA8AFA554501D20020BB
:1037400072E01FFA8AFAADB2AA4501D120006BE0FF
:1037500000218348006800F0A2F9B8F800007C4915
:1037600009684018814699F8040000282AD1B9F860
:10377000001008001AEB060108310F0076490968AD
:10378000494505D1BFB2724909687918724A11607A
:10379000BFB26F49096879188946002189F8041079
:1037A000A9F80000A9F80260A8F80070B9F80010A4
:1037B000B1F5A04F33D0B9F80010654A12688918E6
:1037C0004F802CE0ADB21FFA8AFA1AF1140085423C
:1037D00025D31AEB060008300700BFB25C4800682A
:1037E000381881465C480068814502D25A48C0F8C2
:1037F0000090002089F80400B8F80000A9F8000043
:10380000A9F80260A8F80070B9F80000B0F5A04F60
:1038100005D0B9F800004E49096840184780504863
:10382000006800F06AF92000BDE8F28F2DE9F04150
:1038300080461FFA88F8B8F1000F01D1002085E01A
:1038400018F103004FF6FC7111EA00081FFA88F81E
:10385000B8F10C0F01DA0C2080461FFA88F8B8F591
:10386000A04F01DD002071E000213D48006800F01C
:1038700016F93948006836490968401A0400A4B2AC
:103880001FFA88F8D8F5A04084425ADAA4B230482A
:10389000006820180600307900284DD13088A4B285
:1038A000001B08381FFA88F8404545D33088A4B279
:1038B000001B08381FFA88F818F1140188421AD33F
:1038C00018EB040008300500ADB221480068281844
:1038D000070000203871308838807C8035800120D6
:1038E00030713888B0F5A04F07D03888184909687A
:1038F0004018458001E00120307117480068864279
:1039000013D115480068007900280ED012480068CD
:1039100010490968884208D00F48006800880C499F
:10392000096840180C490860EBE70D48006800F092
:10393000E4F816F1080009E0A4B205480068245A2A
:103940009DE70748006800F0D8F80020BDE8F08146
:1039500090910120949101209891012077C9002035
:103960009C91012038B5040000220421062001F0BA
:10397000BAFF0500280032BD38B50400200002F06F
:1039800036F90500200002F03CF931BD13B5040002
:1039900000235FF0FF3201A9200001F0DCFF0128C5
:1039A000F6D113BD32B504000023002200A9200087
:1039B00001F0D1FF012802D10020050002E05FF0F4
:1039C000FF300500280040B232BD2DE9F843040065
:1039D0000D00160002F07EFB0700002D01D100A8AB
:1039E0000500002E16D000230120B6FBF0F22900BE
:1039F000200002F05EF8012807D102F06BFB804640
:103A0000B8EB07008146484614E0002028605FF0CC
:103A1000FF300FE000235FF0FF322900200002F0AA
:103A200048F80128F6D102F055FB8046B8EB0700B4
:103A300081464846BDE8F28338B504000D00002DEC
:103A400001D100A80500002300222900200002F077
:103A500030F8012801D1002001E05FF0FF3032BDD5
:103A600038B5040003220021012001F03CFF0500CD
:103A7000002D05D0002300220021280001F06BFF5B
:103A8000002D01D1002009E0E4B2002C05D1002373
:103A900001220021280002F00CF8280032BD2DE997
:103AA000F04104000D0002F015FB0600002D13D0BC
:103AB00000230120B5FBF0F20021200001F0F9FF06
:103AC000012806D102F006FB0700B81B80464046DD
:103AD00011E05FF0FF300EE000235FF0FF320021C5
:103AE000200001F0E6FF0128F6D102F0F3FA07000A
:103AF000B81B80464046BDE8F08110B504000023A5
:103B000000220021200001F026FF10BD10B50400A6
:103B1000200002F076F810BD0021080006280ADA1D
:103B20002C4911EBC00100224A602A49002241F8C9
:103B30003020401CF2E7284900220A80704770B507
:103B400002F0E7FD050000200400234800888442BD
:103B50000ADA204810EBC40006007068A84201D1C0
:103B6000300002E0641CF0E7002070BD2DE9F04356
:103B700085B004000D0016001F00DDF830801648E7
:103B80000088062822DA002003900020029004A872
:103B90000190CDF8008033003A0092B22100280055
:103BA00002F0FEF881460C4800880A4911EBC0007B
:103BB0000499416008480088401C07490880B9F111
:103BC000010F01D1049802E0002000E0002005B0C0
:103BD000BDE8F083749001205292012080B502F07C
:103BE00069FE012002BD10B5040002F070FE10BD98
:103BF00010B5044602F09CFE204610BD10B50446E8
:103C000010460A460146204602F0CEFE204610BD70
:103C100038B50400D64800680500002D10D02800F3
:103C200002F0B8FF002809D02068A9680840696838
:103C3000AA681140884201D128000FE02D68ECE706
:103C4000CC480068002805D0CA48006802F0A2FFEE
:103C5000002801D1002001E0C648006832BD2DE9EE
:103C6000F84F04000D005FF001086068060030881E
:103C7000FDF768FC80B2000B80B2042804D020005D
:103C8000FDF7C3FD0020E8E03088FDF75BFCC0F3E2
:103C9000032081461FFA89F95FEA89097088FDF7D8
:103CA00051FC070060891FFA89F9484503D3208930
:103CB000BFB2B8420BD260891FFA89F94845208902
:103CC000BFB2B8422000FDF7A0FD0020C5E03900DA
:103CD00089B22000FDF715FD5FF0010BAA465046A2
:103CE00002F058FF002814D01AF10400002810D068
:103CF000DAF8040000280CD03069DAF804108842A1
:103D000006D0514616F11000FDF756FE002800D0EF
:103D100011E0BBF1000F05D00020834694480068F5
:103D2000824601E0DAF800A0AA4501D1DAF800A045
:103D3000BAF1000FD3D1BAF1000F11D13089FDF7DC
:103D400001FCC0B211280BD11FFA89F919EB06004A
:103D50004088FDF7F7FB442802D1AA4600208046A0
:103D6000B8F1000F1CD0F068002819D0290016F116
:103D70000C00FDF721FE00280DD15FF07040FDF72B
:103D8000F4FB83465FF06040FDF7EFFBF1681BEA50
:103D90000101814204D12000FDF737FD00205CE0E5
:103DA000BAF1000F04D12000FDF72FFD002054E0F0
:103DB00043F6FF70FDF7C0FB0100F088084204D015
:103DC0002000FDF722FD002047E06B4805606B48AE
:103DD00006602900200002F0E3FE002836D1308979
:103DE000FDF7B0FBC0B2C0B201280DD0062806D046
:103DF00011280ED12900200002F062FF26E02900E0
:103E00002000FCF7BFF921E02900200003F07CF935
:103E10001CE0290016F11000FDF7CEFD002812D19C
:103E20005FF07040FDF7A1FB83465FF06040FDF757
:103E30009CFB31691BEA0101814204D066600221CA
:103E4000200003F02BFA2000FDF7DFFC4A48002198
:103E500001604A48002101600020BDE8F28F2DE991
:103E6000F84F06000F0090460A9C0B9DDDF830903D
:103E7000B8F1000F6ED05FF0140B14213000FDF785
:103E800076FC002802D07FF001006EE07068824668
:103E9000BAF80800FDF756FBC0B29DF8001050EAD2
:103EA000012080B2FDF748FBAAF80800BAF8080024
:103EB000FDF748FBEDB280B2000A55EA002080B25F
:103EC000FDF73AFBAAF80800B8F1000F01D1002075
:103ED00001E0D8F80000CAF810001FFA8BFB04209C
:103EE0009BFBF0F0E4B254EA002050F4804080B232
:103EF000FDF722FBAAF800003089FDF71DFBAAF8A8
:103F000002000020AAF806001D480088FDF714FBF7
:103F1000AAF804001A480088401C19490880002F9C
:103F200002D0386800280AD119F10400002801D114
:103F3000002001E0D9F80400CAF80C0006E0002FC8
:103F400001D1002000E03868CAF80C000020AAF86F
:103F50000A0004E0706882461AF11000804642466A
:103F600031004846D9F814309847BDE8F28F000078
:103F7000A0910120A49101207C9101208091012039
:103F8000509201202DE9F04784B006000F009046C2
:103F900099460C9D0D9C4046FFF73AFE824600284C
:103FA00002D17FF003000CE0CDF808A0E4B2019448
:103FB000EDB200954B46DBB2424639003000FFF7C8
:103FC0004EFF04B0BDE8F0872DE9F04704000D0076
:103FD000FFF7B5FD0700002F02D03868002806D192
:103FE000002229002000FFF7F0FC060033E03868CB
:103FF0004068002807D03868426829002000FFF791
:10400000E4FC060002E05FF0FF30060016F1010F4D
:1040100014D138688046D8F800003860D8F8080015
:104020008146D8F80C00824641460920FEF79DFBE8
:104030004846002801D05046C847C9E7386840685C
:10404000864205D238684068801B3968486002E0C3
:10405000386800214160BDE8F0872DE9F84304008D
:104060000D0016000920FEF764FB8046B8F1000F32
:1040700050D00020C8F80000C8F80850C8F80C60FC
:10408000C8F80440FFF75BFD0700002F42D03868F6
:10409000002802D1C7F800803CE0386840688442BC
:1040A0000AD238684068001B396848603868C8F828
:1040B0000000C7F800802DE038688146B9F1000F94
:1040C00028D0D8F80400D9F80410401AC8F8040021
:1040D000D9F80000002806D0D8F80400D9F800105C
:1040E0004968884213D2D9F80000002808D0D9F8CE
:1040F00000004068D8F80410401AD9F80010486051
:10410000D9F80000C8F80000C9F8008002E0D9F82A
:104110000090D3E7BDE8F1832DE9F04104000D00E4
:10412000FFF70DFD0600002E31D0306800282ED09C
:104130003068804600200700B8F1000F27D0D8F87B
:104140000800210088421ED1D8F80C00A8421AD1DC
:10415000002F03D1D8F80000306002E0D8F800004A
:104160003860D8F80000002808D0D8F8000040686F
:10417000D8F804100818D8F8001048604146092003
:10418000FEF7F3FA03E04746D8F80080D4E7BDE82D
:10419000F08150F8041B61B150F8042BD30744BFE1
:1041A000A9F101039A18002342F8043B091FFAD130
:1041B000EFE7704700210800C0B20A2835DAC0B224
:1041C000DFF8D01711EB0011C97A491CC0B2DFF833
:1041D000C42712EB0012D172C0B2DFF8B81711EB8E
:1041E0000011897A022907D1C0B2DFF8A81711EBB4
:1041F0000011C97AF0290FDAC0B2DFF8981711EB75
:104200000011897A01290ED1C0B2DFF8881711EBAD
:104210000011C97A022906DBC0B2DFF8781711EB6A
:10422000001100228A72401CC6E770472DE9F04158
:1042300002000A230A240A25002600275FF0000C4A
:10424000002A1CD0DFF850070078DFF848E71EEBA3
:104250000010807A022812D11068DFF83CE79EF83F
:1042600000E05FEA0E1EDFF82C875EF808E070457C
:1042700005D1DFF8240790F9000040B2AFE000203C
:104280000600F6B20A2E66DA6DB20A2D09D1F6B230
:10429000DFF8000710EB0610807A002801D1350006
:1042A00057E0F6B2DFF8EC0610EB0610807A012832
:1042B00023D1002A0FD01068F6B25FEA061EDFF89D
:1042C000D4865EF808E0704505D1DFF8CC060670AC
:1042D000300040B283E0F6B2DFF8B80610EB06100B
:1042E000C07AFFB2B84234D33300F6B2DFF8A40686
:1042F00010EB0610C07A07002BE0F6B2DFF8940648
:1043000010EB0610807A022823D1002A0FD0106803
:10431000F6B25FEA061EDFF87C865EF808E07045BC
:1043200005D1DFF874060670300040B257E0F6B2EF
:10433000DFF8600610EB0610C07A5FFA8CFC60456F
:1043400007D33400F6B2DFF84C0610EB0610C07A43
:104350008446761C95E76DB20A2D04D111F0030056
:10436000012802D104E0880702D55FF0FF3036E073
:104370006DB20A2D01DA2E000CE064B20A2C01DACB
:10438000260007E05BB20A2B01DA1E0002E05FF0B4
:10439000FF3024E0F6B2DFF8FC0510EB06105FF00A
:1043A000000E80F80AE0002A0BD0002A01D100207C
:1043B00000E01068F6B25FEA061EDFF8D8854EF816
:1043C0000800F6B2DFF8CC0510EB06105FF0000E27
:1043D00080F80BE0DFF8C0050670300040B2BDE8A1
:1043E000F0812DE9F84304000D0016001F00D5F8F8
:1043F0000480062081465FFA89F9B9F1000F13D0D5
:10440000B9F101095FFA89F95FFA89F919F807002A
:1044100009F808005FFA89F919EB08005FFA89F9D1
:1044200019F806108171E6E74FF40060FDF784F893
:10443000A8F80C0029002000A2699047BDE8F2838B
:104440002DE9F04704000D0016001F00002D16D0C6
:104450002868002813D021002800FDF7ADFA0028B5
:104460000DD15FF07040FDF780F882465FF060404C
:10447000FDF77BF829681AEA0101814202D17FF039
:1044800009003EE03900C9B22800FFF7CFFE8046A0
:104490004FFA88F8B8F1000F02D5404640B230E03C
:1044A0004FFA88F8DFF8EC0410EB08100221817253
:1044B0004FFA88F8DFF8DC0410EB0810C46006201F
:1044C00081465FFA89F9B9F1000F11D0B9F10109FC
:1044D0005FFA89F94FFA88F8DFF8B80410EB081092
:1044E00019EB00005FFA89F919F806100171E8E785
:1044F0004FFA88F8DFF89C0410EB08100021C17215
:104500000020BDE8F0872DE9F04F83B004000D00D6
:104510001600002C00F0C88070892A2803DA3000C9
:10452000FDF773F9C0E07068804608F20E000700DE
:104530000120FDF701F8398880B2814218D140F29C
:104540000460FCF7F9FFB98880B2814210D14FF4C2
:104550000060FCF7F1FF798880B2814208D140F613
:104560000600FCF7E9FFB8F80C1080B2814203D0D6
:104570003000FDF74AF997E03900200001F00CF90E
:10458000042217F10E0100A8FFF732FB042217F1F5
:10459000180101A8FFF72CFB6068002802D1002059
:1045A000824608E001986168884202D15FF0010A02
:1045B00001E05FF0000A5FFA8AFABAF1000F07D053
:1045C000012317F1080200A92000FFF739FF06E0D8
:1045D000002317F1080200A92000FFF731FFF88837
:1045E000FCF7AAFF012802D0022855D059E05FFA53
:1045F0008AFABAF1000F4BD00220FCF79DFFF88039
:10460000D7F80E00B8610422211D17F10E00FFF744
:10461000EFFA06208146606A002806D0606A0079B9
:10462000002802D0DFF874B301E017F1080B5FFA3D
:1046300089F9B9F1000F26D0B9F101095FFA89F9BA
:1046400019EB07005FFA89F919EB0701097A817400
:104650005FFA89F95FFA89F919F80B0009F808007F
:104660005FFA89F919EB07005FFA89F919F8051063
:1046700001725FFA89F919EB08005FFA89F919F8F4
:1046800005108171D3E731002000A269904702E054
:1046900060680028FFD004E000A9200000F00EFBB5
:1046A000FFE73000FDF7B1F8BDE8F78F2DE9FC41D9
:1046B00004000D0016000E212800FDF758F8002810
:1046C00002D07FF0010056E00020070021003000FA
:1046D000FDF772F9002802D0B048070044E05FF00F
:1046E0007040FCF742FF80465FF06040FCF73DFF02
:1046F000316818EA010181421ED101208DF80000C5
:1047000000208DF801005E208DF802003068FCF773
:104710002CFF000C10F07F008DF803003068FCF7D0
:1047200024FF000A8DF804003068FCF71EFF8DF8A6
:10473000050000A8070017E03068A168084061681C
:10474000A2681140884209D0E068002803D014F123
:104750000C00060002E07FF003000CE02A003100AC
:10476000200000F00AF806E03B0014F12B022900BB
:104770002000FFF736FEBDE8F6812DE9F047040082
:104780000D00160004F22B075FF0FF38210028000F
:10479000FDF712F9002812D15FF07040FCF7E5FE3A
:1047A00082465FF06040FCF7E0FE29681AEA0101EA
:1047B000814204D0002D02D02868002802D17FF069
:1047C00009004BE001212800FFF730FD81464FFA38
:1047D00089F9B9F1000F03D5002E484640B23DE0FB
:1047E0004FFA89F96B4810EB0910807A002806D13E
:1047F0004FFA89F9674810EB0910012181724FFACD
:1048000089F9644810EB0910807A012801D0002E44
:1048100004D12900200000F0A6F88046002E1BD00D
:104820004FFA89F95B4810EB0910807A02280CD105
:104830004FFA89F9574810EB0910031D3A0031006F
:104840002000FFF7CEFD804606E04FFA89F9514877
:1048500010EB0910807A0128404640B2BDE8F0878D
:104860002DE9FE4F04000D9D002700222A21032080
:10487000FCF781FE0600002E02D15FF0FF3070E0F1
:104880007068814609F20E008246BDF83C00FCF7D4
:1048900053FEAAF8060006208046606A002806D06B
:1048A000606A0079002802D0DFF8F0B001E0DDF89E
:1048B00004B05FFA88F8B8F1000F27D0B8F101080A
:1048C0005FFA88F818EB0A005FFA88F8029918F87E
:1048D000011001725FFA88F818EB0A005FFA88F895
:1048E00018F8051081745FFA88F85FFA88F818F8EC
:1048F0000B0008F809005FFA88F818EB09005FFA66
:1049000088F8009918F801108171D2E70C980068B6
:10491000CAF80E000E980068CAF818000120FCF7CB
:104920000BFEAAF800004FF40060FCF705FEAAF8A1
:10493000020040F20460FCF7FFFDAAF8040040F614
:104940000600FCF7F9FDA9F80C0031002000A2696F
:10495000904707003000FCF758FF002006003800A1
:1049600040B2BDE8FE8F30B585B004000D000120D7
:10497000039002950A480190201D009014F12B032A
:10498000064A14F12B012000FFF76AFF05B030BD85
:1049900000000000DC8D012056920120CCD20008DE
:1049A000D4D20008F8B504000D0060680600B08994
:1049B000FCF7C2FD0700BFB23800B0F5006F04D0AD
:1049C00040F60601884212D018E07FF00D01200069
:1049D000FCF7CDFE002805D02000FCF716FF0020D4
:1049E000040003E029002000FFF739F90BE0220062
:1049F00015F12B012800FFF786FD04E02000FCF7ED
:104A000004FF002004000020F2BD0268531C036074
:104A100011707047F8B50400256A0821280000F0DD
:104A200007FC002215F128012000FFF7A6FE060072
:104A300076B2002EE87C401CE8744FF4FA70070050
:104A4000BFB207F2F3104FF4FA7190FBF1F0E88374
:104A5000F1BDF8B50400256A0121280000F0E8FB4B
:104A6000200000F040FC060076B2002E54D1012256
:104A70003521280000F0E4FB0321280000F0F3FBBF
:104A800002223921280000F0DBFB218D280000F0F4
:104A9000F3FB04223221280000F0D2FBA86AFCF7C5
:104AA00064FD0100280000F0FAFB042236212800F2
:104AB00000F0C6FB686AFCF758FD0100280000F012
:104AC000EEFB04223721280000F0BAFB0121280068
:104AD00000F0C9FB0321280000F0C5FB1C212800C1
:104AE00000F0C1FB0621280000F0BDFB280000F00B
:104AF000B6FCA88B10F1F00189B26869FCF701FEE1
:104B000000944323DFF824276969686802F0E1F91B
:104B1000200000F091FCFFE7E87C401CE874E87C92
:104B2000062804DA012095F91310884000E03C20A3
:104B30004FF47A7101FB00F7BFB207F2F3104FF4A4
:104B4000FA7190FBF1F0E883300040B2F2BD10B58D
:104B5000DFF8D0080468002C1BD0206A002816D08B
:104B6000206A408C216A421E4A8480B2012803D107
:104B7000200000F093F80AE0206A008C216A421EAF
:104B80000A8480B2012802D1200000F077F824685E
:104B9000E1E710BD10B5DFF88C080468002C1AD0CE
:104BA000206A002815D0206AC08B022805DB206A05
:104BB000C08B401E216AC8830BE0206AC08B01288D
:104BC00007D1206AC08B401E216AC883200000F0F4
:104BD00003F82468E2E710BD38B50400256AA87C14
:104BE0000C2802D0A87C062803D1200000F0C6F8CB
:104BF00043E0A87C01280DD1E87C062803DA2000D8
:104C0000FFF727FF39E0200000F0A7FA200000F0AE
:104C1000B5F832E0A87C08280AD1E87C022803DA3B
:104C20002000FFF7F7FE28E0200000F018F924E04C
:104C3000A87C052803D1200000F097F91DE0A87C8E
:104C400004280DD1E87C092803DA200000F0DCF903
:104C500013E0200000F081FA200000F08FF80CE053
:104C6000A87C032809D1E87C022803DA200000F0A0
:104C700019FA02E0200000F081F831BD38B50400D7
:104C8000256AA87C012805D0A87C0A2802D0A87C27
:104C9000052802D1200000F068F931BD38B50400C4
:104CA000256AA87C012805D0A87C0A2802D0A87C07
:104CB000052802D1200000F0A7F931BD38B5040065
:104CC0000D00002C0ED0206A00280BD0206A807CBA
:104CD000082807D12868216A896A884202D1200001
:104CE00000F001F831BDF8B50400256A00260C215A
:104CF000280000F09DFA200000F0F5FA060076B2D8
:104D0000002E2AD101223521280000F099FA042131
:104D1000280000F0A8FA04223221280000F090FABE
:104D2000A86AFCF722FC0100280000F0B8FA28006D
:104D300000F095FBA88B10F1F00189B26869FCF7CF
:104D4000E0FC00944323DFF8E4246969686802F01A
:104D5000C0F8200000F070FBFFE7E87C401CE8741E
:104D600042F210700700BFB207F2F3104FF4FA716D
:104D700090FBF1F0E883300040B2F2BDF8B50400DA
:104D8000256A0026DFF8A004002801D1002002E0F7
:104D9000DFF894040068A8620621280000F048FAB1
:104DA000200000F0A0FA060076B2002E3CD10122CD
:104DB0003521280000F044FA0121280000F053FAC0
:104DC00002223921280000F03BFA218D280000F052
:104DD00053FA04223721280000F032FA012128007A
:104DE00000F041FA0321280000F03DFA1C212800C0
:104DF00000F039FA0621280000F035FA280000F00A
:104E00002EFBA88B10F1F00189B26869FCF779FCE0
:104E100000944323DFF814246969686802F059F8A4
:104E2000200000F009FBFFE7E87C401CE874E87C08
:104E3000062804DA012095F91310884000E03C2090
:104E40004FF47A7101FB00F7BFB207F2F3104FF491
:104E5000FA7190FBF1F0E883300040B2F2BDF0B59A
:104E600083B00400002C00F07F80206A0600002E32
:104E70007AD0B06C10F1010F11D0B06C1E303C2113
:104E8000B0FBF1F00500B5F5803F02D34FF6FF709F
:104E900005003584308C002801D101203084F06C6D
:104EA00010F1010F11D0F06C1E303C21B0FBF1F07D
:104EB0000500B5F5803F02D34FF6FF7005007584FD
:104EC000708C002801D10120708416F12C0000287C
:104ED00001D1002000E0F06A0090009800281AD16B
:104EE0000098FCF742FB070EFFB2802F05DA5FF057
:104EF0007F40FCF72EFB00900DE0FFB2C02F05DBDA
:104F00007FF0FF00FCF725FB009004E0DFF81C05B4
:104F1000FCF71FFB009016F13000002801D10020A3
:104F200000E0306B01900198002809D1B06A009927
:104F3000084001900120FCF70CFB01990843019007
:104F400016F12801200001F0AFFD00A9200001F0BA
:104F5000EBFD01A9200001F0E0FD200001F0FAFDC9
:104F60000A21300000F064F9F7BDF8B50400256AA5
:104F70000521280000F05CF9200000F0B4F90600DB
:104F800076B2002E27D101223521280000F058F9F1
:104F90000321280000F067F902223921280000F0DF
:104FA0004FF9218D280000F067F9280000F057FA2A
:104FB000A88B10F1F00189B26869FCF7A2FB00949C
:104FC000432315F124026969686801F082FF20001B
:104FD00000F032FAFFE7E87C401CE874E87C0A281D
:104FE00005DAE87C4FF4FA6101FB00F701E044F6D2
:104FF0002067BFB207F2F3104FF4FA7190FBF1F0A3
:10500000E883300040B2F2BDF8B50400256A0421FF
:10501000280000F00DF9200000F065F9060076B2D6
:10502000002E26D101223521280000F009F90321A4
:10503000280000F018F902223921280000F000F9B8
:10504000218D280000F018F9280000F008FAA88B3C
:1050500010F1F00189B26869FCF753FB0094432317
:10506000724A6969686801F034FF200000F0E4F9D1
:10507000FFE7E87C401CE874E87C0A2805DAE87C55
:105080004FF47A7101FB00F701E042F21077BFB2F2
:1050900007F2F3104FF4FA7190FBF1F0E88330005F
:1050A00040B2F2BDF8B50400256A0321280000F0E3
:1050B000BFF8200000F017F9060076B2002E33D1B9
:1050C00001223521280000F0BBF80321280000F060
:1050D000CAF802223921280000F0B2F84FF410710A
:1050E000280000F0C9F804223221280000F0A8F8B6
:1050F000A86AFCF73AFA0100280000F0D0F828006E
:1051000000F0ADF9A88B10F1F00189B26869FCF7E5
:10511000F8FA00944323454A6969686801F0D9FEAA
:10512000200000F089F9FFE7E87C401CE874E87C87
:105130000A2805DAE87C4FF47A7101FB00F701E0F8
:1051400042F21077BFB207F2F3104FF4FA7190FBFE
:10515000F1F0E883300040B2F2BDF8B50400256AF2
:105160000D21280000F064F8002068620020E86249
:10517000A8620020686328630020E864A86468646B
:105180000020A863200000F0AEF8060076B2002EE2
:105190001ED101223521280000F052F807212800F5
:1051A00000F061F8280000F05AF9A88B10F1F00126
:1051B00089B26869FCF7A5FA0094432315F124022B
:1051C0006969686801F085FE200000F035F9FFE7A5
:1051D000E87C401CE874E87C0A2805DAE87C4FF497
:1051E0007A7101FB00F701E042F21077BFB207F2DB
:1051F000F3104FF4FA7190FBF1F0E883200001F016
:10520000BEFCDFF82412200001F04EFCDFF818127B
:10521000200001F082FCDFF81012200001F084FC75
:10522000300040B2F2BD000014D3000818D30008CB
:10523000827CC9B2914202D081740022C27470474C
:1052400010B4838B5C1C84839BB284691B1983F824
:10525000F010838B5C1C84839BB284691B1983F8D8
:10526000F02010BC7047828B531C838392B28369F9
:10527000D21882F8F0107047828B531C838392B24D
:105280008369D21889B20B0A82F8F030828B531CE2
:10529000838392B28369D21882F8F0107047828BB0
:1052A000531C838392B28369D2180B0E82F8F030BC
:1052B000828B531C838392B28369D2180B0C82F8C1
:1052C000F030828B531C838392B28369D2180B0A0D
:1052D00082F8F030828B531C838392B28369D21898
:1052E00082F8F010704770B50400002C02D17FF0F6
:1052F000090096E0206A0500002D02D17FF0080029
:105300008FE000224FF49A710020FCF734F96861B5
:105310006869002802D15FF0FF3082E0E87C002855
:1053200004D143480068401C414908604048006877
:10533000286068694068A861A86901210170A869AE
:1053400001214170A86906218170A8690021C170FE
:105350002868FCF7FEF8A9694860A8690021018166
:10536000A86900214181A8690021C160A87C0A28A0
:1053700005D0A87C052802D0A87C042802D1A86901
:105380006168C160A86900210161A86900214161CB
:10539000A8690021816100200600B6B2102E11D24A
:1053A00094F82A00B6B280B2864204D2B6B230195E
:1053B00090F82B0000E00020B6B2A96971180877B8
:1053C000761CEAE700200600B6B2402E07D2B6B23D
:1053D000A8693018002180F82C10761CF4E7002012
:1053E0000600B6B2802E07D2B6B2A86930180021E6
:1053F00080F86C10761CF4E70E48FCF7AAF8A9694F
:10540000C1F8EC000020A88300200600B6B2442EAC
:1054100006D2B6B2A869301880F8F060761CF5E7BD
:10542000002070BDA091012014D300080000FFFFF0
:10543000580100206353826338B50400002C0DD05E
:10544000206A0500002D09D06869002802D068692B
:10545000FCF7DBF9002068610020A86131BD00285D
:1054600019D0818B4A1C828389B282698918FF22F4
:1054700081F8F020818B442903D3017F032211425C
:1054800009D0818B4A1C828389B2826989180022E3
:1054900081F8F020EEE77047704738B50400012529
:1054A000EDB2002D0ED0606A007A002803D02000F3
:1054B00000F077F809E0200000F042F8606A64210B
:1054C000017202E0200000F06CF831BD70B50400FC
:1054D0000D0094F82F0094F8301050EA0120A749ED
:1054E0000818FCF736F8FCF740F80600606A407AC6
:1054F00086194AF6FE1060F31F46A048864201D284
:1055000016F57E469E48864201D3B6F57E463000AB
:10551000FCF71FF8286070BD1FB504000120039040
:10552000606A0290974801909748009014F12B030D
:10553000964A14F12B012000FFF792F904B010BD38
:105540001FB5040001200390606A02908D4801900D
:10555000606A009014F12B038C4A14F12B01200097
:10556000FFF77EF904B010BD30B583B00400656A62
:105570008748FBF7EEFF01900020FBF7EAFF009061
:105580002900200001F090FA01A9200001F0CCFAD6
:1055900000A9200001F0C1FA200001F0DBFA002090
:1055A0003EBD70B50400656A0026200001F0F2FAE5
:1055B000002802D0200001F0E2FA00206060002004
:1055C000A0600020E060002D0FD10A20FEF72EF928
:1055D0000500002D02D15FF0FF301FE00A220021FC
:1055E0002800FEF70BFB65620CE00020287100200C
:1055F000E88000206871042200212800FEF7FEFAEE
:105600000020287229002000FFF760FF687A401C04
:105610006872200000F003F8300040B270BD10B492
:10562000416A01220A7100224A71426A002A02D0AC
:10563000426A527A00E0002290F8303090F82E4012
:10564000240454EA036390F82D4053EA042390F8AD
:105650002F402343D2180A23B2FBF3F403FB142296
:10566000CA804A7A0B2A02DB4FF41672CA8010BC39
:10567000704710B547480468002C7DD0606A002848
:1056800078D0606A007A002804D0606A007A401EF0
:10569000616A0872606A0079012802D002283FD04E
:1056A00068E0606AC088002805D0606AC088401E33
:1056B000616AC88033E0606A4079032809DB606A68
:1056C00002210171606A00214171606A1421C18068
:1056D00025E02000FFF720FF606A4079401C616AE6
:1056E0004871606A002802D0606A407A00E00020B9
:1056F00094F8301094F82E20120452EA016194F8C4
:105700002D2051EA022194F82F20114340180A213C
:10571000B0FBF1F201FB12000A30616AC88029E097
:10572000606AC088002805D0606AC088401E616A2F
:10573000C8801FE0606A4079002803D12000FFF78D
:1057400013FF02E02000FFF7FBFE606A1421C18016
:10575000606A4079401C616A4871606A4079022839
:1057600008DB606A03210171606A00214171606A8F
:105770000021C18024687FE710BD00000001FEA960
:1057800000FFFEA9D4D2000814D30008CCD2000830
:105790000000FFFFA091012030B585B004000D008E
:1057A000606A002859D0606A0079002855D094F8C2
:1057B0002B008DF8000094F82C008DF8010094F86F
:1057C0002D008DF8020094F82E008DF8030094F857
:1057D0002F008DF8040094F830008DF805000422A5
:1057E00015F10E0102A8FEF703FA042215F11801C3
:1057F00003A8FEF7FDF9606A0079012807D0606A06
:105800000079022819D1606A4079002815D10298E0
:10581000616A096888420CD00398616A0968884205
:105820001BD1062215F1080100A801F07DFD00281A
:1058300013D02000FFF7B5FE0FE00298616A0968F7
:1058400088420AD1062215F1080100A801F06CFD7A
:10585000002802D02000FFF720FE05B030BD7047C1
:1058600080B5FFF7FCFFFEF757F9FDF7D3FEFCF715
:105870002DFFFFF711FE01BD70B504000D002600DD
:1058800001F018F8F06B316C326801FB0020706099
:105890000020B0633068B060F06B401E316C32683D
:1058A00001FB0020F0605FF0FF3070645FF0FF30BC
:1058B000B064002D0BD13069002810D016F1100013
:1058C00000F095FD01280AD100F0EBFF07E016F18A
:1058D000100001F05AFD16F1240001F056FD00F011
:1058E000F6FF012070BD2DE9F84304000D001600FD
:1058F0005FF00009002C1DD0502001F09BFD070037
:10590000002F17D005FB04F0401C8046404601F0F4
:1059100091FD38603868002809D0FC633D6401219E
:105920003800FFF7A9FF87F84D60B94602E038005C
:1059300001F0E0FD4846BDE8F28370B504000D00BB
:10594000022200212000FFF7CEFF0600002E00D02B
:10595000B563300070BD2DE9F44183B004000D0043
:105960001E000027A04600F0A5FFD8F83800D8F8A0
:105970003C10884214D232002900404600F04BF916
:10598000D8F82400002807D018F1240000F02FFDDB
:10599000012801D100F085FF00F099FF01204CE0C3
:1059A0000398002803D100F092FF002045E0002F6B
:1059B00004D100A800F053FD0120070000F087FF8C
:1059C00000F013FB00F076FFD8F8440010F1010F4F
:1059D00002D10020C8F84400D8F8480010F1010FA7
:1059E00002D10020C8F8480000F071FF03A900A808
:1059F00000F03EFD002819D1404600F0A0F9002833
:105A00000ED0039918F1100000F0ADFC404600F0F4
:105A100051F900F0F2FA0028A5D100F042FFA2E708
:105A2000404600F047F900F0E8FA9CE7404600F0F5
:105A300041F900F0E2FA0100002004B0BDE8F08175
:105A40002DE9F04704000D0016001F00A24601F0EA
:105A5000B2FD8146DAF83800DAF83C10884220D2EC
:105A60003A002900504600F0D6F8DAF8480010F164
:105A7000010F0ED1DAF8240000280FD01AF124000B
:105A800000F0B5FC002809D0002E07D001203060BE
:105A900004E0DAF84800401CCAF8480001208046BB
:105AA00001E000208046484601F08CFD4046BDE8FC
:105AB000F0872DE9F74304000D001E000027A146E2
:105AC00000F0F8FED9F83800002834D0D9F80C00DE
:105AD00080462900484600F0D7F8002E19D1D9F8A1
