:020000040800F2
:1000000060120120BD400008BD3F0008BF3F00084E
:10001000C13F0008C33F0008C53F000800000000C2
:10002000000000000000000000000000C73F0008C2
:10003000C93F000800000000CB3F0008CD3F00088A
:10004000FD40000801410008054100080941000881
:100050000D41000811410008154100081941000830
:100060001D410008DF3F0008254100082941000824
:100070002D41000831410008354100083941000890
:100080003D41000841410008454100084941000840
:100090004D410008514100085541000859410008F0
:1000A0005D410008614100086541000869410008A0
:1000B0006D410008D73F000875410008E93F00087E
:1000C000EB3F000881410008854100088941000894
:1000D0008D410008E13F0008954100089941000862
:1000E0009D410008A1410008A5410008A941000860
:1000F000AD410008B1410008B5410008B941000810
:10010000BD410008D53F0008C5410008C9410008AD
:10011000CD410008D1410008D5410008D94100086F
:10012000DD410008E1410008E5410008E94100081F
:10013000ED410008F1410008F5410008F9410008CF
:10014000FD4100080142000805420008094200087C
:100150000D4200081142000815420008194200082B
:100160001D420008214200082542000829420008DB
:100170002D4200083142000835420008394200088B
:100180003D4200082DE9F04F80460FF21860A5B0FF
:1001900017461D46D0E90023CDE912230020049123
:1001A0000D900DF1500A6FF0004900E0E7190020B2
:1001B000ADF8020012AB4FF0FF3239460DF10200EC
:1001C00001F087F80446012C04DA3878441EA44173
:1001D000E043C40FBDF8020025280CBFA4F1010BB9
:1001E000A346BBF1010F0EDB3E4616F8011B049837
:1001F000C0470490002800F0CF820D98401C0D905D
:10020000BBF1010BF1D1BDF80200252807D1002078
:100210000790089009900A900B900C9005E0002838
:10022000C4D10D98BAE240F0010017F8011F20294F
:10023000F9D023290DD02B2904D02D2906D030291F
:100240000AD00CE040F0020080B2EEE740F004007B
:10025000FAE740F00800F7E740F01000F4E72A2939
:100260000ED12968296051F8042B29600F92002AC9
:1002700004D5514240F004000F9180B27F1C11E080
:1002800000210F9109E00F99494505D001EB810349
:1002900002EB430130390F917F1C3A78A2F1300113
:1002A0000A29F0D339782E2903D04FF0FF310E916F
:1002B0001DE017F8011F2A2907D1296829607F1C32
:1002C00051F8042B29600E9211E000210E9109E0F3
:1002D0000E99494505D001EB810302EB430130390A
:1002E0000E917F1C3A78A2F130010A29F0D3ADF8C3
:1002F00040000FF2B840397801F00CF808B117F857
:10030000010B8DF842009DF84200682802BF397841
:100310006829622005D06C2804BF38786C2803D186
:1003200071208DF842007F1C14A8069017F8014B2D
:10033000B4F125002AD01C3800F0CC80001F022820
:1003400040F2C880133800F0EE80093800F0C28017
:10035000801E00F04F81401E00F02481401E0228C4
:1003600040F2B880001F00F01D81401F00F0838024
:10037000401E00F0D880401E2DD0C01E0CD0801E24
:1003800000F0D180C01E00F0CE8056E10120079021
:1003900025208DF850005BE19DF842006C2828680C
:1003A000286014D050F8046B286005960E9C002C31
:1003B00004D5304600F0BAFF044606E0224600218C
:1003C000304600F0CFFF00B1841B089440E150F8A4
:1003D000042B28602AE13C242968296051F8040B89
:1003E00029600021CDE9020114A80590DDE9020190
:1003F000069E11B908B90E9AB2B10206120FA0EB0F
:1004000002123032631ED2B21C463A2AA8BF2732EB
:1004100000099A5540EA0170090908BF002803D075
:10042000059AA3199A42E8D3A0190590C4F13C019A
:100430000E980891814209DA401A0A904FF6EF713E
:10044000BDF840000840ADF8400001E1002840F14F
:10045000FF809DF8400000F01400102840F0F88064
:100460000F98079A801A0A9A801A401A0128C0F237
:10047000EF800A90ECE09DF8420062281AD06828CC
:1004800006D06A280CD06C281CD0712808D019E03E
:100490002868286050F8041B28600D980880D7E071
:1004A0002868286050F8042B28600D98C117C2E90D
:1004B0000001CDE02868286050F8041B28600D98E2
:1004C0000870C5E02868286050F8041B28600D9863
:1004D0000860BDE02868C01D20F007022A60D2E94C
:1004E000000108322A60CDE90201002903D501206C
:1004F00007902D200CE0BDF84000810703D50120B6
:1005000007902B2004E0C00704D50120079020208D
:100510008DF85000079914A808180590214602A8E4
:1005200000F08CFB94E09DF842206C2A0DD0712ADB
:1005300018BF6A2A09D12868C01D20F007032B6064
:10054000D3E9000108332B6005E02968296051F8E0
:10055000040B29600021CDE90201682A08BF80B29E
:1005600007D0622A08BFC0B203D0742A18BF7A2A03
:1005700002D10021CDE902019DF84000000730D5ED
:10058000DDE90201002908BF00282AD044F020003C
:10059000782826D130208DF850008AF801400220BA
:1005A00007901EE029469DF8420000F003F9CDE9CE
:1005B0000201002904DA0798411C07912D210EE061
:1005C000BDF84000810704D50798411C07912B21F5
:1005D00005E0C00705D50798411C0791202100F8C8
:1005E0000A10079914A808180590214602A800F0DF
:1005F000A1FA2DE09DF842006C2809D00120079057
:100600002868286050F8041B28608DF850101FE0FF
:1006100001AA2868286050F8041B2860ADF804106F
:100620000020ADF806004FF0FF300E9002A94046C2
:1006300000F0F7F800280BD5AEE001200790252048
:100640008DF8500024B10798411C079100F80A402A
:100650000F980799401A0A99401A0899401A0B995D
:10066000401A0999401A0C99441A9DF84000400715
:1006700010D420208DF80000002609E0012300AAF4
:1006800002A9404600F001FE002840F08580761C5B
:10069000A642F3DB079E0DF1500B0AE01BF8011B8D
:1006A0000498C0470490002876D00D98401C0D9007
:1006B000761E002EF2D130208DF800004FF0000B96
:1006C0000A9E09E0012300AA02A9404600F0DDFDD0
:1006D000002861D10BF1010BB345F3DB089EDDF877
:1006E00014B00AE01BF8011B0498C04704900028CE
:1006F00052D00D98401C0D90761E002EF2D1302065
:100700008DF800004FF0000B0B9E09E0012300AABA
:1007100002A9404600F0B9FD00283DD10BF1010BC4
:10072000B345F3DB05980899099E01EB000B09E03E
:100730001BF8011B0498C047049068B30D98401C37
:100740000D90761E002EF3D130208DF800004FF072
:10075000000B0C9E08E0012300AA02A9404600F00D
:1007600094FDC8B90BF1010BB345F4DB9DF84000D3
:1007700040077FF51CAD20208DF80000002600E02A
:10078000761CA642BFF613AD012300AA02A940467B
:1007900000F07BFD0028F3D04FF0FF3025B0BDE81E
:1007A000F08F00000000000000000000686A6C7418
:1007B0007A4C0000622826D068281DD06A2808D00C
:1007C0006C2827D0712804D0742823D07A280CD024
:1007D00020E00868C01D20F007000860D0E9002371
:1007E000083008601946104670470A680A6052F8D7
:1007F000040B0A60002170470A680A6052F8040B73
:100800000A6000B20BE00A680A6052F8040B0A6042
:1008100040B204E00A680A6052F8040B0A60C1178B
:1008200070472DE9F44F0D4694B0D5F830B08046AE
:10083000BBF1000F48BF6FF0004B00F0BFFD696BCC
:10084000401801900FF67020D0E90023CDE9022373
:1008500095F83800400702D40198412806D240207C
:100860000DF1100A01904FF0000909E000F0ACFD15
:100870005FEA000AF7D14FF0FF3058E1ABEB040B11
:10088000BBF1010FC0F2CD801498018802AA0DF1CE
:10089000010000F0F1FD0446002800F1D580149815
:1008A000008810B9641E00F1CF80A345C0F2B98062
:1008B000686901992218914280F0A180C5F83490AE
:1008C0004042296A401AA969401A696A401AE969CE
:1008D000401AA96AA0EB010995F83800400710D426
:1008E00020208DF80000002609E0012300AA2946F7
:1008F000404600F0CAFC002840F0A680761C4E4519
:10090000F3DB6E6957460BE017F8011BA868C04778
:10091000A860002800F09880E86A401CE862761E13
:10092000002EF1D130208DF8000000272E6A09E05A
:10093000012300AA2946404600F0A7FC002840F009
:1009400083807F1CB742F3DBAE69EF680AE017F8DB
:10095000011BA868C047A860002875D0E86A401C41
:10096000E862761E002EF2D130208DF800000027BC
:100970006E6A08E0012300AA2946404600F085FC83
:10098000002861D17F1CB742F4DBE868A969EE69F1
:100990000F180AE017F8011BA868C047A8600028D4
:1009A00052D0E86A401CE862761E002EF2D1302058
:1009B0008DF800000027AE6A08E0012300AA29464E
:1009C000404600F062FC00283ED17F1CB742F4DBB9
:1009D00095F8380040070ED520208DF8000000263D
:1009E00007E0012300AA2946404600F04EFC58BB10
:1009F000761C4E45F5DB4FF00009C5F814902246F1
:100A000068690DF10101504400F044FD6869201847
:100A100068611498801C1490801E008800287FF460
:100A20002DAF686B6969401A296A401AA969401A92
:100A3000696A401AE969401AA96A471A95F83800A4
:100A4000400710D400240CE04FF0FF3968E0A8689C
:100A50002021C047A8600028F6D0E86A401CE86260
:100A6000641CBC42F3DB6B6952462946404600F0E9
:100A70000CFC0028E8D12C6A002609E0A868302187
:100A8000C047A8600028DFD0E86A401CE862761CF6
:100A9000A642F3DBAB69EA682946404600F0F5FB65
:100AA0000028D1D16C6A002609E0A8683021C0472F
:100AB000A8600028C8D0E86A401CE862761CA642FC
:100AC000F3DBE868A969EB690A182946404600F09B
:100AD000DCFB0028B8D1AC6A002609E0A868302108
:100AE000C047A8600028AFD0E86A401CE862761CC6
:100AF000A642F3DB95F8380040070DD5002409E045
:100B0000A8682021C047A86000289DD0E86A401C42
:100B1000E862641CBC42F3DBC5F81490C5F834905D
:100B200004A882451CBF504600F0F0FC484615B0B2
:100B3000BDE8F08F2DE9FA4E05460A462F696F2A67
:100B400008BF082405D041F02000782814BF0A24EB
:100B50001024D5E900013C2681468A46642A18BF44
:100B6000692A05D1002903DAD9F100096AEB4A0A9A
:100B7000BAF1000F08BFB9F1000F0CD1286B50B9C2
:100B8000082C36D195F83800000732D530203B26A6
:100B900087F83B002DE0E31748465146224600F017
:100BA000F5FCA4FB0023A9EB02023032A6F1010BF5
:100BB000D2B25E463A2A03DB9DF80030513B9A18C8
:100BC0000BF8072081465FEA010A08BFB9F1000F60
:100BD00003D0E868F1198842DDD3082C09D195F8D3
:100BE0003800000705D5F05D302802D0761E302091
:100BF000F055C6F13C00A861F119E960296B884203
:100C000008DA081A28624FF6EF71288F0840288703
:100C1000BDE8F38E00290ED595F8381001F01401C7
:100C2000102908D1696B6A69891A2A6A891A081A0F
:100C30000128A8BF2862BDE8F38E00002DE9F24F1D
:100C400004468EB0D4E90001CDE9020104AF9DF85D
:100C5000380040F0200BBBF1610F0AD0206B002858
:100C600048BF062004D408BFBBF1670F01D10120A3
:100C700020636168C1F30A5040F2FF7290421CD1B8
:100C8000080304BF2068002809D10320A0619DF853
:100C9000380061381A2836D30FF2306108E003209B
:100CA000A0619DF8380061381A2829D30FF2146129
:100CB000E068032200F0EEFBBEE1012816DA2046D0
:100CC00000F0DBFC012811DB00250020BBF1610FE7
:100CD00020D1E168302201F8012B4A1CE2609DF826
:100CE0003820612A0CBF782258220FE0626840F257
:100CF000FE3161F31E52451A62604FF0FF30E5E7A6
:100D00000FF2BC51D4E70FF2C051D1E70A7061690C
:100D1000891C616110B90026002584E1BBF1610FD7
:100D200040F09780206B00284CBF2126461CDDE94F
:100D30000201D4E900AB0022002336B200F0BEFC71
:100D400006F101083ABF8BF00040CDE902A0CDE9E1
:100D500002AB2D1F8DF810200DF1110700E0C71D0B
:100D6000B8F1010F33DBDDE902010022002300F0BE
:100D7000BDFC2CD21C2102A800F0D0FCDDE9020150
:100D800000F052FDA8F107088146B8F1010F09DB18
:100D900000F076FD02460B46DDE9020100F088FD19
:100DA000CDE90201F81D072105E009F00F0200F866
:100DB000012D4FEA2919B9F1010F01DB491EF4D5C4
:100DC000491E5CBF002200F8012DF9D5C7E70DF1DF
:100DD0001100391A0DF11107B142B8BF0E4636B2F3
:100DE00030002FD4884206DA04A94118497808292E
:100DF000A8BF0F2100DA002104AA821800E0761EA5
:100E000012F80139401E8B42F9D00F2904D104A9F0
:100E100041184A78521C4A70002802D504AF761C4B
:100E20002D1D36B2701E0DD4C1190A783032D2B2DF
:100E30003A2A03DB9DF838303A3B9A1801F8012929
:100E4000401EF2D5206B002840F1ED80701E20631B
:100E5000E9E0DDE902010022002300F02FFC3CBFA5
:100E600081F00041CDE902012DB247F2975068436D
:100E70004B49DFF8309190FBF1F52DB2C5F1070A2F
:100E80009046BAF1010F1CDBDDE902675FEACA7028
:100E900007D542464B463046394600F0C9FD064666
:100EA0000F464FEA6A0A4046494642464B4600F022
:100EB000BFFD80468946BAF1000FE7D1CDE9026750
:100EC00024E0CAF1000A0026374F14E05FEACA7036
:100ED00007D542464B463046394600F0A9FD064646
:100EE0000F464FEA6A0A4046494642464B4600F0E2
:100EF0009FFD80468946BAF1000FE7D1DDE9020186
:100F000032463B4600F066FECDE90201BBF1660FBA
:100F10000CBF05F10A000620216B4618142EA8BF4D
:100F2000132630208DF810000DF11107DFF87C90AA
:100F3000012E3DDBDDE9020100F08CFC07F1080128
:100F400004220A23B0FBF3F303EB8307A0EB470073
:100F5000303001F8010D0A20B3FBF0F000EB800700
:100F6000A3EB4703303301F8013D521EE9D1083E9F
:100F700001F10807012EDBDBDDE9020100F06AFC6C
:100F800000F088FC02460B46DDE9020100F090FC0F
:100F900000224B4600F04CFDCDE90201CAE700BF3C
:100FA000A0860100000024400000F03F84D7974154
:100FB0000DF11100381A0DF1110702E0401E6D1EEF
:100FC0007F1C39783029F9D0BBF1660F02D12DB2E0
:100FD000691C04E0BBF1650F0CBF01210021226BED
:100FE0008E1836B2B042B8BF064636B231001AD4B7
:100FF000814204DAC85D3528A8BF392000DA3020E4
:10100000CA19521E00E0761E12F80139491E8342A9
:10101000F9D0392802D1C85D401CC855002902D535
:101020007F1E761C6D1C2DB29DF83810009533B2D2
:101030003A46204600F003F80FB0BDE8F08F2DE9E6
:10104000F04786B006468A4690461D4600F003FFEC
:10105000406A376B90F80090012D02DA01250FF2FB
:1010600070284AF02000BDF93840662808BF641C8B
:1010700012D0672876D114F1040F79DBBC4277DAFD
:1010800096F83800641C000702D4BD42B8BF2F4652
:1010900024B23F1B48BF0027F068B16924B2012C7D
:1010A00021DA30234A1C0B54012F03DA96F838104A
:1010B000090702D502F80090521CB261E742B8BF9E
:1010C0007C4224B26142E7197162AF42B8BF3D462B
:1010D0002DB2F5612A46B3694146181800F0DAF9D5
:1010E000781BB062BAE00818A54216DA2A464146D3
:1010F00000F0D0F9B1696918B161601B7062012F0D
:1011000003DA96F83800000705D5F06801F800907A
:10111000F069401CF061B762A0E02246414600F051
:10112000B9F9B06920182D1B012F03DA96F8381091
:10113000090703D5F16800F80190401C2DB2B06199
:10114000AF42B8BF3D46F068B3692DB22A4604EB02
:101150000801181800F09EF9B0692818B061781BD2
:1011600070627BE0BAF1610F14D14FF0700A16E0A3
:10117000BD4204DA96F83810090758BF2F467F1E83
:1011800048BF0027BAF1670F14BF4FF0450A4FF070
:10119000650A04E0BAF1410F08BF4FF0500AB16987
:1011A000F06818F8013B0B544A1C012F05DA96F839
:1011B0003810090758BFB26115D502F80090531CCA
:1011C000B361012F0FDB6D1E2DB2AF42B8BF3D469C
:1011D0002DB22A464146181800F05CF9B06928186B
:1011E000B061781B7062F068B16901EB0008200003
:1011F00008F801AB03D42B2008F8010B03E02D21E4
:1012000008F8011B6442002502AF08E00A2200A88A
:1012100000F03AFE019807F8010B6D1C009C21B20A
:101220000129F3DA022D06DA4AF02000652804BF0E
:10123000302008F8010B4DB9302008F8010B07E009
:101240006D1E02A8285C303008F8010B012DF7DA7A
:10125000F068B1690818A8EB0000F06196F8380052
:1012600000F0140010280DD17069B1690818716A76
:101270000818F1690818B16A0818716B8842BCBF78
:10128000081A306206B0BDE8F087F8B504460D468E
:1012900016461F46002004E0E86A401CE8627F1EF4
:1012A000002047B116F8011BA868A047A8600028D5
:1012B000F2D14FF0FF30F2BD00000000000000004E
:1012C0006E616E004E414E00696E6600494E4600EA
:1012D0003000F8B504460D4616461F4600F0DCFD0A
:1012E0003B4632462946204601B0BDE8F04000F0BA
:1012F000EABD50F8041B61B150F8042BD30744BF7A
:10130000A9F101039A18002342F8043B091FFAD1FE
:10131000EFE770470278C9B28A421AB11CBF10F8D1
:10132000012FF9E718BF00207047000000F101030A
:10133000810704D010F8011B89B18107FAD1026836
:10134000B2F10131914311F0803F04BF50F8042FF6
:10135000F6E710F8011B11B110F8011BFBE7C01AEA
:1013600070470000C9B2830706D0521E22D310F87E
:10137000013B9942F7D11FE0083A13D302F104026E
:1013800041EA012141EA014150F8043B121F21BF0B
:101390004B40A3F1013C2CEA030C1CF0803FF3D03E
:1013A000C9B2001F083210F8013B521E28BF91EA53
:1013B000030FF8D818BF0120401E704780B500F019
:1013C0006BFD012002BD000070B5054605F10F0060
:1013D000C408E400C046C046A54232D2082C04D25C
:1013E000082402E0083000F091F822480268110059
:1013F0000CD1011D0A6802B31368A34238BF111D46
:10140000F8D310E01D68A5420DD2191D0B68002B02
:10141000F8D11268011D00E0191D0B6893420CD031
:101420001D68A542F8D361B10D682A68A2F10803CE
:10143000A3420AD26A680A600FE000F067FD002844
:10144000D0D1C046C046002070BD63190B60121B8E
:101450006E685E600B681A602C60096800291DBF09
:101460004A68002A091D00210160C046C04605F1F6
:10147000080070BD3802012070B504460D461646BE
:1014800000F00AFD324629462046BDE8704000F0D3
:101490000DBD000062B38B0708D0521E11F8013B4E
:1014A00000F8013B00F024808B07F6D1830740F061
:1014B000208000BF103A07D330B4B1E83810103A9A
:1014C000A0E83810F9D230BC530724BFB1E80810A7
:1014D000A0E8081044BF51F8043B40F8043BD20791
:1014E00024BF31F8022B20F8022B44BF0B78037085
:1014F0007047083A07D3B1E80810083A40F8043BAF
:1015000040F804CBF7D25307E4E7000000B9704776
:1015100038B5A0F108042068082833D310F0070F6D
:1015200030D1C046C0461848416809B18C4203D248
:101530006160446017E019464B680BB1A342FAD3CF
:101540000B685D18AC421BD3A54204D12268D218A7
:101550000A600C4607E04A681AB123681B199A42D0
:101560000ED362604C60616851B1226813198B42DE
:1015700006D1002303600868801820604868606016
:10158000C046C04631BD0000380201201B4213D1C5
:10159000094236D12AB18446B0FBF2F002FB10C2F8
:1015A000704700F0C9BCFCD30022002370470B0039
:1015B0000200002100207047904271EB030CF6D32B
:1015C00070B5B1FA81F4B3FA83F52C1BA340C4F1D2
:1015D000200532FA05F63343A2405FF00046E640AC
:1015E00002E05B085FEA3202841A71EB030524BF54
:1015F000204629467641F4D302000B00300000213A
:1016000070BD012ACFD970B5140C20D0B1FA81F485
:10161000B2FA82F5C4F120046419B4F12006D6D3DD
:10162000B2405FF00044F440002502E052085FEA57
:101630003303C61A71EB020E24BF30467146644173
:101640006D41F3D302000B002000290070BD0C4651
:10165000B1FBF2F102FB11452D0445EA1045B5FB43
:10166000F2F402FB145580B240EA0545B5FBF2F0F6
:1016700002FB105240EA044070BD30B4436803F0EE
:10168000004201211B031B0B436004BF0368002BB6
:1016900008D10DE00368DD0F45EA440444605B00B7
:1016A0000360491E4468E302F4D523031B0B436027
:1016B00043681A434260084630BC70474FF4001C30
:1016C0001CEB410F94BF1CEB430F09E041EA030CF4
:1016D00050EA4C0C52EA0C0C03D2994208BF9042DB
:1016E000704714BF8B428242704700004FF4001CC9
:1016F0001CEB410F94BF1CEB430F09E041EA030CC4
:1017000050EA4C0C52EA0C0C03D28B4208BF8242C6
:10171000704714BF994290427047000070B504466C
:101720000D466068C0F30A5040F2FF71884207D14D
:101730006068000304BF2068002817D0022070BD35
:1017400020B92046FFF799FF012867DA012D0FDB4A
:1017500040F2FF71091A8D420AD36068002847BF22
:1017600000202F4900202F49C4E90001012070BD4D
:101770004142A942616806DA6FF31E51401941EAFD
:101780000050606041E0401E63680122451962F329
:101790001F5305F1350001F000416360352803D384
:1017A00061600020206070BD002215F11F0F04DA77
:1017B00022682360002020356060684213D0521EEA
:1017C00025689241C0F12003D2439D4045EAD27280
:1017D00025686668C54006FA03F32B4323606368F7
:1017E00023FA00F06060606808436060B2F1004F67
:1017F00003D80DD12078C0070AD52068401C20608E
:10180000206828B96068401C60604FF0FF3070BDF0
:101810006068884204BF20680028F6D1002070BDAF
:101820000000F0FF0000F07FF446400D40EAC120C8
:10183000490006D200F014F8004248BF6FF00040A3
:10184000604700F00DF84FF0004188428CBF084619
:1018500040426047400D40EAC120490080F00D80C1
:1018600040F00040490DA1F58061491C05D4D1F13B
:101870001F0154BFC840C01770474FF000007047A9
:10188000010040F10980F446404200F005F851F0B3
:1018900000416047010000BF09D0B0FA80F18840E4
:1018A000C91CC1F58461090501EBD02140057047D1
:1018B00070B44FF0004591EA030F44BF6B4000F055
:1018C0003DBB00BF841A71EB030604D26E40001BBF
:1018D000B141121973414FF4001C1CEB410F34BF8E
:1018E0007CEB430684E00C0DA4EB1356362E7DDC16
:1018F000012E43DC45EAC32343EA525312BFD2020E
:1019000092025B08240545EAC12141EA5051D2EB1D
:10191000C020994125D407D1B0FA80F610FA06F11B
:1019200064D00020203608E0B1FA81F6B140C6F15B
:10193000200220FA02F21143B0404FEAF474B4EBF3
:10194000465434F001064FEA74040AD8D6F500165E
:10195000760D04F00044F04061FA06F25040F14088
:101960004840C00A40EA415021F0004128BF5FEAE8
:10197000500550F1000044EBD12137E045EAC32384
:10198000DB0A45EAC121C90AB6F120050EDD42EAAB
:101990000242120CC5F1200603FA06F6EB4042EAB9
:1019A00006056D42984161F100010DE062FA06F50D
:1019B000F240554063FA06FC82EA0C02F3405A40BA
:1019C0006D42904161EB030111F4801F05D1641E4B
:1019D000620502D06D004041494121F48011430865
:1019E00075F1004350F1000041EB045170BC7047A9
:1019F0001CEB410F15D223F0004352EA43060BD0F3
:101A00004FEA4C0CBCEB410F04D80C0D661E342E73
:101A1000B7DDEBE7801A994150EA410608BF002183
:101A2000E4E708BF1CEB430F28BF6FF00001DDE7C0
:101A3000B0B581EA030C0CF0004C40F2FF7515EADA
:101A400011541DBF15EA1357AC42AF4239E0E419F7
:101A500023EA455343F48013C90241F0004141EAAF
:101A6000505EC7021100A7FB020200284FF00000E1
:101A7000EEFB01204FF00001E3FB072118BF42F00D
:101A80000102401800214941E3FB0E01A4F58064E6
:101A90000F0302D252004041494154F101046CDD70
:101AA000470872F1004250F1000051EB0451A1F5DA
:101AB00080115CBF41EA0C01B0BD4CEA0551002029
:101AC000B0BD05EA1357AC4214BFAF4241E050EA43
:101AD000410E1CBF52EA430E02E061460020B0BD39
:101AE00024423C441BD15FEA070EF6D0090302BF33
:101AF00001460020AEF1140EB1FA81F7AEEB0704F7
:101B000001FA07FE0C37C7F1200100FA07F7C840B9
:101B10004EEA000E23EA455343F48013A2E733F064
:101B20000043B3FA83F704BFB2FA82FE77440B3F57
:101B3000E41BB7F1200E2FBF02FA0EF3BB40C7F132
:101B4000200E22FA0EFE38BF43EA0E03BA40641C90
:101B500082E750EA410E14BF52EA430E6FF00001D3
:101B60004FF4001717EB430F8ABF194617EB410FCD
:101B7000B5E74CEA05510020B0BDD4F10104B4F141
:101B800020070FDAC4F12007520828BF42F00102F3
:101B900010FA07F501FA07F7E1BF2A43E04038439E
:101BA000E1400FE0352C98DCC7F1200452EA4002F6
:101BB00020FA07F218BF42F0010231FA07F0A14003
:101BC0000A43002172F1004250F1000051EB0C0178
:101BD000B0BD0000F0B540F2FF7581EA030C0CF0D7
:101BE000004C15EA11541DBF15EA1357AC42AF4221
:101BF000E5E0BC41C1F31301C3F31303801A99411B
:101C000043F4801304D2641E4000494180185941B6
:101C1000C90241EA5051B1FBF3F603FB1611A2FBD6
:101C20000675D7EBC020A94102D2761E8018594113
:101C3000C90241EA5051B1FBF3FE03FB1E11A2FBA6
:101C40000E75D7EBC020A94103D2AEF1010E80186A
:101C50005941890241EA9051760546EA8E2EB1FB40
:101C6000F3F603FB1611A2FB0675D7EB8020A94102
:101C700002D2761E80185941C90241EA50514EEAFB
:101C8000060EB1FBF3F603FB1611A2FB0675D7EBAC
:101C9000C020A94102D2761E80185941C90241EAEA
:101CA0005051B1FBF3F703FB1711A2FB0735D3EB40
:101CB000C020A94167F100070CBF004247F00107AF
:101CC00066F3D5274FEA1E31B80814F5806412DD9B
:101CD000BD0775F1004250EB0E5051EB045111F568
:101CE000801F5CBF41EA0C01F0BD4CF07F6141F008
:101CF000E0410020F0BDBD076D0840EA0E5041F400
:101D00008011D4F10104B4F120060ADAC4F12006EE
:101D10000200E04001FA06F3E1401843B2401543E7
:101D20000EE0342C13DCC6F1200445EA40056D08B2
:101D300020FA06F2154321FA06F0A1400D430021D6
:101D400075F1004250F1000051EB0C01F0BD002094
:101D50005FEA0C01F0BDCFB992185B41B3FA83F78B
:101D600004BFB2FA82F6BF190B3FB7F120062FBFAE
:101D700002FA06F3BB40C7F1200622FA06F638BF86
:101D80003343BA401CB1E419641E33E77F4231F09B
:101D90000041B1FA81F404BFB0FA80F6A4190B3CFB
:101DA000B4F120062FBF00FA06F1A140C4F12006CD
:101DB00020FA06F638BF3143A0403C1B1AE7AC427C
:101DC0001ABF05EA1357AF4212E050EA41061CBFA2
:101DD00052EA4306BFE750EA4107304661461CBF5E
:101DE00041EA0551F0BD52EA430C08BFC143F0BDC2
:101DF00000204FF4001616EB410F98BF16EB430F6F
:101E000008BF16EB410F24BFC14305E016EB430F9B
:101E10000CBF61464CEA0551F0BD000080B5134887
:101E200000F0F6F80FF24801016041608160C16086
:101E30000161416181610FF23C0242628162C162D3
:101E4000016341630FF2300282630FF23402C26316
:101E50000164416401BD10B5044800F0D9F804469E
:101E6000206808B9FFF7DAFF204610BD0000002007
:101E7000000000002E00000066616C736500000029
:101E8000747275650000000091FBF2F303FB121100
:101E9000C0E900317047000080B5DFF80C0000F0A9
:101EA000B7F8806902BD00009000002030B430B95E
:101EB0000FF24800D0E90045C2E900451BE001707F
:101EC000012030BC704730B431B90FF23800D0E98E
:101ED0000045C3E900450EE01AB930BC6FF00100BF
:101EE000704708B10A7802800978481E804130BCEA
:101EF000C043C00F7047002030BC70470000000096
:101F00000000000000000000000000000749086811
:101F100008B1002070470648C008C00008600549A5
:101F2000C908C900091A0160704700BF50020120AA
:101F3000671201206022012070470000841A71EBB3
:101F4000030603D2001BB141121973414FF4001C68
:101F50001CEB410F34BF7CEB430443E00C0DA4EBBE
:101F60001356352E50DC45EAC323DB0A45EAC1216E
:101F7000C912B6F120050DDD63FA05F6EB4086EADD
:101F80000305124218BF45F00105C01851F10001C8
:101F90000CD213E062FA06F5F2405540F3415A4084
:101FA000B340F3405A408018594107D349085FEACB
:101FB00030005FEA350528BF45F0010501F58011C5
:101FC000420875F1004250F1000041EB045170BC31
:101FD0004FF4001C1CEB410F38BF70470020090D67
:101FE000090570471CEB410F10D252EA43060BD093
:101FF000BCEB410F05D80C0DAB43661E342EB5DD8E
:1020000002E0AB438018594170BC704770BC704708
:102010007047000001000020087000204870002078
:102020004860002088600020C873002008730120E9
:102030004873012088730020486100200883002035
:102040000861002070477047C01D082190FBF1F027
:1020500000B2704710B50400210009B2012000F061
:102060006AFE0021002000F066FE0121002000F041
:1020700062FE10BDF8B504000D0000200600EDB2B0
:10208000002D13D10120FFF7E5FF00200700052FE9
:1020900009DA0021002000F04EFE0121002000F0AE
:1020A0004AFE7F1CF3E70020207001E12078EDB2AA
:1020B00085420ED0EDB2072D02D12078062805D139
:1020C000EDB20E2D05D120780D2802D00520060096
:1020D000EEE02078EDB2854210D1EDB2062D05D1AB
:1020E0000120FFF7B7FF0720207007E0EDB20D2DAC
:1020F00004D10120FFF7AEFF0E2020702078EDB252
:10210000854200F0D580207800281CD0022826D0F7
:102110001FD3042841D031D3062853D043D30828F5
:1021200065D055D30A2877D070D30C2800F0898069
:10213000C0F081800E2800F09980C0F091800F28B7
:1021400000F0A380B0E00020FFF784FF01202070A2
:10215000D4E70120FFF77EFF02202070CEE7EDB22A
:10216000092D05DB0120FFF775FF0920207004E031
:102170000020FFF76FFF03202070BFE7EDB2042DB2
:1021800005D10020FFF766FF0420207004E0012045
:10219000FFF760FF05202070B0E70120FFF75AFF2E
:1021A00005202070AAE7EDB2062D05D10020FFF72B
:1021B00051FF0620207004E00120FFF74BFF0820AC
:1021C00020709BE70120FFF745FF0720207095E76F
:1021D000EDB2042D05D10020FFF73CFF0420207054
:1021E00004E00120FFF736FF0820207086E7EDB2FB
:1021F000012D05D10020FFF72DFF0120207004E004
:102200000120FFF727FF0220207077E70020FFF76B
:1022100021FF0A20207071E7EDB20B2D05D10020BF
:10222000FFF718FF0B20207004E00120FFF712FFDA
:102230000C20207062E70120FFF70CFF0C202070BB
:102240005CE7EDB20D2D05D10020FFF703FF0D2057
:10225000207004E00120FFF7FDFE0F2020704DE705
:102260000120FFF7F7FE0E20207047E7EDB20B2D9F
:1022700005D10020FFF7EEFE0B20207004E00120C6
:10228000FFF7E8FE0F20207038E7EDB2012D05D1F1
:102290000020FFF7DFFE0120207004E00120FFF79F
:1022A000D9FE0220207029E705200600257025E7C9
:1022B0003000F2BD2DE9F44F82B082460C001D00C3
:1022C000002006000298002808D020880299088083
:1022D0000298B4F900100818801C0600B4F9000038
:1022E0000019801C8146BAF1000F40D0B9F10109F4
:1022F00099F8000083460020070000208046BAF1CC
:10230000000F2FD0B8F1080F2CDABAF1010A002D16
:1023100006D0BAF1000F03D10121012000F00BFD1E
:102320005FFA8BFB1BF0010109B2022000F003FDF4
:102330005FFA8BFB5FEA5B0B0021002000F0FBFCE7
:10234000002E08D000F063FD8DF800009DF800001D
:1023500010FA08F007430121002000F0ECFC18F10E
:102360000108CCE7002EBED0761E3770BBE7BDE873
:10237000F78F2DE9FE4F82B005000E9E0F9FDDF80E
:1023800048A0139C00200090002081460020834636
:102390009DF808009DF84410884202D05FF00108C3
:1023A00001E05FF00008039800280AD1BAF1000F9D
:1023B00055D001212800FFF75DFE504600F037FDA3
:1023C0004DE09DF808102800FFF754FE4346320008
:1023D00004990398FFF76EFF002F0BD0109A31007D
:1023E000380000F071FD002802D15FF0010901E022
:1023F0005FF00009B8F1000F27D02878401C287042
:10240000B9F1000F12D0BAF1000F0FD05FFA8BFBB9
:10241000E4B2A3450AD206212800FFF72BFE0421CF
:102420002800FFF727FE1AEBAA0A04E09DF84410E3
:102430002800FFF71FFEBAF1000F06D00121280087
:10244000FFF718FE504600F0F2FCB9F1000F06D07D
:10245000584610F1010BC0B2E4B2A042B1D3B9F1B9
:10246000000F0CD0E4B2002C07D0E4B25FFA8BFB73
:102470005C4502D20320009001E002200090009809
:1024800005B0BDE8F08F2DE9F34F87B016001F00AF
:10249000DDF84880DDF84C90DDF850A0159DDDF8A2
:1024A00058B0179C310009B2380000F074FDB9F142
:1024B000000F04D0310009B2484600F06CFDE4B2D0
:1024C0000594CDF810B0EDB20395CDF808A0CDF885
:1024D0000490CDF800803B00089A04210798FFF78C
:1024E00048FF09B0BDE8F08F2DE9FE4F04008B4690
:1024F000019A2100200000F01BFD00208DF8000053
:1025000000208146BBF9000082460298B0F9000025
:10251000401E0500002D39D4029828188078804686
:102520005FFA88F8B8F1000F2ED0281980780600DD
:10253000012007005FFA88F8B8F1000F22D05FEAA7
:10254000C87019D55FFA89F9B9F1000F0AD1BAF14B
:10255000010A0FFA8AFA1AEB0B0080788DF8000056
:10256000012081469DF8000010EA090F01D03E438A
:1025700000E0BE435FEA49097F005FFA88F85FEA3E
:102580005808D7E7281986706D1EC3E7BDE8F78F96
:1025900004218160806870470100012008700020DC
:1025A000704710B50400B4F9181004F2263000F09A
:1025B000F2FC002010BD70B588B0040006A800F041
:1025C0001CFC9DF81800FFF73FFD05002DB2B5F586
:1025D000807F02DD062006001FE09DF81800FFF74F
:1025E00033FD010009B214F11A0000F0D4FC002000
:1025F000059020690490607B0390002002900020E9
:1026000001900020009014F11A039DF818200B216E
:1026100014F10C00FFF7ADFE0600002E00D0A660FE
:10262000300008B070BDF0B587B00400022114F18D
:102630001A0000F0B0FC14F11A0000F033FC0500A1
:102640002800FFF701FD060036B2B6F5807F02DDF7
:10265000062007001DE02800FFF7F6FC010009B284
:1026600014F11A0000F097FC0020059020690490F6
:10267000607B0390002002900020019000200090D9
:1026800014F11A032A000B2114F10C00FFF771FE5C
:102690000700002F00D0A760380007B0F0BD30B5AC
:1026A00087B00400B4F9181014F11A0000F073FC9C
:1026B000E07B059020690490A07B039004F2263013
:1026C000029014F58F70019004F22220009014F112
:1026D0001A036269042114F10C00FFF74AFE050099
:1026E000002D00D0A560280007B030BD10B5040053
:1026F000042114F11A0000F04EFC14F11A0000F04D
:10270000D1FB2061002010BD10B5040014F10F00B2
:1027100000F073FB002010BD38B504000020050058
:10272000042114F11A0000F036FC14F11A0000F034
:10273000B9FB60616069FFF787FC2083B4F918007A
:10274000B0F5807F02DD06200500A560280032BDBF
:1027500030B587B00400E07B059020690490A07B31
:10276000039004F22630029014F58F70019004F269
:102770002220009014F11A03B4F91820616914F1B1
:102780000C00FFF780FE0500002D00D0A56028009A
:1027900007B030BD10B50400B4F9181004F22A4097
:1027A00000F0F9FBB4F9181004F22E5000F0F3FB1E
:1027B000002010BD2DE9F04188B00400B4F91810D4
:1027C00014F11A0000F0E7FBE07B0590206904900B
:1027D000A07B039004F22630029014F58F700190D4
:1027E00004F22220009014F11A036269042114F10A
:1027F0000C00FFF7BEFD0500002D59D1002006009A
:10280000002080464046C0B2B4F92E1500B288427E
:1028100013DA5FFA88F818EB040090F83005070027
:10282000FFB2002F06D0FFB217F001008619FFB2E9
:102830007F08F5E718F10108E4E706A800F0DDFAE3
:1028400000208046002D33D19DF818005FFA88F8EB
:1028500080452DD23000FFF7F7FB010009B204F2EA
:10286000326000F098FB04F22E5304F22A4204F284
:10287000326114F11A00FFF737FEE07B0590206902
:102880000490A07B039004F22630029014F58F7020
:10289000019004F22220009014F11A0362690421CD
:1028A00014F10C00FFF765FD050018F10108C9E7F8
:1028B000002D00D0A560280008B0BDE8F08170B5FB
:1028C00086B0040060780E2801D1A67B00E00426C3
:1028D0000020059000200490F6B20396002002909C
:1028E000002001900020009014F11A03B4F9182080
:1028F000616914F10C00FFF7C6FD0500002D00D042
:10290000A560280006B070BD70B586B00400607880
:10291000112801D1A67B00E00426002005900020AC
:102920000490F6B203960020029014F58F70019087
:1029300004F22220009014F11A03B4F918206169FE
:1029400014F10C00FFF79FFD0500002D00D0A560DD
:10295000280006B070BD38B5040000A800F04DFA9C
:102960009DF8001014F10C00FFF784FB0500002D0A
:1029700000D0A560280032BD38B504000020050055
:1029800000A800F03AFA9DF80000002806D09DF853
:102990000000012802D00520050015E0607813280A
:1029A00009D19DF80000002802D1012060730BE0DE
:1029B0000D20607308E09DF80000002802D101207E
:1029C000A07301E00620A073002D00D0A5602800B0
:1029D00032BD10B582B0040000A800F00EFA9DF8D8
:1029E00000000028F8D10020A060A06816BDF8B54E
:1029F0000400012114F11A0000F0CDFA207F050037
:102A0000012114F11A0000F0C6FA207F060004210B
:102A100014F11A0000F0BFFA14F11A0000F042FAA3
:102A20000700207BEDB2A84205D02900C9B214F1FD
:102A30000C00FFF71FFB380000F0F9F9207BF6B21D
:102A4000B04205D03100C9B214F10C00FFF712FBFF
:102A50000020F2BD10B504002000FFF7DBFAA060F3
:102A6000A068002805D1002114F10C00FFF702FB3B
:102A7000A060A06810BD10B50400A068002815D1A2
:102A80002078002812D1601C00F0B7F96068401C63
:102A900060606078182806DA20000549627851F8ED
:102AA0002210884702E02000FFF772FDA06810BDE9
:102AB000FC00002010B504002000FFF7C4FA10BD90
:102AC00000B5ADF23C7D00A8FFF7C4FF02980028D6
:102AD00007D19DF80000002803D100A8FFF7CBFF25
:102AE000F4E700A8FFF7E6FF02980DF23C7D00BD79
:102AF00000B583B000F008F90121082000F0DCFAED
:102B00000E20009001208DF8040000208DF80600B2
:102B100000208DF8070002208DF8050000A9DFF8DD
:102B2000440300F017FB00208DF8040000208DF80E
:102B300007000120009000A9DFF8280300F00AFB3D
:102B40000120DFF82413086007BD00B583B000F052
:102B5000CCF80121042000F0AFFA0121022000F09E
:102B6000ABFA0121022000F0A7FA0121082000F0B1
:102B7000A3FA0121082000F09FFA0121022000F0B1
:102B80009BFA01208DF8040000208DF8060000203B
:102B90008DF8070002208DF805004FF4A05000903A
:102BA00000A9B24800F0D6FA4FF40040009000A906
:102BB000AF4800F0CFFA00208DF8040000208DF817
:102BC00007004FF40060009000A9A84800F0C2FA86
:102BD00001208DF8040000208DF8060000208DF8FB
:102BE000070002208DF805001020009000A9A148E0
:102BF00000F0B0FA1020009000A99A4800F0AAFA5C
:102C00008020009000A9974800F0A4FA08200090C6
:102C100000A9984800F09EFA00209349086007BD7B
:102C20001020954908807047C0B201280CD05BD3B2
:102C300003281DD012D305282ED023D307283FD038
:102C400034D3082846D04FE010218D4A11808021CE
:102C50008B4A11800821894A118045E01021894A58
:102C600011808021864A11800821844A11803BE02E
:102C70001021834A11808021824A118008217F4AD5
:102C8000118031E010217F4A118080217D4A11801E
:102C900008217A4A118027E01021794A1180802189
:102CA000774A11800821744A11801DE01021754A6D
:102CB00011808021724A118008216F4A118013E02F
:102CC00010216F4A118080216E4A118008216A4AC2
:102CD000118009E010216B4A11808021694A11801E
:102CE0000821654A1180FFE7704700B583B00F20C7
:102CF000009000208DF8040000208DF8070000A946
:102D0000584800F027FA07BD00B583B000208DF8C1
:102D1000040000208DF807004FF4E050009000A957
:102D2000524800F017FA4FF40040009000A95048B4
:102D300000F010FA07BD4C4A1268012A24D100B2F3
:102D4000012808D1CA0703D504224E4B1A8002E09D
:102D500004224B4B1A8000B2022808D1CA0703D5BF
:102D60000222484B1A8002E00222454B1A8000B230
:102D7000002833D1CA0703D50822424B1A802DE020
:102D800008223F4B1A8029E000B201280AD1CA0765
:102D900004D54FF400423C4B1A8003E04FF400424C
:102DA0003A4B1A8000B202280AD1CA0704D54FF460
:102DB0008052374B1A8003E04FF48052354B1A8013
:102DC00000B200280AD1CA0704D54FF48062304B04
:102DD0001A8003E04FF480622E4B1A80704780B552
:102DE00000210020FFF7A7FF01210020FFF7A3FF2C
:102DF00001BD2948294908607047284909680978B0
:102E0000017026490968491C244A1160704780B541
:102E100015480068012804D10121124800F0EFF99B
:102E200004E04FF40061114800F0E9F902BD70B50B
:102E300004001B48006800FB04F500200600AE42B9
:102E40000EDA00215FF0804000F049FA5FF0804028
:102E500000F047FA0A28F9D3FFF7C1FF761CEEE726
:102E600070BD0000000C0240C801002000080240B4
:102E70000000024000040240180402401A0402400C
:102E80001A0C0240180C0240180002401A000240BE
:102E9000180802401A080240D40100204002012014
:102EA000CC01002001000023180000231A00B1F912
:102EB000003012B29A4206DA000212B253189B781E
:102EC0001843521CF3E77047F0B403005FF0010CA5
:102ED0006046B3F900C0674600B2002825D0BC4662
:102EE000BCF101070FFA8CFCBCF1000F1DD03FB202
:102EF00017EB030C9CF802C064463FB217EB010CC1
:102F00009CF802C06546002A07D03FB217EB020CBE
:102F10009CF802C0664634403540E4B2EDB2AC42A3
:102F2000DAD05FF0000C6046D6E700B2F0BC704724
:102F3000F0B4B1F800C0A0F800C05FF0000C634628
:102F4000B1F900C06746BC46BCF101070FFA8CFC22
:102F5000BCF1000F1DD03FB217EB010C9CF802C072
:102F600065463FB217EB020C9CF802C0664616EBB2
:102F7000050CDBB213EB0C0C6446A4B2FF2C01DD94
:102F8000012300E000233FB217EB000C8CF8024055
:102F9000D9E7F0BC704770B504000D002580A01C77
:102FA00006002DB2002D05D03000FFF726FF6D1E64
:102FB000761CF6E770BD0000F0B40021002200236B
:102FC000022400250226DFF868713F6817F00C071D
:102FD00039000F00002F04D0042F06D0082F08D08E
:102FE0003CE0DFF8547107603BE0DFF850710760A8
:102FF00037E0DFF840713F68C7F380573D00DFF8E6
:1030000034713F6817F03F073E00002D0DD0DFF808
:103010002C71B7FBF6F7DFF81CC1DCF800C0CCF36D
:10302000881C0CFB07F73B000CE0DFF80C71B7FBCA
:10303000F6F7DFF800C1DCF800C0CCF3881C0CFB0D
:1030400007F73B00DFF8EC703F68C7F301477F1CD0
:103050007F003C00B3FBF4F7076002E0DFF8D870B4
:103060000760DFF8CC703F6817F0F00739000909F6
:10307000DFF8CC70CF5D3A000768D7404760DFF8D3
:10308000B0703F6817F4E0573900890ADFF8B07074
:10309000CF5D3A004768D7408760254F3F6817F4F7
:1030A00060473900490BDFF89870CF5D3A004768F8
:1030B000D740C760F0BC7047C9B2002905D0214A8B
:1030C000126802431F4B1A6004E01E4A12688243D2
:1030D0001C4B1A607047C9B2002905D01A4A126801
:1030E0000243194B1A6004E0174A12688243164BD8
:1030F0001A607047C9B2002905D0144A1268024309
:10310000124B1A6004E0114A126882430F4B1A6096
:103110007047C9B2002905D00D4A126802430C4B12
:103120001A6004E00A4A12688243094B1A60704729
:1031300008380240043802400024F40040787D0141
:10314000B801002030380240403802404438024084
:1031500024380240F0B400220023002400252A0075
:10316000102A4AD2012595402B000D681D402C00E5
:103170009C4240D1056803261700FFB27F00BE4085
:10318000B543056005680E791700FFB27F00BE40A9
:10319000354305600D79012D02D00D79022D1AD12C
:1031A000856803261700FFB27F00BE40B5438560E7
:1031B00085684E791700FFB27F00BE4035438560B9
:1031C000456801269640B543456045688E7996402E
:1031D000B6B235434560C56803261700FFB27F00CD
:1031E000BE40B543C560C568CE791700FFB27F0009
:1031F000BE403543C560521CB2E7F0BC70470200C8
:103200000020136989B20B4202D00123180001E0AB
:1032100000231800C0B27047F0B400230024D2B2DB
:1032200011F00705EDB2AD0012FA05F52B0089B2D9
:10323000CD1010EB850589B2CE1010EB8606366AEC
:103240000F2711F0070C5FFA8CFC5FEA8C0C17FA61
:103250000CF7BE432E6289B2CD1010EB85052D6AA6
:103260001D432C0089B2CD1010EB85052C62F0BCFB
:1032700070470000002203881A00224B98420ED0AB
:10328000264B98420BD0B0F1804F08D01E4B98428D
:1032900005D01E4B984202D01D4B984204D14FF6E8
:1032A0008F731A404B881A431A4B984207D01A4B17
:1032B000984204D04FF6FF431A400B891A4302800C
:1032C0004B68C3620B8803850E4B984202D0134BA8
:1032D000984201D18B7A0386012383827047416231
:1032E0007047406A7047C9B2002904D0028852F082
:1032F0000102028004E002884FF6FE731A40028049
:103300007047000000000140000400400008004039
:10331000000C004000100040001400400004014078
:10332000D2B2002A03D083890B43838102E08389D0
:103330008B438381704789B2CA4302827047000081
:1033400010B588B0040001210120FFF7B5FE01216E
:103350001020FFF7CFFE01211020FFF7DAFE002139
:103360001020FFF7D6FE07220A21DFF84003FFF7FF
:1033700053FF07220921DFF83403FFF74DFF002038
:103380008DF80A0001208DF80B0002208DF808004E
:103390004FF40070019002208DF8090001A9DFF8B8
:1033A0000C03FFF7D7FE02208DF808004FF4806071
:1033B000019001A9BD48FFF7CDFE03940020ADF8B0
:1033C00010000020ADF812000020ADF8140000201D
:1033D000ADF818000C20ADF816004FF4C06000F0F6
:1033E0007DF925208DF8000000208DF801000020D7
:1033F0008DF8020001208DF8030000A800F073F999
:1034000003A9AB4800F0AEF90121A94800F028FA61
:10341000012240F22551A64800F038FA08B010BD4C
:1034200038B504000D002000C0B200F002F8200002
:1034300032BD10B5040001209E4908809E480470EA
:103440009D489E490860012240F22771984800F08B
:103450001DFA4021964800F044FA0028F9D010BD2A
:1034600010B50400012093490880934804709248E5
:1034700092490860012240F227718D4800F006FA57
:1034800010BD38B504000D008A4805808B480460E3
:10349000012240F22771864800F0F8F94021844863
:1034A00000F01FFA0028F9D031BD10B540F22771A5
:1034B0007F4800F025FA002818D080480068411C99
:1034C0007E4A1160017889B2794800F0D7F97948CD
:1034D0000088401E7749088076480088002805D17A
:1034E000002240F22771724800F0D0F940F22551D5
:1034F0006F4800F005FA002800F0D6806C4800F014
:10350000C1F904006E480078002808D003282CD0A8
:10351000042800F08280052800F0BD80C4E06948DE
:10352000047068480078102804D015D312280FD0F2
:1035300007D311E003206249087000206249087037
:103540000DE004205E49087000205F49087006E025
:1035500005205B49087002E001205C4908700022E8
:1035600001215B48FFF7DCFE9EE057480078002809
:1035700006D0022816D00AD304282BD019D345E050
:10358000E4B25048448001204F49087044E04D485F
:103590004088E4B210EB04204A49488002204A499E
:1035A000087039E0E4B24748848003204649087037
:1035B00032E044488088E4B210EB0420414988801E
:1035C000042041490870002042490860FF20FFF7AD
:1035D00047FF21E040483B4949883E4A126851185C
:1035E0000C543C480068401C3A490860394800685F
:1035F00034498988884208D1EE20FFF731FF002046
:103600003149087000202E49087005E000202E493D
:10361000087000202A49087046E02B4800780028EE
:1036200005D0022815D009D3032819D02CE0E4B224
:10363000244844800120244908702BE02148408818
:10364000E4B210EB04201F49488002201E49087094
:1036500020E0E4B21B48848003201B49087019E075
:1036600018488088E4B210EB0420164988800420B2
:10367000154908700020144908700020104908708E
:1036800001201249087005E000200F490870002051
:103690000B49087008E00B48847000200849087046
:1036A00001200A490870FFE710BD00000000024039
:1036B000001001405402012056020120480201205E
:1036C0005702012030020120580201205902012036
:1036D000000400404C020120D40100201C49014399
:1036E0001C4A1160704770B4002300210F22C47877
:1036F000002C21D0174C246814F4E064D4F5E06465
:10370000240A2300D3F104042100D2B21A414478E0
:103710008C4023008478144023431B010E4C057811
:103720002B550124057815F01F05AC400B4D06788C
:10373000761145F8264009E00124057815F01F05AB
:10374000AC40074D0678761145F8264070BC7047AE
:103750000000FA050CED00E000E400E000E100E00C
:1037600080E100E02DE9F04385B004000D005FF03A
:103770000009002600275FF00008A8890028208A99
:10378000814639F44059E88850EA0909A4F81090B4
:10379000A0898146314810EA0909A8882989084387
:1037A0006989084350EA0909A4F80C90A08A814667
:1037B00039F44079A88950EA0909A4F8149000A8BE
:1037C000FFF7FAFB2348844202D02348844202D107
:1037D0000398060001E002980600A089000408D5BD
:1037E000192000FB06F029684900B0FBF1F0070042
:1037F00007E0192000FB06F029688900B0FBF1F012
:1038000007006420B7FBF0F0000181465FEA191061
:10381000642101FB10708046A08900040AD55FEA8C
:10382000C80032306421B0FBF1F010F0070050EA1C
:10383000090909E05FEA081032306421B0FBF1F0B9
:1038400010F00F0050EA0909A4F8089005B0BDE88F
:10385000F08300000010014000140140F3E9FFFF75
:10386000C9B2002904D0828952F40052828104E056
:1038700082894DF6FF731A4082817047CA05D20DC6
:10388000828070478088C005C00D7047F0B4002367
:1038900000240025002689B240F66A17B9420600C6
:1038A0000F00FFB27F09FFB23B0089B211F01F0782
:1038B0003C000127A7403D00012B01D10C3604E05C
:1038C000022B01D1103600E01436D2B2002A03D008
:1038D00037682F43376002E03768AF433760F0BC8A
:1038E00070470200002089B2B1F5007F13880B42B7
:1038F00002D00123180001E000231800C0B2704775
:1039000070B40200002300250024002089B240F694
:103910006A16B1420E00F6B27609F6B2340089B2E8
:1039200011F01F063500012616FA05F5012C02D10B
:103930009689354006E0022C02D1168A354001E016
:10394000968A354089B20E0AB6B23300012616FABD
:1039500003F316883340002D04D0002B02D001263B
:10396000300001E000263000C0B270BC704700009B
:1039700010B440B2002808D50A01514B40B210F0F3
:103980000F04E31803F8042C03E00A014D4B40B286
:10399000C25410BC704710B50400601EB0F1807FA7
:1039A00001D301200EE0601E474908600F215FF03F
:1039B000FF30FFF7DDFF002044490860072044493D
:1039C0000860002010BD80B5424800684FF47A714D
:1039D000B0FBF1F0FFF7DFFF002800D0FEE73E4824
:1039E00000F007F84FF47A7142F2107000F029F8F5
:1039F00001BD3EB50400002501210220FFF75CFB5C
:103A000001210120FFF767FB324800684008B0FB46
:103A1000F4F0401E05005FF0FF300190ADF800505B
:103A20000020ADF808000020ADF8020000A95FF00A
:103A30008040FFF71FFC01215FF08040FFF753FC3F
:103A400037BD7FB504000D00002601210220FFF7DD
:103A500042FB204800684008B0FBF4F0401E06001E
:103A6000ADB20295ADF804600020ADF80C00002066
:103A7000ADF8060001A91948FFF7FCFB4FF44070B0
:103A8000FFF72CFE1D208DF8000001208DF80100AD
:103A900003208DF8020001208DF8030000A8FFF735
:103AA00022FE01210D48FFF71EFC7FBD0C48006877
:103AB000002804D00A480068401E09490860704781
:103AC00018ED00E000E400E014E000E018E000E0A1
:103AD00010E000E0D0010020002D31010004004082
:103AE0004402012080B5454800780128FBD1002020
:103AF0004249087042480078012804D0112805D0B6
:103B0000122806D008E000F010F808E000F016F8DF
:103B100005E000F02DF802E0F020FFF78AFC01221A
:103B200001213848FFF7FCFBDDE780B5FF20FFF7F8
:103B300080FC0B213448FFF7A4FC01BD70B5304870
:103B4000408805002E4880880600FF20FFF771FCA2
:103B500000200400A4B2B6B2B44208D22B48A4B2EA
:103B6000ADB22919085CFFF764FC641CF2E770BD74
:103B700038B50024224880780500FF20FFF759FC63
:103B8000EDB2002D19D1FEF7B3FFFFF732F9FEF7C2
:103B900097FF0400002C03D1EE20FFF74AFC06E05B
:103BA000E020FFF746FC2000C0B2FFF742FCFFF721
:103BB0009CF8032000F05EF81EE0FEF7C6FFFFF75A
:103BC0002FF82800C0B2FFF72FF8FFF712F9FEF721
:103BD00077FF0400002C03D1EE20FFF72AFC06E05B
:103BE000E020FFF726FC2000C0B2FFF722FCFFF721
:103BF0008BF8042000F03EF831BD0000590201208E
:103C0000300201200004004024020120D4010020E1
:103C100010B500200400072C09DA2000C0B200F023
:103C200007F82000C0B200F02FF8641CF3E710BDC5
:103C30001CB5040001212148E4B250F82400FFF72C
:103C40003BFA1F48E4B230F81400009001208DF8D0
:103C5000040000208DF8060002208DF807000220E5
:103C60008DF8050000A91748E4B250F82400FFF7CA
:103C700071FA13BD1249C0B231F81010114AC0B226
:103C800052F82020518370470D49C0B231F810100E
:103C90000C4AC0B252F82020118370470949C0B2C3
:103CA00051F820104969064AC0B232F8102051403C
:103CB000044AC0B252F820205161704740400008C9
:103CC000AC4000089C01002080B53F48006850F0DF
:103CD00001003D49086000203C4908603A480068FE
:103CE0003B490840384908603A483B490860364833
:103CF000006830F4802034490860002037490860AB
:103D000000F005F85FF000603549086001BD82B041
:103D100000200190002000902B48006850F4803073
:103D2000294908602848006810F400300090019884
:103D3000401C01900098002803D10198B0F5A06FB5
:103D4000F0D121480068800302D50120009001E0F5
:103D5000002000900098012832D11C4800681B49BF
:103D600008601A48006850F4004018490860174875
:103D7000006850F4A050154908601A4816490860B8
:103D80001148006850F080700F4908600E480068C4
:103D90008001FBD540F20370134908600B480068AE
:103DA00080088000094908600848006850F0020057
:103DB000064908600548006810F00C000828F9D191
:103DC00002B070470000000000380240083802408E
:103DD000FFFFF6FE10300024043802400C38024089
:103DE00008ED00E0193C4005003C0240816807E016
:103DF00002681168536889185B18C3600832026052
:103E0000C2689142F4D04A1C8260087870472DE95C
:103E1000FF4D00F10801009100270268520801EBF4
:103E2000C2010191B846002102910391016849083D
:103E300000EBC101406800F0010501F108044008F1
:103E400004EBC00631E000A8FFF7D0FF4FFA80FA7C
:103E50000AE000980168081800990290496808185B
:103E60000390009808300090029803998842F0D09F
:103E7000401C029010F801BD47450CD1B44208BF68
:103E800000F01DF8276805B14F44606800EB070893
:103E900008344745F2D007F801BBBAF1000F0AD544
:103EA0001AF1010AE8D14745CDD1B442CBD1304611
:103EB00004B0BDE8F08DBAF1010AD5D5F3E70120D1
:103EC00000F000B880B5C046C046024A1100182074
:103ED000ABBEFBE72600020038B51A4805000020FB
:103EE00004000B2C04D2002028706D1C641CF8E721
:103EF0000220144908705FF4E130FFF721FAFFF760
:103F000062FD114800F024F8FFF782FE0122012132
:103F10000E48FFF705FAFFF7E5FD002032BD80B53A
:103F2000002201210948FFF7FBF901210748FFF7AB
:103F300002FA0020FFF7B2FE012201210348FFF739
:103F4000EFF901BD24020120743F00080004004085
:103F50000EB400B582B003A90091024600AB012166
:103F6000034878440A30FCF70DF906BC5DF810FBF5
:103F70001B0100000A0D0A0D0A0D0A0D0D2A2A2A3E
:103F80002A2A2A2A2A2A2A2A2A2A2A205243343743
:103F900020546573742053746172746564202A2AF6
:103FA0002A2A2A2A2A2A2A2A2A2A2A2A2A2A2A2A71
:103FB0002A2A2A2A2A2A0A0D0D0A0D007047FEE72E
:103FC000FEE7FEE7FEE770477047704780B5FFF7F2
:103FD0006DFD01BD704780B5FFF7A1FF01BD7047C2
:103FE00080B5FFF762FA01BD7047704710B5074909
:103FF00079441831064C7C44163404E00A68081DE4
:10400000511888470146A142F8D110BD08000000B0
:1040100030000000DFD2FFFF88000100D401002043
:1040200000000000EBFDFFFF0200000002000000A6
:1040300010020000C600000000000020D4010000B3
:104040001000000010000000100000001000000030
:1040500010000000100000001000000000F00BF83D
:10406000002801D0FFF7C2FF0020C046C046FFF77E
:1040700033FF00F002F80120704700F001B80000A3
:1040800007463846FFF71EFFFBE738B504460D46E6
:10409000284600F005F8A84218BF0024204632BD8B
:1040A0000149FFF7BDB900BF5C010020010002001B
:1040B0000400080010002000400000000148804774
:1040C00001480047C93C0008CD400008C046C04632
:1040D000C046C046FFF7C2FFFFF770BFFFF76FBFD4
:1040E000FFF76EBFFFF76DBFFFF76CBFFFF76BBF4A
:1040F000FFF76ABFFFF769BFFFF768BFFFF7FEBFB3
:10410000FFF7FEBFFFF7FEBFFFF7FEBFFFF7FEBFE3
:10411000FFF7FEBFFFF7FEBFFFF7FEBFFFF7FEBFD3
:10412000FFF75DBFFFF7FEBFFFF7FEBFFFF7FEBF64
:10413000FFF7FEBFFFF7FEBFFFF7FEBFFFF7FEBFB3
:10414000FFF7FEBFFFF7FEBFFFF7FEBFFFF7FEBFA3
:10415000FFF7FEBFFFF7FEBFFFF7FEBFFFF7FEBF93
:10416000FFF7FEBFFFF7FEBFFFF7FEBFFFF7FEBF83
:10417000FFF731BFFFF7FEBFFFF736BFFFF735BFD1
:10418000FFF7FEBFFFF7FEBFFFF7FEBFFFF7FEBF63
:10419000FFF726BFFFF7FEBFFFF7FEBFFFF7FEBF2B
:1041A000FFF7FEBFFFF7FEBFFFF7FEBFFFF7FEBF43
:1041B000FFF7FEBFFFF7FEBFFFF7FEBFFFF7FEBF33
:1041C000FFF708BFFFF7FEBFFFF7FEBFFFF7FEBF19
:1041D000FFF7FEBFFFF7FEBFFFF7FEBFFFF7FEBF13
:1041E000FFF7FEBFFFF7FEBFFFF7FEBFFFF7FEBF03
:1041F000FFF7FEBFFFF7FEBFFFF7FEBFFFF7FEBFF3
:10420000FFF7FEBFFFF7FEBFFFF7FEBFFFF7FEBFE2
:10421000FFF7FEBFFFF7FEBFFFF7FEBFFFF7FEBFD2
:10422000FFF7FEBFFFF7FEBFFFF7FEBFFFF7FEBFC2
:10423000FFF7FEBFFFF7FEBFFFF7FEBFFFF7FEBFB2
:10424000E400F8FFDC00FAFF8100D1007E99250030
:1042500008A3250008B72500089F260008ED2600C2
:104260000891250008912500080927000819270052
:10427000085127000895270008B5270008BF280027
:1042800008BF280008BF28000809290008092900DC
:104290000809290008572900087929000879290008
:1042A0000827260008D3290008EF29000802040186
:1042B00001D401012024020120D4010120D40101F4
:1042C00020D4010120990100208001000020DF009E
:1042D0001A1002400010024000100240001002407C
:1042E000001002400010024000100240FC000C01CF
:1042F000020304010203040607080901FD0000028D
:06430000FC0002E1F505DE
:04000005080040CDE2
:00000001FF
